{
  "abi": [
    {
      "inputs": [
        {
          "internalType": "address[]",
          "name": "wordListContractAddresses",
          "type": "address[]"
        },
        {
          "internalType": "address[]",
          "name": "allowedGuessesWordListContractAddresses",
          "type": "address[]"
        },
        {
          "internalType": "uint256",
          "name": "lotSizeInWeiParam",
          "type": "uint256"
        },
        {
          "internalType": "uint64",
          "name": "vrfSubscriptionId",
          "type": "uint64"
        }
      ],
      "stateMutability": "nonpayable",
      "type": "constructor"
    },
    {
      "inputs": [
        {
          "internalType": "address",
          "name": "have",
          "type": "address"
        },
        {
          "internalType": "address",
          "name": "want",
          "type": "address"
        }
      ],
      "name": "OnlyCoordinatorCanFulfill",
      "type": "error"
    },
    {
      "anonymous": false,
      "inputs": [
        {
          "indexed": true,
          "internalType": "address",
          "name": "previousOwner",
          "type": "address"
        },
        {
          "indexed": true,
          "internalType": "address",
          "name": "newOwner",
          "type": "address"
        }
      ],
      "name": "OwnershipTransferred",
      "type": "event"
    },
    {
      "inputs": [],
      "name": "currGameState",
      "outputs": [
        {
          "internalType": "enum WordleVRF.GameState",
          "name": "",
          "type": "uint8"
        }
      ],
      "stateMutability": "view",
      "type": "function"
    },
    {
      "inputs": [
        {
          "internalType": "address",
          "name": "",
          "type": "address"
        }
      ],
      "name": "enabled",
      "outputs": [
        {
          "internalType": "bool",
          "name": "",
          "type": "bool"
        }
      ],
      "stateMutability": "view",
      "type": "function"
    },
    {
      "inputs": [],
      "name": "getCompletedGameCount",
      "outputs": [
        {
          "internalType": "uint256",
          "name": "count",
          "type": "uint256"
        }
      ],
      "stateMutability": "view",
      "type": "function"
    },
    {
      "inputs": [],
      "name": "getGuessResult",
      "outputs": [
        {
          "internalType": "enum WordleVRF.WordleResult[5]",
          "name": "",
          "type": "uint8[5]"
        }
      ],
      "stateMutability": "nonpayable",
      "type": "function"
    },
    {
      "inputs": [],
      "name": "getOwnerCut",
      "outputs": [
        {
          "internalType": "uint256",
          "name": "",
          "type": "uint256"
        }
      ],
      "stateMutability": "view",
      "type": "function"
    },
    {
      "inputs": [],
      "name": "getPlayerCount",
      "outputs": [
        {
          "internalType": "uint256",
          "name": "count",
          "type": "uint256"
        }
      ],
      "stateMutability": "view",
      "type": "function"
    },
    {
      "inputs": [
        {
          "internalType": "uint256",
          "name": "guessNumber",
          "type": "uint256"
        }
      ],
      "name": "getSolvedCountsByGuessNumber",
      "outputs": [
        {
          "internalType": "uint256",
          "name": "solvedCount",
          "type": "uint256"
        }
      ],
      "stateMutability": "view",
      "type": "function"
    },
    {
      "inputs": [
        {
          "internalType": "address",
          "name": "a",
          "type": "address"
        },
        {
          "internalType": "uint256",
          "name": "b",
          "type": "uint256"
        }
      ],
      "name": "getWordListForUser",
      "outputs": [
        {
          "internalType": "string",
          "name": "",
          "type": "string"
        }
      ],
      "stateMutability": "view",
      "type": "function"
    },
    {
      "inputs": [
        {
          "internalType": "address",
          "name": "a",
          "type": "address"
        }
      ],
      "name": "getWordListForUserLength",
      "outputs": [
        {
          "internalType": "uint256",
          "name": "",
          "type": "uint256"
        }
      ],
      "stateMutability": "view",
      "type": "function"
    },
    {
      "inputs": [
        {
          "internalType": "address",
          "name": "",
          "type": "address"
        },
        {
          "internalType": "uint256",
          "name": "",
          "type": "uint256"
        },
        {
          "internalType": "uint256",
          "name": "",
          "type": "uint256"
        }
      ],
      "name": "guessStore",
      "outputs": [
        {
          "internalType": "enum WordleVRF.WordleResult",
          "name": "",
          "type": "uint8"
        }
      ],
      "stateMutability": "view",
      "type": "function"
    },
    {
      "inputs": [],
      "name": "initGame",
      "outputs": [],
      "stateMutability": "nonpayable",
      "type": "function"
    },
    {
      "inputs": [],
      "name": "lotSizeInWei",
      "outputs": [
        {
          "internalType": "uint256",
          "name": "",
          "type": "uint256"
        }
      ],
      "stateMutability": "view",
      "type": "function"
    },
    {
      "inputs": [
        {
          "internalType": "string",
          "name": "guessedWordString",
          "type": "string"
        }
      ],
      "name": "makeGuess",
      "outputs": [],
      "stateMutability": "nonpayable",
      "type": "function"
    },
    {
      "inputs": [
        {
          "internalType": "address",
          "name": "",
          "type": "address"
        }
      ],
      "name": "numberOfGuesses",
      "outputs": [
        {
          "internalType": "uint256",
          "name": "",
          "type": "uint256"
        }
      ],
      "stateMutability": "view",
      "type": "function"
    },
    {
      "inputs": [],
      "name": "owner",
      "outputs": [
        {
          "internalType": "address",
          "name": "",
          "type": "address"
        }
      ],
      "stateMutability": "view",
      "type": "function"
    },
    {
      "inputs": [
        {
          "internalType": "uint256",
          "name": "",
          "type": "uint256"
        }
      ],
      "name": "pastGamePaymentSplitters",
      "outputs": [
        {
          "internalType": "address",
          "name": "",
          "type": "address"
        }
      ],
      "stateMutability": "view",
      "type": "function"
    },
    {
      "inputs": [],
      "name": "payoutAndReset",
      "outputs": [
        {
          "internalType": "contract PaymentSplitter",
          "name": "paymentSplitterAddress",
          "type": "address"
        }
      ],
      "stateMutability": "nonpayable",
      "type": "function"
    },
    {
      "inputs": [
        {
          "internalType": "uint256",
          "name": "",
          "type": "uint256"
        }
      ],
      "name": "playersList",
      "outputs": [
        {
          "internalType": "address",
          "name": "",
          "type": "address"
        }
      ],
      "stateMutability": "view",
      "type": "function"
    },
    {
      "inputs": [
        {
          "internalType": "address",
          "name": "",
          "type": "address"
        }
      ],
      "name": "randomNumberRequestStateForUser",
      "outputs": [
        {
          "internalType": "enum WordleVRF.RandomNumberRequestState",
          "name": "",
          "type": "uint8"
        }
      ],
      "stateMutability": "view",
      "type": "function"
    },
    {
      "inputs": [
        {
          "internalType": "uint256",
          "name": "requestId",
          "type": "uint256"
        },
        {
          "internalType": "uint256[]",
          "name": "randomWords",
          "type": "uint256[]"
        }
      ],
      "name": "rawFulfillRandomWords",
      "outputs": [],
      "stateMutability": "nonpayable",
      "type": "function"
    },
    {
      "inputs": [],
      "name": "renounceOwnership",
      "outputs": [],
      "stateMutability": "nonpayable",
      "type": "function"
    },
    {
      "inputs": [
        {
          "internalType": "uint256",
          "name": "",
          "type": "uint256"
        }
      ],
      "name": "s_randomWords",
      "outputs": [
        {
          "internalType": "uint256",
          "name": "",
          "type": "uint256"
        }
      ],
      "stateMutability": "view",
      "type": "function"
    },
    {
      "inputs": [],
      "name": "s_requestId",
      "outputs": [
        {
          "internalType": "uint256",
          "name": "",
          "type": "uint256"
        }
      ],
      "stateMutability": "view",
      "type": "function"
    },
    {
      "inputs": [
        {
          "internalType": "uint256",
          "name": "newCut",
          "type": "uint256"
        }
      ],
      "name": "setOwnerCut",
      "outputs": [],
      "stateMutability": "nonpayable",
      "type": "function"
    },
    {
      "inputs": [],
      "name": "signUp",
      "outputs": [],
      "stateMutability": "payable",
      "type": "function"
    },
    {
      "inputs": [
        {
          "internalType": "address",
          "name": "",
          "type": "address"
        }
      ],
      "name": "solved",
      "outputs": [
        {
          "internalType": "bool",
          "name": "",
          "type": "bool"
        }
      ],
      "stateMutability": "view",
      "type": "function"
    },
    {
      "inputs": [
        {
          "internalType": "address",
          "name": "newOwner",
          "type": "address"
        }
      ],
      "name": "transferOwnership",
      "outputs": [],
      "stateMutability": "nonpayable",
      "type": "function"
    },
    {
      "inputs": [
        {
          "internalType": "address",
          "name": "",
          "type": "address"
        },
        {
          "internalType": "uint256",
          "name": "",
          "type": "uint256"
        }
      ],
      "name": "userGuesses",
      "outputs": [
        {
          "internalType": "string",
          "name": "",
          "type": "string"
        }
      ],
      "stateMutability": "view",
      "type": "function"
    },
    {
      "inputs": [
        {
          "internalType": "uint256",
          "name": "",
          "type": "uint256"
        }
      ],
      "name": "wordList",
      "outputs": [
        {
          "internalType": "string",
          "name": "",
          "type": "string"
        }
      ],
      "stateMutability": "view",
      "type": "function"
    }
  ],
  "bytecode": "600280546001600160a01b03191673602c71e4dac47a042ee7f46e0aee17f94a3ba0b61790557fd89b2bf150e3b9e13446986e571fb9cab24b13cea0a43ea20a6049a85cc807cc60035560048054660100033b9aca006001600160501b0319909116179055610180604052600060a090815261271060c05261138860e0526107d0610100526103e8610120526101f461014052606461016052620000a890601d9060076200054d565b50600a60245560408051808201909152601a8082527f4142434445464748494a4b4c4d4e4f505152535455565758595a0000000000006020909201918252620000f49160279162000596565b503480156200010257600080fd5b5060405162004bcf38038062004bcf833981016040819052620001259162000712565b6002546001600160a01b03166200013c33620004fd565b6001600160a01b031660805260005b8451811015620002ea578481815181106200016a576200016a6200079f565b6020026020010151602560016101000a8154816001600160a01b0302191690836001600160a01b0316021790555060005b602560019054906101000a90046001600160a01b03166001600160a01b0316634e4c8fcc6040518163ffffffff1660e01b8152600401602060405180830381865afa158015620001ef573d6000803e3d6000fd5b505050506040513d601f19601f82011682018060405250810190620002159190620007b5565b811015620002d45760255460405163064f764760e41b81526004810183905260139161010090046001600160a01b0316906364f7647090602401600060405180830381865afa1580156200026d573d6000803e3d6000fd5b505050506040513d6000823e601f3d908101601f1916820160405262000297919081019062000802565b815460018101835560009283526020928390208251620002be949190920192019062000596565b5080620002cb81620008a0565b9150506200019b565b5080620002e181620008a0565b9150506200014b565b5060005b835181101562000498578381815181106200030d576200030d6200079f565b6020026020010151602560016101000a8154816001600160a01b0302191690836001600160a01b0316021790555060005b602560019054906101000a90046001600160a01b03166001600160a01b0316634e4c8fcc6040518163ffffffff1660e01b8152600401602060405180830381865afa15801562000392573d6000803e3d6000fd5b505050506040513d601f19601f82011682018060405250810190620003b89190620007b5565b811015620004825760255460405163064f764760e41b8152600481018390526001916014916101009091046001600160a01b0316906364f7647090602401600060405180830381865afa15801562000414573d6000803e3d6000fd5b505050506040513d6000823e601f3d908101601f191682016040526200043e919081019062000802565b6040516200044d9190620008c8565b908152604051908190036020019020805491151560ff19909216919091179055806200047981620008a0565b9150506200033e565b50806200048f81620008a0565b915050620002ee565b506026919091556025805460ff1916905560025460018054600780546001600160a01b031916331790556001600160401b03909316600160a01b026001600160e01b03199093166001600160a01b039092169190911791909117905550620009229050565b600080546001600160a01b038381166001600160a01b0319831681178455604051919092169283917f8be0079c531659141344cd1fd0a4f28419497f9722a3daafe3b4186f6b6457e09190a35050565b826007810192821562000584579160200282015b8281111562000584578251829061ffff1690559160200191906001019062000561565b506200059292915062000613565b5090565b828054620005a490620008e6565b90600052602060002090601f016020900481019282620005c8576000855562000584565b82601f10620005e357805160ff191683800117855562000584565b8280016001018555821562000584579182015b8281111562000584578251825591602001919060010190620005f6565b5b8082111562000592576000815560010162000614565b634e487b7160e01b600052604160045260246000fd5b604051601f8201601f191681016001600160401b03811182821017156200066b576200066b6200062a565b604052919050565b600082601f8301126200068557600080fd5b815160206001600160401b03821115620006a357620006a36200062a565b8160051b620006b482820162000640565b9283528481018201928281019087851115620006cf57600080fd5b83870192505b84831015620007075782516001600160a01b0381168114620006f75760008081fd5b82529183019190830190620006d5565b979650505050505050565b600080600080608085870312156200072957600080fd5b84516001600160401b03808211156200074157600080fd5b6200074f8883890162000673565b955060208701519150808211156200076657600080fd5b620007748883890162000673565b9450604087015193506060870151915080821682146200079357600080fd5b50939692955090935050565b634e487b7160e01b600052603260045260246000fd5b600060208284031215620007c857600080fd5b5051919050565b60005b83811015620007ec578181015183820152602001620007d2565b83811115620007fc576000848401525b50505050565b6000602082840312156200081557600080fd5b81516001600160401b03808211156200082d57600080fd5b818401915084601f8301126200084257600080fd5b8151818111156200085757620008576200062a565b6200086c601f8201601f191660200162000640565b91508082528560208285010111156200088457600080fd5b62000897816020840160208601620007cf565b50949350505050565b600060018201620008c157634e487b7160e01b600052601160045260246000fd5b5060010190565b60008251620008dc818460208701620007cf565b9190910192915050565b600181811c90821680620008fb57607f821691505b6020821081036200091c57634e487b7160e01b600052602260045260246000fd5b50919050565b60805161428a620009456000396000818161063c015261067f015261428a6000f3fe608060405260043610620001e75760003560e01c806389c8fa7b116200010b578063c2e5220611620000a1578063e89e106a116200006c578063e89e106a14620005aa578063ec7c472c14620005c2578063f2fde38b14620005e7578063f6eaffc8146200060c57600080fd5b8063c2e522061462000531578063c678da521462000548578063c9662c50146200056d578063e1f0a81a146200058557600080fd5b80639602e9d811620000e25780639602e9d814620004a957806398afdfe314620004ce578063acc3f8251462000502578063bf96ae63146200052757600080fd5b806389c8fa7b146200044c5780638da5cb5b14620004715780638ddf4137146200049157600080fd5b80635e36bdc6116200018157806364f76470116200015857806364f76470146200039d578063715018a614620003d15780637319b43e14620003e9578063757de573146200042757600080fd5b80635e36bdc6146200030c5780636072d94b146200035157806361252d54146200037857600080fd5b806323ddff8d11620001c257806323ddff8d146200026f5780632529fd7a146200029a5780632933924d14620002b157806332eb256414620002f457600080fd5b806305f16e3314620001ec5780631e7e93fe14620002175780631fe543e31462000248575b600080fd5b348015620001f957600080fd5b506200020460265481565b6040519081526020015b60405180910390f35b3480156200022457600080fd5b50620002046200023636600462002b76565b60086020526000908152604090205481565b3480156200025557600080fd5b506200026d6200026736600462002bb1565b62000631565b005b3480156200027c57600080fd5b506025546200028b9060ff1681565b6040516200020e919062002c9d565b348015620002a757600080fd5b50601c5462000204565b348015620002be57600080fd5b50620002e5620002d036600462002b76565b600f6020526000908152604090205460ff1681565b6040516200020e919062002ccd565b3480156200030157600080fd5b506200026d620006c1565b3480156200031957600080fd5b50620003406200032b36600462002b76565b60096020526000908152604090205460ff1681565b60405190151581526020016200020e565b3480156200035e57600080fd5b506200036962000779565b6040516200020e919062002cdc565b3480156200038557600080fd5b50620002046200039736600462002b76565b62001062565b348015620003aa57600080fd5b50620003c2620003bc36600462002d1b565b620010b0565b6040516200020e919062002d35565b348015620003de57600080fd5b506200026d62001165565b348015620003f657600080fd5b506200040e6200040836600462002d1b565b620011a0565b6040516001600160a01b0390911681526020016200020e565b3480156200043457600080fd5b506200026d6200044636600462002d1b565b620011cb565b3480156200045957600080fd5b50620003c26200046b36600462002d8d565b620011fd565b3480156200047e57600080fd5b506000546001600160a01b03166200040e565b3480156200049e57600080fd5b5062000204620012fe565b348015620004b657600080fd5b506200040e620004c836600462002d1b565b62001333565b348015620004db57600080fd5b5062000340620004ed36600462002b76565b600c6020526000908152604090205460ff1681565b3480156200050f57600080fd5b50620002046200052136600462002d1b565b62001344565b6200026d62001390565b3480156200053e57600080fd5b5060125462000204565b3480156200055557600080fd5b50620003c26200056736600462002d8d565b6200152b565b3480156200057a57600080fd5b506200040e6200155a565b3480156200059257600080fd5b50620002e5620005a436600462002dba565b62001a78565b348015620005b757600080fd5b506200020460065481565b348015620005cf57600080fd5b506200026d620005e136600462002df0565b62001ac3565b348015620005f457600080fd5b506200026d6200060636600462002b76565b62001ed4565b3480156200061957600080fd5b50620002046200062b36600462002d1b565b62001f76565b336001600160a01b037f00000000000000000000000000000000000000000000000000000000000000001614620006b15760405163073e64fd60e21b81523360048201526001600160a01b037f00000000000000000000000000000000000000000000000000000000000000001660248201526044015b60405180910390fd5b620006bd828262001f98565b5050565b6000546001600160a01b03163314620006ee5760405162461bcd60e51b8152600401620006a89062002e67565b600060255460ff1660018111156200070a576200070a62002c87565b14620007635760405162461bcd60e51b815260206004820152602160248201527f4572726f723a2045585045435445442047616d6553746174652e50454e44494e6044820152604760f81b6064820152608401620006a8565b602580546001919060ff191682805b0217905550565b6200078362002754565b600160255460ff1660018111156200079f576200079f62002c87565b14620007bf5760405162461bcd60e51b8152600401620006a89062002e9c565b336000908152600c602052604090205460ff16620008205760405162461bcd60e51b815260206004820152601b60248201527f4572726f723a20504c41594552204e4f54205349474e454420555000000000006044820152606401620006a8565b60013360009081526011602052604090205460ff16600181111562000849576200084962002c87565b14620008b05760405162461bcd60e51b815260206004820152602f60248201527f4572726f723a2045585045435445442055736572477565737353746174652e5060448201526e524f43455353494e475f475545535360881b6064820152608401620006a8565b3360009081526010602052604090205460011480620008f557506002336000908152600f602052604090205460ff166002811115620008f357620008f362002c87565b145b620009515760405162461bcd60e51b815260206004820152602560248201527f4572726f723a204e6f74207265636569766564205652462052616e646f6d204e6044820152643ab6b132b960d91b6064820152608401620006a8565b336000908152601160209081526040808320805460ff19169055600f90915290205460029060ff16818111156200098c576200098c62002c87565b03620009aa57336000908152600f60205260409020805460ff191690555b620009b462002754565b336000908152600b60209081526040808320600890925282205460068110620009e157620009e162002ee1565b018054620009ef9062002ef7565b80601f016020809104026020016040519081016040528092919081815260200182805462000a1d9062002ef7565b801562000a6e5780601f1062000a425761010080835404028352916020019162000a6e565b820191906000526020600020905b81548152906001019060200180831162000a5057829003601f168201915b505033600090815260106020526040902054939450606093600103925062000b5991505057336000908152601060205260408120805490919062000ab65762000ab662002ee1565b90600052602060002001805462000acd9062002ef7565b80601f016020809104026020016040519081016040528092919081815260200182805462000afb9062002ef7565b801562000b4c5780601f1062000b205761010080835404028352916020019162000b4c565b820191906000526020600020905b81548152906001019060200180831162000b2e57829003601f168201915b5050505050905062000c32565b3360009081526010602090815260408083208054600e90935292205462000b81919062002f49565b8154811062000b945762000b9462002ee1565b90600052602060002001805462000bab9062002ef7565b80601f016020809104026020016040519081016040528092919081815260200182805462000bd99062002ef7565b801562000c2a5780601f1062000bfe5761010080835404028352916020019162000c2a565b820191906000526020600020905b81548152906001019060200180831162000c0c57829003601f168201915b505050505090505b62000c3e818362002087565b336000908152600a6020908152604080832060089092529091205491945084916006811062000c715762000c7162002ee1565b62000c8192910190600562002772565b5033600090815260086020526040812080549162000c9f8362002f76565b919050555062000caf8362002462565b1562000d0c57336000908152600960209081526040808320805460ff1916600117905560089091529020546015906007811062000cf05762000cf062002ee1565b01805490600062000d018362002f76565b91905055506200104b565b3360009081526010602052604081205467ffffffffffffffff81111562000d375762000d3762002b9b565b60405190808252806020026020018201604052801562000d6c57816020015b606081526020019060019003908162000d565790505b5090506000805b3360009081526010602052604090205481101562000f6d57336000908152601060205260409020805462000e629162000e5b918490811062000db95762000db962002ee1565b90600052602060002001805462000dd09062002ef7565b80601f016020809104026020016040519081016040528092919081815260200182805462000dfe9062002ef7565b801562000e4f5780601f1062000e235761010080835404028352916020019162000e4f565b820191906000526020600020905b81548152906001019060200180831162000e3157829003601f168201915b50505050508762002087565b876200251b565b1562000f585733600090815260106020526040902080548290811062000e8c5762000e8c62002ee1565b90600052602060002001805462000ea39062002ef7565b80601f016020809104026020016040519081016040528092919081815260200182805462000ed19062002ef7565b801562000f225780601f1062000ef65761010080835404028352916020019162000f22565b820191906000526020600020905b81548152906001019060200180831162000f0457829003601f168201915b505050505083838151811062000f3c5762000f3c62002ee1565b6020026020010181905250818062000f549062002f76565b9250505b8062000f648162002f76565b91505062000d73565b5060008167ffffffffffffffff81111562000f8c5762000f8c62002b9b565b60405190808252806020026020018201604052801562000fc157816020015b606081526020019060019003908162000fab5790505b50905060005b82811015620010235783818151811062000fe55762000fe562002ee1565b602002602001015182828151811062001002576200100262002ee1565b602002602001018190525080806200101a9062002f76565b91505062000fc7565b50336000908152601060209081526040909120825162001046928401906200281d565b505050505b5050336000908152600e6020526040812055919050565b600080546001600160a01b03163314620010905760405162461bcd60e51b8152600401620006a89062002e67565b506001600160a01b0381166000908152601060205260409020545b919050565b60138181548110620010c157600080fd5b906000526020600020016000915090508054620010de9062002ef7565b80601f01602080910402602001604051908101604052809291908181526020018280546200110c9062002ef7565b80156200115d5780601f1062001131576101008083540402835291602001916200115d565b820191906000526020600020905b8154815290600101906020018083116200113f57829003601f168201915b505050505081565b6000546001600160a01b03163314620011925760405162461bcd60e51b8152600401620006a89062002e67565b6200119e6000620025b5565b565b60128181548110620011b157600080fd5b6000918252602090912001546001600160a01b0316905081565b6000546001600160a01b03163314620011f85760405162461bcd60e51b8152600401620006a89062002e67565b602455565b6000546060906001600160a01b031633146200122d5760405162461bcd60e51b8152600401620006a89062002e67565b6001600160a01b03831660009081526010602052604090208054839081106200125a576200125a62002ee1565b906000526020600020018054620012719062002ef7565b80601f01602080910402602001604051908101604052809291908181526020018280546200129f9062002ef7565b8015620012f05780601f10620012c457610100808354040283529160200191620012f0565b820191906000526020600020905b815481529060010190602001808311620012d257829003601f168201915b505050505090505b92915050565b600080546001600160a01b031633146200132c5760405162461bcd60e51b8152600401620006a89062002e67565b5060245490565b601c8181548110620011b157600080fd5b600080546001600160a01b03163314620013725760405162461bcd60e51b8152600401620006a89062002e67565b6015826007811062001388576200138862002ee1565b015492915050565b600160255460ff166001811115620013ac57620013ac62002c87565b14620013cc5760405162461bcd60e51b8152600401620006a89062002e9c565b6026543410156200142b5760405162461bcd60e51b815260206004820152602260248201527f4572726f723a20494e53554646494349454e542046554e44532050524f564944604482015261115160f21b6064820152608401620006a8565b336000908152600c602052604090205460ff16156200148d5760405162461bcd60e51b815260206004820152601f60248201527f4572726f723a20504c4159455220414c5245414459205349474e4544205550006044820152606401620006a8565b620014983362002605565b6012805460018181019092557fbb8a6a4669ba250d26cd7a459eca9d215f8307e33aebe50379bc5a3617ec34440180546001600160a01b031916339081179091556000908152600c60209081526040808320805460ff19169094179093556010905220601380546200150c9291906200287d565b50336000908152600f60205260408120805460ff191660018362000772565b600b60205281600052604060002081600681106200154857600080fd5b018054909250620010de915062002ef7565b600080546001600160a01b03163314620015885760405162461bcd60e51b8152600401620006a89062002e67565b600160255460ff166001811115620015a457620015a462002c87565b14620015c45760405162461bcd60e51b8152600401620006a89062002e9c565b6000546001600160a01b03166001600160a01b03166108fc6103e860245447620015ef919062002f92565b620015fb919062002fb4565b6040518115909202916000818181858888f1935050505015801562001624573d6000803e3d6000fd5b506000805b601254811015620016ec57600c6000601283815481106200164e576200164e62002ee1565b60009182526020808320909101546001600160a01b0316835282019290925260400190205460ff168015620016c15750600960006012838154811062001698576200169862002ee1565b60009182526020808320909101546001600160a01b0316835282019290925260400190205460ff165b15620016d75781620016d38162002f76565b9250505b80620016e38162002f76565b91505062001629565b5060008167ffffffffffffffff8111156200170b576200170b62002b9b565b60405190808252806020026020018201604052801562001735578160200160208202803683370190505b50905060008267ffffffffffffffff81111562001756576200175662002b9b565b60405190808252806020026020018201604052801562001780578160200160208202803683370190505b5090506000805b6012548110156200192957600c600060128381548110620017ac57620017ac62002ee1565b60009182526020808320909101546001600160a01b0316835282019290925260400190205460ff1680156200181f57506009600060128381548110620017f657620017f662002ee1565b60009182526020808320909101546001600160a01b0316835282019290925260400190205460ff165b156200191457601281815481106200183b576200183b62002ee1565b9060005260206000200160009054906101000a90046001600160a01b03168483815181106200186e576200186e62002ee1565b60200260200101906001600160a01b031690816001600160a01b031681525050601d6008600060128481548110620018aa57620018aa62002ee1565b60009182526020808320909101546001600160a01b0316835282019290925260400190205460078110620018e257620018e262002ee1565b0154838381518110620018f957620018f962002ee1565b602090810291909101015281620019108162002f76565b9250505b80620019208162002f76565b91505062001787565b508315620019a75782826040516200194190620028da565b6200194e92919062002fcb565b604051809103906000f0801580156200196b573d6000803e3d6000fd5b506040519095506001600160a01b038616904780156108fc02916000818181858888f19350505050158015620019a5573d6000803e3d6000fd5b505b60005b601254811015620019ff57620019ea60128281548110620019cf57620019cf62002ee1565b6000918252602090912001546001600160a01b031662002605565b80620019f68162002f76565b915050620019aa565b5062001a0e60126000620028e8565b62001a1c6015600062002908565b50506025805460ff191690555050601c80546001810182556000919091527f0e4562a10381dec21b205ed72637e6b1b523bdd0e4d4d50af5cd23dd4500a2110180546001600160a01b0319166001600160a01b03831617905590565b600a602052826000526040600020826006811062001a9557600080fd5b01816005811062001aa557600080fd5b602081049091015460ff601f9092166101000a900416925083915050565b600160255460ff16600181111562001adf5762001adf62002c87565b1462001aff5760405162461bcd60e51b8152600401620006a89062002e9c565b336000908152600c602052604090205460ff1662001b605760405162461bcd60e51b815260206004820152601b60248201527f4572726f723a20504c41594552204e4f54205349474e454420555000000000006044820152606401620006a8565b3360009081526008602052604090205460061162001bcc5760405162461bcd60e51b815260206004820152602260248201527f4572726f723a204e554d424552204f4620475545535345532045584841555354604482015261115160f21b6064820152608401620006a8565b3360009081526009602052604090205460ff161562001c455760405162461bcd60e51b815260206004820152602e60248201527f4572726f723a20504c4159455220414c5245414459204755455353454420544860448201526d114810d3d4949150d50815d3d49160921b6064820152608401620006a8565b62001c51828262002685565b62001c9f5760405162461bcd60e51b815260206004820152601960248201527f4572726f723a20494e56414c494420494e50555420574f5244000000000000006044820152606401620006a8565b3360009081526011602052604081205460ff16600181111562001cc65762001cc662002c87565b1462001d2b5760405162461bcd60e51b815260206004820152602d60248201527f4572726f723a2045585045435445442055736572477565737353746174652e4160448201526c57414954494e475f475545535360981b6064820152608401620006a8565b336000908152600f602052604081205460ff16600281111562001d525762001d5262002c87565b1462001d625762001d6262003053565b336000908152600b60209081526040808320600890925290912054839183916006811062001d945762001d9462002ee1565b62001da29391019162002919565b50336000908152601160209081526040808320805460ff191660019081179091556010909252909120541115620006bd57600154600354600480546040516305d3b1d360e41b815291820192909252600160a01b830467ffffffffffffffff166024820152640100000000820461ffff16604482015263ffffffff8083166064830152660100000000000090920490911660848201526001600160a01b0390911690635d3b1d309060a4016020604051808303816000875af115801562001e6d573d6000803e3d6000fd5b505050506040513d601f19601f8201168201806040525081019062001e93919062003069565b60068190556000908152600d6020908152604080832080546001600160a01b031916339081179091558352600f9091529020805460ff191660011790555050565b6000546001600160a01b0316331462001f015760405162461bcd60e51b8152600401620006a89062002e67565b6001600160a01b03811662001f685760405162461bcd60e51b815260206004820152602660248201527f4f776e61626c653a206e6577206f776e657220697320746865207a65726f206160448201526564647265737360d01b6064820152608401620006a8565b62001f7381620025b5565b50565b6005818154811062001f8757600080fd5b600091825260209091200154905081565b6000828152600d60205260409020546001600160a01b031662001fbf5762001fbf62003053565b60016000838152600d60209081526040808320546001600160a01b03168352600f90915290205460ff16600281111562001ffd5762001ffd62002c87565b146200200d576200200d62003053565b8060008151811062002023576200202362002ee1565b6020908102919091018101516000848152600d808452604080832080546001600160a01b039081168552600e87528285209590955580549094168352600f85528220805460ff191660021790559490529290525080546001600160a01b0319169055565b6200209162002754565b6200209b62002996565b838360005b601a8110156200213257600084620021026027848154620020c19062002ef7565b8110620020d257620020d262002ee1565b815460011615620020f25790600052602060002090602091828204019190065b9054901a600160f81b026200272b565b60ff16601a811062002118576200211862002ee1565b602002015280620021298162002f76565b915050620020a0565b506040805160a08101909152600090806002815260200160028152602001600281526020016002815260200160029052905060005b6005811015620022295784620021a08583815181106200218b576200218b62002ee1565b01602001516001600160f81b0319166200272b565b60ff16601a8110620021b657620021b662002ee1565b60200201805190620021c88262003083565b9052506002828260058110620021e257620021e262002ee1565b60200201906002811115620021fb57620021fb62002c87565b9081600281111562002211576200221162002c87565b90525080620022208162002f76565b91505062002167565b5060005b600581101562002330578281815181106200224c576200224c62002ee1565b602001015160f81c60f81b6001600160f81b03191684828151811062002276576200227662002ee1565b01602001516001600160f81b031916036200231b576000828260058110620022a257620022a262002ee1565b60200201906002811115620022bb57620022bb62002c87565b90816002811115620022d157620022d162002c87565b8152505084620022ef8583815181106200218b576200218b62002ee1565b60ff16601a811062002305576200230562002ee1565b6020020180519062002317826200309e565b9052505b80620023278162002f76565b9150506200222d565b5060005b60058110156200245757600082826005811062002355576200235562002ee1565b602002015160028111156200236e576200236e62002c87565b146200244257600085620023908584815181106200218b576200218b62002ee1565b60ff16601a8110620023a657620023a662002ee1565b6020020151131562002442576001828260058110620023c957620023c962002ee1565b60200201906002811115620023e257620023e262002c87565b90816002811115620023f857620023f862002c87565b8152505084620024168483815181106200218b576200218b62002ee1565b60ff16601a81106200242c576200242c62002ee1565b602002018051906200243e826200309e565b9052505b806200244e8162002f76565b91505062002334565b509695505050505050565b8051600090819060028111156200247d576200247d62002c87565b148015620024a4575060208201516000906002811115620024a257620024a262002c87565b145b8015620024ca575060408201516000906002811115620024c857620024c862002c87565b145b8015620024f0575060608201516000906002811115620024ee57620024ee62002c87565b145b8015620012f857506080820151600090600281111562002514576200251462002c87565b1492915050565b6000805b6005811015620025ab578281600581106200253e576200253e62002ee1565b6020020151600281111562002557576200255762002c87565b8482600581106200256c576200256c62002ee1565b6020020151600281111562002585576200258562002c87565b1462002596576000915050620012f8565b80620025a28162002f76565b9150506200251f565b5060019392505050565b600080546001600160a01b038381166001600160a01b0319831681178455604051919092169283917f8be0079c531659141344cd1fd0a4f28419497f9722a3daafe3b4186f6b6457e09190a35050565b6001600160a01b0381166000908152600c60209081526040808320805460ff1990811690915560088352818420849055600983528184208054821690556011835281842080549091169055600a90915281206200266291620029b5565b6001600160a01b038116600090815260106020526040812062001f7391620029c6565b6000600582146200269957506000620012f8565b60005b6005811015620026fb576019620026d1858584818110620026c157620026c162002ee1565b9050013560f81c60f81b6200272b565b60ff161115620026e6576000915050620012f8565b80620026f28162002f76565b9150506200269c565b506014838360405162002710929190620030be565b9081526040519081900360200190205460ff16905092915050565b600060f882901c6041111562002743575060ff919050565b620012f8604160f884901c620030ce565b6040518060a001604052806005906020820280368337509192915050565b6001830191839082156200280b5791602002820160005b83821115620027da57835183826101000a81548160ff02191690836002811115620027b857620027b862002c87565b0217905550926020019260010160208160000104928301926001030262002789565b8015620028095782816101000a81549060ff0219169055600101602081600001049283019260010302620027da565b505b5062002819929150620029e6565b5090565b8280548282559060005260206000209081019282156200286f579160200282015b828111156200286f57825180516200285e918491602090910190620029fd565b50916020019190600101906200283e565b506200281992915062002a7a565b8280548282559060005260206000209081019282156200286f5760005260206000209182015b828111156200286f578282908054620028bc9062002ef7565b620028c992919062002a9b565b5091600101919060010190620028a3565b61116080620030f583390190565b508054600082559060005260206000209081019062001f739190620029e6565b5062001f73906007810190620029e6565b828054620029279062002ef7565b90600052602060002090601f0160209004810192826200294b57600085556200280b565b82601f10620029665782800160ff198235161785556200280b565b828001600101855582156200280b579182015b828111156200280b57823582559160200191906001019062002979565b604051806103400160405280601a906020820280368337509192915050565b5062001f73906006810190620029e7565b508054600082559060005260206000209081019062001f73919062002a7a565b5b80821115620028195760008155600101620029e7565b82805462002a0b9062002ef7565b90600052602060002090601f01602090048101928262002a2f57600085556200280b565b82601f1062002a4a57805160ff19168380011785556200280b565b828001600101855582156200280b579182015b828111156200280b57825182559160200191906001019062002a5d565b808211156200281957600062002a91828262002b1f565b5060010162002a7a565b82805462002aa99062002ef7565b90600052602060002090601f01602090048101928262002acd57600085556200280b565b82601f1062002ae057805485556200280b565b828001600101855582156200280b57600052602060002091601f016020900482015b828111156200280b57825482559160010191906001019062002b02565b50805462002b2d9062002ef7565b6000825580601f1062002b3e575050565b601f01602090049060005260206000209081019062001f739190620029e6565b80356001600160a01b0381168114620010ab57600080fd5b60006020828403121562002b8957600080fd5b62002b948262002b5e565b9392505050565b634e487b7160e01b600052604160045260246000fd5b6000806040838503121562002bc557600080fd5b8235915060208084013567ffffffffffffffff8082111562002be657600080fd5b818601915086601f83011262002bfb57600080fd5b81358181111562002c105762002c1062002b9b565b8060051b604051601f19603f8301168101818110858211171562002c385762002c3862002b9b565b60405291825284820192508381018501918983111562002c5757600080fd5b938501935b8285101562002c775784358452938501939285019262002c5c565b8096505050505050509250929050565b634e487b7160e01b600052602160045260246000fd5b602081016002831062002cb45762002cb462002c87565b91905290565b6003811062001f735762001f7362002c87565b6020810162002cb48362002cba565b60a08101818360005b600581101562002d1257815162002cfc8162002cba565b8352602092830192919091019060010162002ce5565b50505092915050565b60006020828403121562002d2e57600080fd5b5035919050565b600060208083528351808285015260005b8181101562002d645785810183015185820160400152820162002d46565b8181111562002d77576000604083870101525b50601f01601f1916929092016040019392505050565b6000806040838503121562002da157600080fd5b62002dac8362002b5e565b946020939093013593505050565b60008060006060848603121562002dd057600080fd5b62002ddb8462002b5e565b95602085013595506040909401359392505050565b6000806020838503121562002e0457600080fd5b823567ffffffffffffffff8082111562002e1d57600080fd5b818501915085601f83011262002e3257600080fd5b81358181111562002e4257600080fd5b86602082850101111562002e5557600080fd5b60209290920196919550909350505050565b6020808252818101527f4f776e61626c653a2063616c6c6572206973206e6f7420746865206f776e6572604082015260600190565b60208082526025908201527f4572726f723a2045585045435445442047616d6553746174652e494e5f50524f604082015264475245535360d81b606082015260800190565b634e487b7160e01b600052603260045260246000fd5b600181811c9082168062002f0c57607f821691505b60208210810362002f2d57634e487b7160e01b600052602260045260246000fd5b50919050565b634e487b7160e01b600052601260045260246000fd5b60008262002f5b5762002f5b62002f33565b500690565b634e487b7160e01b600052601160045260246000fd5b60006001820162002f8b5762002f8b62002f60565b5060010190565b600081600019048311821515161562002faf5762002faf62002f60565b500290565b60008262002fc65762002fc662002f33565b500490565b604080825283519082018190526000906020906060840190828701845b828110156200300f5781516001600160a01b03168452928401929084019060010162002fe8565b5050508381038285015284518082528583019183019060005b81811015620030465783518352928401929184019160010162003028565b5090979650505050505050565b634e487b7160e01b600052600160045260246000fd5b6000602082840312156200307c57600080fd5b5051919050565b60006001600160ff1b01820162002f8b5762002f8b62002f60565b6000600160ff1b8201620030b657620030b662002f60565b506000190190565b8183823760009101908152919050565b600060ff821660ff841680821015620030eb57620030eb62002f60565b9003939250505056fe6080604052604051620011603803806200116083398101604081905262000026916200042e565b8051825114620000985760405162461bcd60e51b815260206004820152603260248201527f5061796d656e7453706c69747465723a2070617965657320616e6420736861726044820152710cae640d8cadccee8d040dad2e6dac2e8c6d60731b60648201526084015b60405180910390fd5b6000825111620000eb5760405162461bcd60e51b815260206004820152601a60248201527f5061796d656e7453706c69747465723a206e6f2070617965657300000000000060448201526064016200008f565b60005b82518110156200015757620001428382815181106200011157620001116200050c565b60200260200101518383815181106200012e576200012e6200050c565b60200260200101516200016060201b60201c565b806200014e8162000538565b915050620000ee565b5050506200056f565b6001600160a01b038216620001cd5760405162461bcd60e51b815260206004820152602c60248201527f5061796d656e7453706c69747465723a206163636f756e74206973207468652060448201526b7a65726f206164647265737360a01b60648201526084016200008f565b600081116200021f5760405162461bcd60e51b815260206004820152601d60248201527f5061796d656e7453706c69747465723a2073686172657320617265203000000060448201526064016200008f565b6001600160a01b038216600090815260026020526040902054156200029b5760405162461bcd60e51b815260206004820152602b60248201527f5061796d656e7453706c69747465723a206163636f756e7420616c726561647960448201526a206861732073686172657360a81b60648201526084016200008f565b60048054600181019091557f8a35acfbc15ff81a39ae7d344fd709f28e8600b4aa8c65c6b64bfe7fe36bd19b0180546001600160a01b0319166001600160a01b0384169081179091556000908152600260205260408120829055546200030390829062000554565b600055604080516001600160a01b0384168152602081018390527f40c340f65e17194d14ddddb073d3c9f888e3cb52b5aae0c6c7706b4fbc905fac910160405180910390a15050565b634e487b7160e01b600052604160045260246000fd5b604051601f8201601f191681016001600160401b03811182821017156200038d576200038d6200034c565b604052919050565b60006001600160401b03821115620003b157620003b16200034c565b5060051b60200190565b600082601f830112620003cd57600080fd5b81516020620003e6620003e08362000395565b62000362565b82815260059290921b840181019181810190868411156200040657600080fd5b8286015b848110156200042357805183529183019183016200040a565b509695505050505050565b600080604083850312156200044257600080fd5b82516001600160401b03808211156200045a57600080fd5b818501915085601f8301126200046f57600080fd5b8151602062000482620003e08362000395565b82815260059290921b84018101918181019089841115620004a257600080fd5b948201945b83861015620004d95785516001600160a01b0381168114620004c95760008081fd5b82529482019490820190620004a7565b91880151919650909350505080821115620004f357600080fd5b506200050285828601620003bb565b9150509250929050565b634e487b7160e01b600052603260045260246000fd5b634e487b7160e01b600052601160045260246000fd5b6000600182016200054d576200054d62000522565b5060010190565b600082198211156200056a576200056a62000522565b500190565b610be1806200057f6000396000f3fe60806040526004361061008a5760003560e01c80638b83209b116100595780638b83209b146101845780639852595c146101bc578063ce7c2ac2146101f2578063d79779b214610228578063e33b7de31461025e57600080fd5b806319165587146100d85780633a98ef39146100fa578063406072a91461011e57806348b750441461016457600080fd5b366100d3577f6ef95f06320e7a25a04a175ca677b7052bdd97131872c2192525a629f51be77033604080516001600160a01b0390921682523460208301520160405180910390a1005b600080fd5b3480156100e457600080fd5b506100f86100f3366004610955565b610273565b005b34801561010657600080fd5b506000545b6040519081526020015b60405180910390f35b34801561012a57600080fd5b5061010b610139366004610972565b6001600160a01b03918216600090815260066020908152604080832093909416825291909152205490565b34801561017057600080fd5b506100f861017f366004610972565b6103ad565b34801561019057600080fd5b506101a461019f3660046109ab565b610589565b6040516001600160a01b039091168152602001610115565b3480156101c857600080fd5b5061010b6101d7366004610955565b6001600160a01b031660009081526003602052604090205490565b3480156101fe57600080fd5b5061010b61020d366004610955565b6001600160a01b031660009081526002602052604090205490565b34801561023457600080fd5b5061010b610243366004610955565b6001600160a01b031660009081526005602052604090205490565b34801561026a57600080fd5b5060015461010b565b6001600160a01b0381166000908152600260205260409020546102b15760405162461bcd60e51b81526004016102a8906109c4565b60405180910390fd5b60006102bc60015490565b6102c69047610a20565b905060006102f383836102ee866001600160a01b031660009081526003602052604090205490565b6105b9565b9050806000036103155760405162461bcd60e51b81526004016102a890610a38565b6001600160a01b0383166000908152600360205260408120805483929061033d908490610a20565b9250508190555080600160008282546103569190610a20565b90915550610366905083826105fe565b604080516001600160a01b0385168152602081018390527fdf20fd1e76bc69d672e4814fafb2c449bba3a5369d8359adf9e05e6fde87b056910160405180910390a1505050565b6001600160a01b0381166000908152600260205260409020546103e25760405162461bcd60e51b81526004016102a8906109c4565b6001600160a01b0382166000908152600560205260408120546040516370a0823160e01b81523060048201526001600160a01b038516906370a0823190602401602060405180830381865afa15801561043f573d6000803e3d6000fd5b505050506040513d601f19601f820116820180604052508101906104639190610a83565b61046d9190610a20565b905060006104a683836102ee87876001600160a01b03918216600090815260066020908152604080832093909416825291909152205490565b9050806000036104c85760405162461bcd60e51b81526004016102a890610a38565b6001600160a01b038085166000908152600660209081526040808320938716835292905290812080548392906104ff908490610a20565b90915550506001600160a01b0384166000908152600560205260408120805483929061052c908490610a20565b9091555061053d905084848361071c565b604080516001600160a01b038581168252602082018490528616917f3be5b7a71e84ed12875d241991c70855ac5817d847039e17a9d895c1ceb0f18a910160405180910390a250505050565b60006004828154811061059e5761059e610a9c565b6000918252602090912001546001600160a01b031692915050565b600080546001600160a01b0385168252600260205260408220548391906105e09086610ab2565b6105ea9190610ad1565b6105f49190610af3565b90505b9392505050565b8047101561064e5760405162461bcd60e51b815260206004820152601d60248201527f416464726573733a20696e73756666696369656e742062616c616e636500000060448201526064016102a8565b6000826001600160a01b03168260405160006040518083038185875af1925050503d806000811461069b576040519150601f19603f3d011682016040523d82523d6000602084013e6106a0565b606091505b50509050806107175760405162461bcd60e51b815260206004820152603a60248201527f416464726573733a20756e61626c6520746f2073656e642076616c75652c207260448201527f6563697069656e74206d6179206861766520726576657274656400000000000060648201526084016102a8565b505050565b604080516001600160a01b03848116602483015260448083018590528351808403909101815260649092018352602080830180516001600160e01b031663a9059cbb60e01b17905283518085019094528084527f5361666545524332303a206c6f772d6c6576656c2063616c6c206661696c656490840152610717928692916000916107ac918516908490610829565b80519091501561071757808060200190518101906107ca9190610b0a565b6107175760405162461bcd60e51b815260206004820152602a60248201527f5361666545524332303a204552433230206f7065726174696f6e20646964206e6044820152691bdd081cdd58d8d9595960b21b60648201526084016102a8565b60606105f48484600085856001600160a01b0385163b61088b5760405162461bcd60e51b815260206004820152601d60248201527f416464726573733a2063616c6c20746f206e6f6e2d636f6e747261637400000060448201526064016102a8565b600080866001600160a01b031685876040516108a79190610b5c565b60006040518083038185875af1925050503d80600081146108e4576040519150601f19603f3d011682016040523d82523d6000602084013e6108e9565b606091505b50915091506108f9828286610904565b979650505050505050565b606083156109135750816105f7565b8251156109235782518084602001fd5b8160405162461bcd60e51b81526004016102a89190610b78565b6001600160a01b038116811461095257600080fd5b50565b60006020828403121561096757600080fd5b81356105f78161093d565b6000806040838503121561098557600080fd5b82356109908161093d565b915060208301356109a08161093d565b809150509250929050565b6000602082840312156109bd57600080fd5b5035919050565b60208082526026908201527f5061796d656e7453706c69747465723a206163636f756e7420686173206e6f2060408201526573686172657360d01b606082015260800190565b634e487b7160e01b600052601160045260246000fd5b60008219821115610a3357610a33610a0a565b500190565b6020808252602b908201527f5061796d656e7453706c69747465723a206163636f756e74206973206e6f742060408201526a191d59481c185e5b595b9d60aa1b606082015260800190565b600060208284031215610a9557600080fd5b5051919050565b634e487b7160e01b600052603260045260246000fd5b6000816000190483118215151615610acc57610acc610a0a565b500290565b600082610aee57634e487b7160e01b600052601260045260246000fd5b500490565b600082821015610b0557610b05610a0a565b500390565b600060208284031215610b1c57600080fd5b815180151581146105f757600080fd5b60005b83811015610b47578181015183820152602001610b2f565b83811115610b56576000848401525b50505050565b60008251610b6e818460208701610b2c565b9190910192915050565b6020815260008251806020840152610b97816040850160208701610b2c565b601f01601f1916919091016040019291505056fea2646970667358221220d72eb80fffcbc5cc63078d758e416506936eec618c18bda35f636e842cfdacf064736f6c634300080d0033a2646970667358221220703cc5575c66969184761654497a57788ededc234533b0e25db11bfd07daa75d64736f6c634300080d0033",
  "bytecodeSha1": "f5df69ad2233fe2dc2af7b619fc139bb18401215",
  "compiler": {
    "evm_version": "istanbul",
    "optimizer": {
      "enabled": true,
      "runs": 200
    },
    "version": "0.8.13+commit.abaa5c0e"
  },
  "contractName": "WordleVRF",
  "language": "Solidity",
  "natspec": {
    "details": "Play the game wordle",
    "kind": "dev",
    "methods": {
      "owner()": {
        "details": "Returns the address of the current owner."
      },
      "renounceOwnership()": {
        "details": "Leaves the contract without owner. It will not be possible to call `onlyOwner` functions anymore. Can only be called by the current owner. NOTE: Renouncing ownership will leave the contract without an owner, thereby removing any functionality that is only available to the owner."
      },
      "transferOwnership(address)": {
        "details": "Transfers ownership of the contract to a new account (`newOwner`). Can only be called by the current owner."
      }
    },
    "title": "Wordle",
    "version": 1
  },
  "opcodes": "PUSH1 0x80 PUSH1 0x40 MSTORE PUSH1 0x4 CALLDATASIZE LT PUSH3 0x1E7 JUMPI PUSH1 0x0 CALLDATALOAD PUSH1 0xE0 SHR DUP1 PUSH4 0x89C8FA7B GT PUSH3 0x10B JUMPI DUP1 PUSH4 0xC2E52206 GT PUSH3 0xA1 JUMPI DUP1 PUSH4 0xE89E106A GT PUSH3 0x6C JUMPI DUP1 PUSH4 0xE89E106A EQ PUSH3 0x5AA JUMPI DUP1 PUSH4 0xEC7C472C EQ PUSH3 0x5C2 JUMPI DUP1 PUSH4 0xF2FDE38B EQ PUSH3 0x5E7 JUMPI DUP1 PUSH4 0xF6EAFFC8 EQ PUSH3 0x60C JUMPI PUSH1 0x0 DUP1 REVERT JUMPDEST DUP1 PUSH4 0xC2E52206 EQ PUSH3 0x531 JUMPI DUP1 PUSH4 0xC678DA52 EQ PUSH3 0x548 JUMPI DUP1 PUSH4 0xC9662C50 EQ PUSH3 0x56D JUMPI DUP1 PUSH4 0xE1F0A81A EQ PUSH3 0x585 JUMPI PUSH1 0x0 DUP1 REVERT JUMPDEST DUP1 PUSH4 0x9602E9D8 GT PUSH3 0xE2 JUMPI DUP1 PUSH4 0x9602E9D8 EQ PUSH3 0x4A9 JUMPI DUP1 PUSH4 0x98AFDFE3 EQ PUSH3 0x4CE JUMPI DUP1 PUSH4 0xACC3F825 EQ PUSH3 0x502 JUMPI DUP1 PUSH4 0xBF96AE63 EQ PUSH3 0x527 JUMPI PUSH1 0x0 DUP1 REVERT JUMPDEST DUP1 PUSH4 0x89C8FA7B EQ PUSH3 0x44C JUMPI DUP1 PUSH4 0x8DA5CB5B EQ PUSH3 0x471 JUMPI DUP1 PUSH4 0x8DDF4137 EQ PUSH3 0x491 JUMPI PUSH1 0x0 DUP1 REVERT JUMPDEST DUP1 PUSH4 0x5E36BDC6 GT PUSH3 0x181 JUMPI DUP1 PUSH4 0x64F76470 GT PUSH3 0x158 JUMPI DUP1 PUSH4 0x64F76470 EQ PUSH3 0x39D JUMPI DUP1 PUSH4 0x715018A6 EQ PUSH3 0x3D1 JUMPI DUP1 PUSH4 0x7319B43E EQ PUSH3 0x3E9 JUMPI DUP1 PUSH4 0x757DE573 EQ PUSH3 0x427 JUMPI PUSH1 0x0 DUP1 REVERT JUMPDEST DUP1 PUSH4 0x5E36BDC6 EQ PUSH3 0x30C JUMPI DUP1 PUSH4 0x6072D94B EQ PUSH3 0x351 JUMPI DUP1 PUSH4 0x61252D54 EQ PUSH3 0x378 JUMPI PUSH1 0x0 DUP1 REVERT JUMPDEST DUP1 PUSH4 0x23DDFF8D GT PUSH3 0x1C2 JUMPI DUP1 PUSH4 0x23DDFF8D EQ PUSH3 0x26F JUMPI DUP1 PUSH4 0x2529FD7A EQ PUSH3 0x29A JUMPI DUP1 PUSH4 0x2933924D EQ PUSH3 0x2B1 JUMPI DUP1 PUSH4 0x32EB2564 EQ PUSH3 0x2F4 JUMPI PUSH1 0x0 DUP1 REVERT JUMPDEST DUP1 PUSH4 0x5F16E33 EQ PUSH3 0x1EC JUMPI DUP1 PUSH4 0x1E7E93FE EQ PUSH3 0x217 JUMPI DUP1 PUSH4 0x1FE543E3 EQ PUSH3 0x248 JUMPI JUMPDEST PUSH1 0x0 DUP1 REVERT JUMPDEST CALLVALUE DUP1 ISZERO PUSH3 0x1F9 JUMPI PUSH1 0x0 DUP1 REVERT JUMPDEST POP PUSH3 0x204 PUSH1 0x26 SLOAD DUP2 JUMP JUMPDEST PUSH1 0x40 MLOAD SWAP1 DUP2 MSTORE PUSH1 0x20 ADD JUMPDEST PUSH1 0x40 MLOAD DUP1 SWAP2 SUB SWAP1 RETURN JUMPDEST CALLVALUE DUP1 ISZERO PUSH3 0x224 JUMPI PUSH1 0x0 DUP1 REVERT JUMPDEST POP PUSH3 0x204 PUSH3 0x236 CALLDATASIZE PUSH1 0x4 PUSH3 0x2B76 JUMP JUMPDEST PUSH1 0x8 PUSH1 0x20 MSTORE PUSH1 0x0 SWAP1 DUP2 MSTORE PUSH1 0x40 SWAP1 KECCAK256 SLOAD DUP2 JUMP JUMPDEST CALLVALUE DUP1 ISZERO PUSH3 0x255 JUMPI PUSH1 0x0 DUP1 REVERT JUMPDEST POP PUSH3 0x26D PUSH3 0x267 CALLDATASIZE PUSH1 0x4 PUSH3 0x2BB1 JUMP JUMPDEST PUSH3 0x631 JUMP JUMPDEST STOP JUMPDEST CALLVALUE DUP1 ISZERO PUSH3 0x27C JUMPI PUSH1 0x0 DUP1 REVERT JUMPDEST POP PUSH1 0x25 SLOAD PUSH3 0x28B SWAP1 PUSH1 0xFF AND DUP2 JUMP JUMPDEST PUSH1 0x40 MLOAD PUSH3 0x20E SWAP2 SWAP1 PUSH3 0x2C9D JUMP JUMPDEST CALLVALUE DUP1 ISZERO PUSH3 0x2A7 JUMPI PUSH1 0x0 DUP1 REVERT JUMPDEST POP PUSH1 0x1C SLOAD PUSH3 0x204 JUMP JUMPDEST CALLVALUE DUP1 ISZERO PUSH3 0x2BE JUMPI PUSH1 0x0 DUP1 REVERT JUMPDEST POP PUSH3 0x2E5 PUSH3 0x2D0 CALLDATASIZE PUSH1 0x4 PUSH3 0x2B76 JUMP JUMPDEST PUSH1 0xF PUSH1 0x20 MSTORE PUSH1 0x0 SWAP1 DUP2 MSTORE PUSH1 0x40 SWAP1 KECCAK256 SLOAD PUSH1 0xFF AND DUP2 JUMP JUMPDEST PUSH1 0x40 MLOAD PUSH3 0x20E SWAP2 SWAP1 PUSH3 0x2CCD JUMP JUMPDEST CALLVALUE DUP1 ISZERO PUSH3 0x301 JUMPI PUSH1 0x0 DUP1 REVERT JUMPDEST POP PUSH3 0x26D PUSH3 0x6C1 JUMP JUMPDEST CALLVALUE DUP1 ISZERO PUSH3 0x319 JUMPI PUSH1 0x0 DUP1 REVERT JUMPDEST POP PUSH3 0x340 PUSH3 0x32B CALLDATASIZE PUSH1 0x4 PUSH3 0x2B76 JUMP JUMPDEST PUSH1 0x9 PUSH1 0x20 MSTORE PUSH1 0x0 SWAP1 DUP2 MSTORE PUSH1 0x40 SWAP1 KECCAK256 SLOAD PUSH1 0xFF AND DUP2 JUMP JUMPDEST PUSH1 0x40 MLOAD SWAP1 ISZERO ISZERO DUP2 MSTORE PUSH1 0x20 ADD PUSH3 0x20E JUMP JUMPDEST CALLVALUE DUP1 ISZERO PUSH3 0x35E JUMPI PUSH1 0x0 DUP1 REVERT JUMPDEST POP PUSH3 0x369 PUSH3 0x779 JUMP JUMPDEST PUSH1 0x40 MLOAD PUSH3 0x20E SWAP2 SWAP1 PUSH3 0x2CDC JUMP JUMPDEST CALLVALUE DUP1 ISZERO PUSH3 0x385 JUMPI PUSH1 0x0 DUP1 REVERT JUMPDEST POP PUSH3 0x204 PUSH3 0x397 CALLDATASIZE PUSH1 0x4 PUSH3 0x2B76 JUMP JUMPDEST PUSH3 0x1062 JUMP JUMPDEST CALLVALUE DUP1 ISZERO PUSH3 0x3AA JUMPI PUSH1 0x0 DUP1 REVERT JUMPDEST POP PUSH3 0x3C2 PUSH3 0x3BC CALLDATASIZE PUSH1 0x4 PUSH3 0x2D1B JUMP JUMPDEST PUSH3 0x10B0 JUMP JUMPDEST PUSH1 0x40 MLOAD PUSH3 0x20E SWAP2 SWAP1 PUSH3 0x2D35 JUMP JUMPDEST CALLVALUE DUP1 ISZERO PUSH3 0x3DE JUMPI PUSH1 0x0 DUP1 REVERT JUMPDEST POP PUSH3 0x26D PUSH3 0x1165 JUMP JUMPDEST CALLVALUE DUP1 ISZERO PUSH3 0x3F6 JUMPI PUSH1 0x0 DUP1 REVERT JUMPDEST POP PUSH3 0x40E PUSH3 0x408 CALLDATASIZE PUSH1 0x4 PUSH3 0x2D1B JUMP JUMPDEST PUSH3 0x11A0 JUMP JUMPDEST PUSH1 0x40 MLOAD PUSH1 0x1 PUSH1 0x1 PUSH1 0xA0 SHL SUB SWAP1 SWAP2 AND DUP2 MSTORE PUSH1 0x20 ADD PUSH3 0x20E JUMP JUMPDEST CALLVALUE DUP1 ISZERO PUSH3 0x434 JUMPI PUSH1 0x0 DUP1 REVERT JUMPDEST POP PUSH3 0x26D PUSH3 0x446 CALLDATASIZE PUSH1 0x4 PUSH3 0x2D1B JUMP JUMPDEST PUSH3 0x11CB JUMP JUMPDEST CALLVALUE DUP1 ISZERO PUSH3 0x459 JUMPI PUSH1 0x0 DUP1 REVERT JUMPDEST POP PUSH3 0x3C2 PUSH3 0x46B CALLDATASIZE PUSH1 0x4 PUSH3 0x2D8D JUMP JUMPDEST PUSH3 0x11FD JUMP JUMPDEST CALLVALUE DUP1 ISZERO PUSH3 0x47E JUMPI PUSH1 0x0 DUP1 REVERT JUMPDEST POP PUSH1 0x0 SLOAD PUSH1 0x1 PUSH1 0x1 PUSH1 0xA0 SHL SUB AND PUSH3 0x40E JUMP JUMPDEST CALLVALUE DUP1 ISZERO PUSH3 0x49E JUMPI PUSH1 0x0 DUP1 REVERT JUMPDEST POP PUSH3 0x204 PUSH3 0x12FE JUMP JUMPDEST CALLVALUE DUP1 ISZERO PUSH3 0x4B6 JUMPI PUSH1 0x0 DUP1 REVERT JUMPDEST POP PUSH3 0x40E PUSH3 0x4C8 CALLDATASIZE PUSH1 0x4 PUSH3 0x2D1B JUMP JUMPDEST PUSH3 0x1333 JUMP JUMPDEST CALLVALUE DUP1 ISZERO PUSH3 0x4DB JUMPI PUSH1 0x0 DUP1 REVERT JUMPDEST POP PUSH3 0x340 PUSH3 0x4ED CALLDATASIZE PUSH1 0x4 PUSH3 0x2B76 JUMP JUMPDEST PUSH1 0xC PUSH1 0x20 MSTORE PUSH1 0x0 SWAP1 DUP2 MSTORE PUSH1 0x40 SWAP1 KECCAK256 SLOAD PUSH1 0xFF AND DUP2 JUMP JUMPDEST CALLVALUE DUP1 ISZERO PUSH3 0x50F JUMPI PUSH1 0x0 DUP1 REVERT JUMPDEST POP PUSH3 0x204 PUSH3 0x521 CALLDATASIZE PUSH1 0x4 PUSH3 0x2D1B JUMP JUMPDEST PUSH3 0x1344 JUMP JUMPDEST PUSH3 0x26D PUSH3 0x1390 JUMP JUMPDEST CALLVALUE DUP1 ISZERO PUSH3 0x53E JUMPI PUSH1 0x0 DUP1 REVERT JUMPDEST POP PUSH1 0x12 SLOAD PUSH3 0x204 JUMP JUMPDEST CALLVALUE DUP1 ISZERO PUSH3 0x555 JUMPI PUSH1 0x0 DUP1 REVERT JUMPDEST POP PUSH3 0x3C2 PUSH3 0x567 CALLDATASIZE PUSH1 0x4 PUSH3 0x2D8D JUMP JUMPDEST PUSH3 0x152B JUMP JUMPDEST CALLVALUE DUP1 ISZERO PUSH3 0x57A JUMPI PUSH1 0x0 DUP1 REVERT JUMPDEST POP PUSH3 0x40E PUSH3 0x155A JUMP JUMPDEST CALLVALUE DUP1 ISZERO PUSH3 0x592 JUMPI PUSH1 0x0 DUP1 REVERT JUMPDEST POP PUSH3 0x2E5 PUSH3 0x5A4 CALLDATASIZE PUSH1 0x4 PUSH3 0x2DBA JUMP JUMPDEST PUSH3 0x1A78 JUMP JUMPDEST CALLVALUE DUP1 ISZERO PUSH3 0x5B7 JUMPI PUSH1 0x0 DUP1 REVERT JUMPDEST POP PUSH3 0x204 PUSH1 0x6 SLOAD DUP2 JUMP JUMPDEST CALLVALUE DUP1 ISZERO PUSH3 0x5CF JUMPI PUSH1 0x0 DUP1 REVERT JUMPDEST POP PUSH3 0x26D PUSH3 0x5E1 CALLDATASIZE PUSH1 0x4 PUSH3 0x2DF0 JUMP JUMPDEST PUSH3 0x1AC3 JUMP JUMPDEST CALLVALUE DUP1 ISZERO PUSH3 0x5F4 JUMPI PUSH1 0x0 DUP1 REVERT JUMPDEST POP PUSH3 0x26D PUSH3 0x606 CALLDATASIZE PUSH1 0x4 PUSH3 0x2B76 JUMP JUMPDEST PUSH3 0x1ED4 JUMP JUMPDEST CALLVALUE DUP1 ISZERO PUSH3 0x619 JUMPI PUSH1 0x0 DUP1 REVERT JUMPDEST POP PUSH3 0x204 PUSH3 0x62B CALLDATASIZE PUSH1 0x4 PUSH3 0x2D1B JUMP JUMPDEST PUSH3 0x1F76 JUMP JUMPDEST CALLER PUSH1 0x1 PUSH1 0x1 PUSH1 0xA0 SHL SUB PUSH32 0x0 AND EQ PUSH3 0x6B1 JUMPI PUSH1 0x40 MLOAD PUSH4 0x73E64FD PUSH1 0xE2 SHL DUP2 MSTORE CALLER PUSH1 0x4 DUP3 ADD MSTORE PUSH1 0x1 PUSH1 0x1 PUSH1 0xA0 SHL SUB PUSH32 0x0 AND PUSH1 0x24 DUP3 ADD MSTORE PUSH1 0x44 ADD JUMPDEST PUSH1 0x40 MLOAD DUP1 SWAP2 SUB SWAP1 REVERT JUMPDEST PUSH3 0x6BD DUP3 DUP3 PUSH3 0x1F98 JUMP JUMPDEST POP POP JUMP JUMPDEST PUSH1 0x0 SLOAD PUSH1 0x1 PUSH1 0x1 PUSH1 0xA0 SHL SUB AND CALLER EQ PUSH3 0x6EE JUMPI PUSH1 0x40 MLOAD PUSH3 0x461BCD PUSH1 0xE5 SHL DUP2 MSTORE PUSH1 0x4 ADD PUSH3 0x6A8 SWAP1 PUSH3 0x2E67 JUMP JUMPDEST PUSH1 0x0 PUSH1 0x25 SLOAD PUSH1 0xFF AND PUSH1 0x1 DUP2 GT ISZERO PUSH3 0x70A JUMPI PUSH3 0x70A PUSH3 0x2C87 JUMP JUMPDEST EQ PUSH3 0x763 JUMPI PUSH1 0x40 MLOAD PUSH3 0x461BCD PUSH1 0xE5 SHL DUP2 MSTORE PUSH1 0x20 PUSH1 0x4 DUP3 ADD MSTORE PUSH1 0x21 PUSH1 0x24 DUP3 ADD MSTORE PUSH32 0x4572726F723A2045585045435445442047616D6553746174652E50454E44494E PUSH1 0x44 DUP3 ADD MSTORE PUSH1 0x47 PUSH1 0xF8 SHL PUSH1 0x64 DUP3 ADD MSTORE PUSH1 0x84 ADD PUSH3 0x6A8 JUMP JUMPDEST PUSH1 0x25 DUP1 SLOAD PUSH1 0x1 SWAP2 SWAP1 PUSH1 0xFF NOT AND DUP3 DUP1 JUMPDEST MUL OR SWAP1 SSTORE POP JUMP JUMPDEST PUSH3 0x783 PUSH3 0x2754 JUMP JUMPDEST PUSH1 0x1 PUSH1 0x25 SLOAD PUSH1 0xFF AND PUSH1 0x1 DUP2 GT ISZERO PUSH3 0x79F JUMPI PUSH3 0x79F PUSH3 0x2C87 JUMP JUMPDEST EQ PUSH3 0x7BF JUMPI PUSH1 0x40 MLOAD PUSH3 0x461BCD PUSH1 0xE5 SHL DUP2 MSTORE PUSH1 0x4 ADD PUSH3 0x6A8 SWAP1 PUSH3 0x2E9C JUMP JUMPDEST CALLER PUSH1 0x0 SWAP1 DUP2 MSTORE PUSH1 0xC PUSH1 0x20 MSTORE PUSH1 0x40 SWAP1 KECCAK256 SLOAD PUSH1 0xFF AND PUSH3 0x820 JUMPI PUSH1 0x40 MLOAD PUSH3 0x461BCD PUSH1 0xE5 SHL DUP2 MSTORE PUSH1 0x20 PUSH1 0x4 DUP3 ADD MSTORE PUSH1 0x1B PUSH1 0x24 DUP3 ADD MSTORE PUSH32 0x4572726F723A20504C41594552204E4F54205349474E45442055500000000000 PUSH1 0x44 DUP3 ADD MSTORE PUSH1 0x64 ADD PUSH3 0x6A8 JUMP JUMPDEST PUSH1 0x1 CALLER PUSH1 0x0 SWAP1 DUP2 MSTORE PUSH1 0x11 PUSH1 0x20 MSTORE PUSH1 0x40 SWAP1 KECCAK256 SLOAD PUSH1 0xFF AND PUSH1 0x1 DUP2 GT ISZERO PUSH3 0x849 JUMPI PUSH3 0x849 PUSH3 0x2C87 JUMP JUMPDEST EQ PUSH3 0x8B0 JUMPI PUSH1 0x40 MLOAD PUSH3 0x461BCD PUSH1 0xE5 SHL DUP2 MSTORE PUSH1 0x20 PUSH1 0x4 DUP3 ADD MSTORE PUSH1 0x2F PUSH1 0x24 DUP3 ADD MSTORE PUSH32 0x4572726F723A2045585045435445442055736572477565737353746174652E50 PUSH1 0x44 DUP3 ADD MSTORE PUSH15 0x524F43455353494E475F4755455353 PUSH1 0x88 SHL PUSH1 0x64 DUP3 ADD MSTORE PUSH1 0x84 ADD PUSH3 0x6A8 JUMP JUMPDEST CALLER PUSH1 0x0 SWAP1 DUP2 MSTORE PUSH1 0x10 PUSH1 0x20 MSTORE PUSH1 0x40 SWAP1 KECCAK256 SLOAD PUSH1 0x1 EQ DUP1 PUSH3 0x8F5 JUMPI POP PUSH1 0x2 CALLER PUSH1 0x0 SWAP1 DUP2 MSTORE PUSH1 0xF PUSH1 0x20 MSTORE PUSH1 0x40 SWAP1 KECCAK256 SLOAD PUSH1 0xFF AND PUSH1 0x2 DUP2 GT ISZERO PUSH3 0x8F3 JUMPI PUSH3 0x8F3 PUSH3 0x2C87 JUMP JUMPDEST EQ JUMPDEST PUSH3 0x951 JUMPI PUSH1 0x40 MLOAD PUSH3 0x461BCD PUSH1 0xE5 SHL DUP2 MSTORE PUSH1 0x20 PUSH1 0x4 DUP3 ADD MSTORE PUSH1 0x25 PUSH1 0x24 DUP3 ADD MSTORE PUSH32 0x4572726F723A204E6F74207265636569766564205652462052616E646F6D204E PUSH1 0x44 DUP3 ADD MSTORE PUSH5 0x3AB6B132B9 PUSH1 0xD9 SHL PUSH1 0x64 DUP3 ADD MSTORE PUSH1 0x84 ADD PUSH3 0x6A8 JUMP JUMPDEST CALLER PUSH1 0x0 SWAP1 DUP2 MSTORE PUSH1 0x11 PUSH1 0x20 SWAP1 DUP2 MSTORE PUSH1 0x40 DUP1 DUP4 KECCAK256 DUP1 SLOAD PUSH1 0xFF NOT AND SWAP1 SSTORE PUSH1 0xF SWAP1 SWAP2 MSTORE SWAP1 KECCAK256 SLOAD PUSH1 0x2 SWAP1 PUSH1 0xFF AND DUP2 DUP2 GT ISZERO PUSH3 0x98C JUMPI PUSH3 0x98C PUSH3 0x2C87 JUMP JUMPDEST SUB PUSH3 0x9AA JUMPI CALLER PUSH1 0x0 SWAP1 DUP2 MSTORE PUSH1 0xF PUSH1 0x20 MSTORE PUSH1 0x40 SWAP1 KECCAK256 DUP1 SLOAD PUSH1 0xFF NOT AND SWAP1 SSTORE JUMPDEST PUSH3 0x9B4 PUSH3 0x2754 JUMP JUMPDEST CALLER PUSH1 0x0 SWAP1 DUP2 MSTORE PUSH1 0xB PUSH1 0x20 SWAP1 DUP2 MSTORE PUSH1 0x40 DUP1 DUP4 KECCAK256 PUSH1 0x8 SWAP1 SWAP3 MSTORE DUP3 KECCAK256 SLOAD PUSH1 0x6 DUP2 LT PUSH3 0x9E1 JUMPI PUSH3 0x9E1 PUSH3 0x2EE1 JUMP JUMPDEST ADD DUP1 SLOAD PUSH3 0x9EF SWAP1 PUSH3 0x2EF7 JUMP JUMPDEST DUP1 PUSH1 0x1F ADD PUSH1 0x20 DUP1 SWAP2 DIV MUL PUSH1 0x20 ADD PUSH1 0x40 MLOAD SWAP1 DUP2 ADD PUSH1 0x40 MSTORE DUP1 SWAP3 SWAP2 SWAP1 DUP2 DUP2 MSTORE PUSH1 0x20 ADD DUP3 DUP1 SLOAD PUSH3 0xA1D SWAP1 PUSH3 0x2EF7 JUMP JUMPDEST DUP1 ISZERO PUSH3 0xA6E JUMPI DUP1 PUSH1 0x1F LT PUSH3 0xA42 JUMPI PUSH2 0x100 DUP1 DUP4 SLOAD DIV MUL DUP4 MSTORE SWAP2 PUSH1 0x20 ADD SWAP2 PUSH3 0xA6E JUMP JUMPDEST DUP3 ADD SWAP2 SWAP1 PUSH1 0x0 MSTORE PUSH1 0x20 PUSH1 0x0 KECCAK256 SWAP1 JUMPDEST DUP2 SLOAD DUP2 MSTORE SWAP1 PUSH1 0x1 ADD SWAP1 PUSH1 0x20 ADD DUP1 DUP4 GT PUSH3 0xA50 JUMPI DUP3 SWAP1 SUB PUSH1 0x1F AND DUP3 ADD SWAP2 JUMPDEST POP POP CALLER PUSH1 0x0 SWAP1 DUP2 MSTORE PUSH1 0x10 PUSH1 0x20 MSTORE PUSH1 0x40 SWAP1 KECCAK256 SLOAD SWAP4 SWAP5 POP PUSH1 0x60 SWAP4 PUSH1 0x1 SUB SWAP3 POP PUSH3 0xB59 SWAP2 POP POP JUMPI CALLER PUSH1 0x0 SWAP1 DUP2 MSTORE PUSH1 0x10 PUSH1 0x20 MSTORE PUSH1 0x40 DUP2 KECCAK256 DUP1 SLOAD SWAP1 SWAP2 SWAP1 PUSH3 0xAB6 JUMPI PUSH3 0xAB6 PUSH3 0x2EE1 JUMP JUMPDEST SWAP1 PUSH1 0x0 MSTORE PUSH1 0x20 PUSH1 0x0 KECCAK256 ADD DUP1 SLOAD PUSH3 0xACD SWAP1 PUSH3 0x2EF7 JUMP JUMPDEST DUP1 PUSH1 0x1F ADD PUSH1 0x20 DUP1 SWAP2 DIV MUL PUSH1 0x20 ADD PUSH1 0x40 MLOAD SWAP1 DUP2 ADD PUSH1 0x40 MSTORE DUP1 SWAP3 SWAP2 SWAP1 DUP2 DUP2 MSTORE PUSH1 0x20 ADD DUP3 DUP1 SLOAD PUSH3 0xAFB SWAP1 PUSH3 0x2EF7 JUMP JUMPDEST DUP1 ISZERO PUSH3 0xB4C JUMPI DUP1 PUSH1 0x1F LT PUSH3 0xB20 JUMPI PUSH2 0x100 DUP1 DUP4 SLOAD DIV MUL DUP4 MSTORE SWAP2 PUSH1 0x20 ADD SWAP2 PUSH3 0xB4C JUMP JUMPDEST DUP3 ADD SWAP2 SWAP1 PUSH1 0x0 MSTORE PUSH1 0x20 PUSH1 0x0 KECCAK256 SWAP1 JUMPDEST DUP2 SLOAD DUP2 MSTORE SWAP1 PUSH1 0x1 ADD SWAP1 PUSH1 0x20 ADD DUP1 DUP4 GT PUSH3 0xB2E JUMPI DUP3 SWAP1 SUB PUSH1 0x1F AND DUP3 ADD SWAP2 JUMPDEST POP POP POP POP POP SWAP1 POP PUSH3 0xC32 JUMP JUMPDEST CALLER PUSH1 0x0 SWAP1 DUP2 MSTORE PUSH1 0x10 PUSH1 0x20 SWAP1 DUP2 MSTORE PUSH1 0x40 DUP1 DUP4 KECCAK256 DUP1 SLOAD PUSH1 0xE SWAP1 SWAP4 MSTORE SWAP3 KECCAK256 SLOAD PUSH3 0xB81 SWAP2 SWAP1 PUSH3 0x2F49 JUMP JUMPDEST DUP2 SLOAD DUP2 LT PUSH3 0xB94 JUMPI PUSH3 0xB94 PUSH3 0x2EE1 JUMP JUMPDEST SWAP1 PUSH1 0x0 MSTORE PUSH1 0x20 PUSH1 0x0 KECCAK256 ADD DUP1 SLOAD PUSH3 0xBAB SWAP1 PUSH3 0x2EF7 JUMP JUMPDEST DUP1 PUSH1 0x1F ADD PUSH1 0x20 DUP1 SWAP2 DIV MUL PUSH1 0x20 ADD PUSH1 0x40 MLOAD SWAP1 DUP2 ADD PUSH1 0x40 MSTORE DUP1 SWAP3 SWAP2 SWAP1 DUP2 DUP2 MSTORE PUSH1 0x20 ADD DUP3 DUP1 SLOAD PUSH3 0xBD9 SWAP1 PUSH3 0x2EF7 JUMP JUMPDEST DUP1 ISZERO PUSH3 0xC2A JUMPI DUP1 PUSH1 0x1F LT PUSH3 0xBFE JUMPI PUSH2 0x100 DUP1 DUP4 SLOAD DIV MUL DUP4 MSTORE SWAP2 PUSH1 0x20 ADD SWAP2 PUSH3 0xC2A JUMP JUMPDEST DUP3 ADD SWAP2 SWAP1 PUSH1 0x0 MSTORE PUSH1 0x20 PUSH1 0x0 KECCAK256 SWAP1 JUMPDEST DUP2 SLOAD DUP2 MSTORE SWAP1 PUSH1 0x1 ADD SWAP1 PUSH1 0x20 ADD DUP1 DUP4 GT PUSH3 0xC0C JUMPI DUP3 SWAP1 SUB PUSH1 0x1F AND DUP3 ADD SWAP2 JUMPDEST POP POP POP POP POP SWAP1 POP JUMPDEST PUSH3 0xC3E DUP2 DUP4 PUSH3 0x2087 JUMP JUMPDEST CALLER PUSH1 0x0 SWAP1 DUP2 MSTORE PUSH1 0xA PUSH1 0x20 SWAP1 DUP2 MSTORE PUSH1 0x40 DUP1 DUP4 KECCAK256 PUSH1 0x8 SWAP1 SWAP3 MSTORE SWAP1 SWAP2 KECCAK256 SLOAD SWAP2 SWAP5 POP DUP5 SWAP2 PUSH1 0x6 DUP2 LT PUSH3 0xC71 JUMPI PUSH3 0xC71 PUSH3 0x2EE1 JUMP JUMPDEST PUSH3 0xC81 SWAP3 SWAP2 ADD SWAP1 PUSH1 0x5 PUSH3 0x2772 JUMP JUMPDEST POP CALLER PUSH1 0x0 SWAP1 DUP2 MSTORE PUSH1 0x8 PUSH1 0x20 MSTORE PUSH1 0x40 DUP2 KECCAK256 DUP1 SLOAD SWAP2 PUSH3 0xC9F DUP4 PUSH3 0x2F76 JUMP JUMPDEST SWAP2 SWAP1 POP SSTORE POP PUSH3 0xCAF DUP4 PUSH3 0x2462 JUMP JUMPDEST ISZERO PUSH3 0xD0C JUMPI CALLER PUSH1 0x0 SWAP1 DUP2 MSTORE PUSH1 0x9 PUSH1 0x20 SWAP1 DUP2 MSTORE PUSH1 0x40 DUP1 DUP4 KECCAK256 DUP1 SLOAD PUSH1 0xFF NOT AND PUSH1 0x1 OR SWAP1 SSTORE PUSH1 0x8 SWAP1 SWAP2 MSTORE SWAP1 KECCAK256 SLOAD PUSH1 0x15 SWAP1 PUSH1 0x7 DUP2 LT PUSH3 0xCF0 JUMPI PUSH3 0xCF0 PUSH3 0x2EE1 JUMP JUMPDEST ADD DUP1 SLOAD SWAP1 PUSH1 0x0 PUSH3 0xD01 DUP4 PUSH3 0x2F76 JUMP JUMPDEST SWAP2 SWAP1 POP SSTORE POP PUSH3 0x104B JUMP JUMPDEST CALLER PUSH1 0x0 SWAP1 DUP2 MSTORE PUSH1 0x10 PUSH1 0x20 MSTORE PUSH1 0x40 DUP2 KECCAK256 SLOAD PUSH8 0xFFFFFFFFFFFFFFFF DUP2 GT ISZERO PUSH3 0xD37 JUMPI PUSH3 0xD37 PUSH3 0x2B9B JUMP JUMPDEST PUSH1 0x40 MLOAD SWAP1 DUP1 DUP3 MSTORE DUP1 PUSH1 0x20 MUL PUSH1 0x20 ADD DUP3 ADD PUSH1 0x40 MSTORE DUP1 ISZERO PUSH3 0xD6C JUMPI DUP2 PUSH1 0x20 ADD JUMPDEST PUSH1 0x60 DUP2 MSTORE PUSH1 0x20 ADD SWAP1 PUSH1 0x1 SWAP1 SUB SWAP1 DUP2 PUSH3 0xD56 JUMPI SWAP1 POP JUMPDEST POP SWAP1 POP PUSH1 0x0 DUP1 JUMPDEST CALLER PUSH1 0x0 SWAP1 DUP2 MSTORE PUSH1 0x10 PUSH1 0x20 MSTORE PUSH1 0x40 SWAP1 KECCAK256 SLOAD DUP2 LT ISZERO PUSH3 0xF6D JUMPI CALLER PUSH1 0x0 SWAP1 DUP2 MSTORE PUSH1 0x10 PUSH1 0x20 MSTORE PUSH1 0x40 SWAP1 KECCAK256 DUP1 SLOAD PUSH3 0xE62 SWAP2 PUSH3 0xE5B SWAP2 DUP5 SWAP1 DUP2 LT PUSH3 0xDB9 JUMPI PUSH3 0xDB9 PUSH3 0x2EE1 JUMP JUMPDEST SWAP1 PUSH1 0x0 MSTORE PUSH1 0x20 PUSH1 0x0 KECCAK256 ADD DUP1 SLOAD PUSH3 0xDD0 SWAP1 PUSH3 0x2EF7 JUMP JUMPDEST DUP1 PUSH1 0x1F ADD PUSH1 0x20 DUP1 SWAP2 DIV MUL PUSH1 0x20 ADD PUSH1 0x40 MLOAD SWAP1 DUP2 ADD PUSH1 0x40 MSTORE DUP1 SWAP3 SWAP2 SWAP1 DUP2 DUP2 MSTORE PUSH1 0x20 ADD DUP3 DUP1 SLOAD PUSH3 0xDFE SWAP1 PUSH3 0x2EF7 JUMP JUMPDEST DUP1 ISZERO PUSH3 0xE4F JUMPI DUP1 PUSH1 0x1F LT PUSH3 0xE23 JUMPI PUSH2 0x100 DUP1 DUP4 SLOAD DIV MUL DUP4 MSTORE SWAP2 PUSH1 0x20 ADD SWAP2 PUSH3 0xE4F JUMP JUMPDEST DUP3 ADD SWAP2 SWAP1 PUSH1 0x0 MSTORE PUSH1 0x20 PUSH1 0x0 KECCAK256 SWAP1 JUMPDEST DUP2 SLOAD DUP2 MSTORE SWAP1 PUSH1 0x1 ADD SWAP1 PUSH1 0x20 ADD DUP1 DUP4 GT PUSH3 0xE31 JUMPI DUP3 SWAP1 SUB PUSH1 0x1F AND DUP3 ADD SWAP2 JUMPDEST POP POP POP POP POP DUP8 PUSH3 0x2087 JUMP JUMPDEST DUP8 PUSH3 0x251B JUMP JUMPDEST ISZERO PUSH3 0xF58 JUMPI CALLER PUSH1 0x0 SWAP1 DUP2 MSTORE PUSH1 0x10 PUSH1 0x20 MSTORE PUSH1 0x40 SWAP1 KECCAK256 DUP1 SLOAD DUP3 SWAP1 DUP2 LT PUSH3 0xE8C JUMPI PUSH3 0xE8C PUSH3 0x2EE1 JUMP JUMPDEST SWAP1 PUSH1 0x0 MSTORE PUSH1 0x20 PUSH1 0x0 KECCAK256 ADD DUP1 SLOAD PUSH3 0xEA3 SWAP1 PUSH3 0x2EF7 JUMP JUMPDEST DUP1 PUSH1 0x1F ADD PUSH1 0x20 DUP1 SWAP2 DIV MUL PUSH1 0x20 ADD PUSH1 0x40 MLOAD SWAP1 DUP2 ADD PUSH1 0x40 MSTORE DUP1 SWAP3 SWAP2 SWAP1 DUP2 DUP2 MSTORE PUSH1 0x20 ADD DUP3 DUP1 SLOAD PUSH3 0xED1 SWAP1 PUSH3 0x2EF7 JUMP JUMPDEST DUP1 ISZERO PUSH3 0xF22 JUMPI DUP1 PUSH1 0x1F LT PUSH3 0xEF6 JUMPI PUSH2 0x100 DUP1 DUP4 SLOAD DIV MUL DUP4 MSTORE SWAP2 PUSH1 0x20 ADD SWAP2 PUSH3 0xF22 JUMP JUMPDEST DUP3 ADD SWAP2 SWAP1 PUSH1 0x0 MSTORE PUSH1 0x20 PUSH1 0x0 KECCAK256 SWAP1 JUMPDEST DUP2 SLOAD DUP2 MSTORE SWAP1 PUSH1 0x1 ADD SWAP1 PUSH1 0x20 ADD DUP1 DUP4 GT PUSH3 0xF04 JUMPI DUP3 SWAP1 SUB PUSH1 0x1F AND DUP3 ADD SWAP2 JUMPDEST POP POP POP POP POP DUP4 DUP4 DUP2 MLOAD DUP2 LT PUSH3 0xF3C JUMPI PUSH3 0xF3C PUSH3 0x2EE1 JUMP JUMPDEST PUSH1 0x20 MUL PUSH1 0x20 ADD ADD DUP2 SWAP1 MSTORE POP DUP2 DUP1 PUSH3 0xF54 SWAP1 PUSH3 0x2F76 JUMP JUMPDEST SWAP3 POP POP JUMPDEST DUP1 PUSH3 0xF64 DUP2 PUSH3 0x2F76 JUMP JUMPDEST SWAP2 POP POP PUSH3 0xD73 JUMP JUMPDEST POP PUSH1 0x0 DUP2 PUSH8 0xFFFFFFFFFFFFFFFF DUP2 GT ISZERO PUSH3 0xF8C JUMPI PUSH3 0xF8C PUSH3 0x2B9B JUMP JUMPDEST PUSH1 0x40 MLOAD SWAP1 DUP1 DUP3 MSTORE DUP1 PUSH1 0x20 MUL PUSH1 0x20 ADD DUP3 ADD PUSH1 0x40 MSTORE DUP1 ISZERO PUSH3 0xFC1 JUMPI DUP2 PUSH1 0x20 ADD JUMPDEST PUSH1 0x60 DUP2 MSTORE PUSH1 0x20 ADD SWAP1 PUSH1 0x1 SWAP1 SUB SWAP1 DUP2 PUSH3 0xFAB JUMPI SWAP1 POP JUMPDEST POP SWAP1 POP PUSH1 0x0 JUMPDEST DUP3 DUP2 LT ISZERO PUSH3 0x1023 JUMPI DUP4 DUP2 DUP2 MLOAD DUP2 LT PUSH3 0xFE5 JUMPI PUSH3 0xFE5 PUSH3 0x2EE1 JUMP JUMPDEST PUSH1 0x20 MUL PUSH1 0x20 ADD ADD MLOAD DUP3 DUP3 DUP2 MLOAD DUP2 LT PUSH3 0x1002 JUMPI PUSH3 0x1002 PUSH3 0x2EE1 JUMP JUMPDEST PUSH1 0x20 MUL PUSH1 0x20 ADD ADD DUP2 SWAP1 MSTORE POP DUP1 DUP1 PUSH3 0x101A SWAP1 PUSH3 0x2F76 JUMP JUMPDEST SWAP2 POP POP PUSH3 0xFC7 JUMP JUMPDEST POP CALLER PUSH1 0x0 SWAP1 DUP2 MSTORE PUSH1 0x10 PUSH1 0x20 SWAP1 DUP2 MSTORE PUSH1 0x40 SWAP1 SWAP2 KECCAK256 DUP3 MLOAD PUSH3 0x1046 SWAP3 DUP5 ADD SWAP1 PUSH3 0x281D JUMP JUMPDEST POP POP POP POP JUMPDEST POP POP CALLER PUSH1 0x0 SWAP1 DUP2 MSTORE PUSH1 0xE PUSH1 0x20 MSTORE PUSH1 0x40 DUP2 KECCAK256 SSTORE SWAP2 SWAP1 POP JUMP JUMPDEST PUSH1 0x0 DUP1 SLOAD PUSH1 0x1 PUSH1 0x1 PUSH1 0xA0 SHL SUB AND CALLER EQ PUSH3 0x1090 JUMPI PUSH1 0x40 MLOAD PUSH3 0x461BCD PUSH1 0xE5 SHL DUP2 MSTORE PUSH1 0x4 ADD PUSH3 0x6A8 SWAP1 PUSH3 0x2E67 JUMP JUMPDEST POP PUSH1 0x1 PUSH1 0x1 PUSH1 0xA0 SHL SUB DUP2 AND PUSH1 0x0 SWAP1 DUP2 MSTORE PUSH1 0x10 PUSH1 0x20 MSTORE PUSH1 0x40 SWAP1 KECCAK256 SLOAD JUMPDEST SWAP2 SWAP1 POP JUMP JUMPDEST PUSH1 0x13 DUP2 DUP2 SLOAD DUP2 LT PUSH3 0x10C1 JUMPI PUSH1 0x0 DUP1 REVERT JUMPDEST SWAP1 PUSH1 0x0 MSTORE PUSH1 0x20 PUSH1 0x0 KECCAK256 ADD PUSH1 0x0 SWAP2 POP SWAP1 POP DUP1 SLOAD PUSH3 0x10DE SWAP1 PUSH3 0x2EF7 JUMP JUMPDEST DUP1 PUSH1 0x1F ADD PUSH1 0x20 DUP1 SWAP2 DIV MUL PUSH1 0x20 ADD PUSH1 0x40 MLOAD SWAP1 DUP2 ADD PUSH1 0x40 MSTORE DUP1 SWAP3 SWAP2 SWAP1 DUP2 DUP2 MSTORE PUSH1 0x20 ADD DUP3 DUP1 SLOAD PUSH3 0x110C SWAP1 PUSH3 0x2EF7 JUMP JUMPDEST DUP1 ISZERO PUSH3 0x115D JUMPI DUP1 PUSH1 0x1F LT PUSH3 0x1131 JUMPI PUSH2 0x100 DUP1 DUP4 SLOAD DIV MUL DUP4 MSTORE SWAP2 PUSH1 0x20 ADD SWAP2 PUSH3 0x115D JUMP JUMPDEST DUP3 ADD SWAP2 SWAP1 PUSH1 0x0 MSTORE PUSH1 0x20 PUSH1 0x0 KECCAK256 SWAP1 JUMPDEST DUP2 SLOAD DUP2 MSTORE SWAP1 PUSH1 0x1 ADD SWAP1 PUSH1 0x20 ADD DUP1 DUP4 GT PUSH3 0x113F JUMPI DUP3 SWAP1 SUB PUSH1 0x1F AND DUP3 ADD SWAP2 JUMPDEST POP POP POP POP POP DUP2 JUMP JUMPDEST PUSH1 0x0 SLOAD PUSH1 0x1 PUSH1 0x1 PUSH1 0xA0 SHL SUB AND CALLER EQ PUSH3 0x1192 JUMPI PUSH1 0x40 MLOAD PUSH3 0x461BCD PUSH1 0xE5 SHL DUP2 MSTORE PUSH1 0x4 ADD PUSH3 0x6A8 SWAP1 PUSH3 0x2E67 JUMP JUMPDEST PUSH3 0x119E PUSH1 0x0 PUSH3 0x25B5 JUMP JUMPDEST JUMP JUMPDEST PUSH1 0x12 DUP2 DUP2 SLOAD DUP2 LT PUSH3 0x11B1 JUMPI PUSH1 0x0 DUP1 REVERT JUMPDEST PUSH1 0x0 SWAP2 DUP3 MSTORE PUSH1 0x20 SWAP1 SWAP2 KECCAK256 ADD SLOAD PUSH1 0x1 PUSH1 0x1 PUSH1 0xA0 SHL SUB AND SWAP1 POP DUP2 JUMP JUMPDEST PUSH1 0x0 SLOAD PUSH1 0x1 PUSH1 0x1 PUSH1 0xA0 SHL SUB AND CALLER EQ PUSH3 0x11F8 JUMPI PUSH1 0x40 MLOAD PUSH3 0x461BCD PUSH1 0xE5 SHL DUP2 MSTORE PUSH1 0x4 ADD PUSH3 0x6A8 SWAP1 PUSH3 0x2E67 JUMP JUMPDEST PUSH1 0x24 SSTORE JUMP JUMPDEST PUSH1 0x0 SLOAD PUSH1 0x60 SWAP1 PUSH1 0x1 PUSH1 0x1 PUSH1 0xA0 SHL SUB AND CALLER EQ PUSH3 0x122D JUMPI PUSH1 0x40 MLOAD PUSH3 0x461BCD PUSH1 0xE5 SHL DUP2 MSTORE PUSH1 0x4 ADD PUSH3 0x6A8 SWAP1 PUSH3 0x2E67 JUMP JUMPDEST PUSH1 0x1 PUSH1 0x1 PUSH1 0xA0 SHL SUB DUP4 AND PUSH1 0x0 SWAP1 DUP2 MSTORE PUSH1 0x10 PUSH1 0x20 MSTORE PUSH1 0x40 SWAP1 KECCAK256 DUP1 SLOAD DUP4 SWAP1 DUP2 LT PUSH3 0x125A JUMPI PUSH3 0x125A PUSH3 0x2EE1 JUMP JUMPDEST SWAP1 PUSH1 0x0 MSTORE PUSH1 0x20 PUSH1 0x0 KECCAK256 ADD DUP1 SLOAD PUSH3 0x1271 SWAP1 PUSH3 0x2EF7 JUMP JUMPDEST DUP1 PUSH1 0x1F ADD PUSH1 0x20 DUP1 SWAP2 DIV MUL PUSH1 0x20 ADD PUSH1 0x40 MLOAD SWAP1 DUP2 ADD PUSH1 0x40 MSTORE DUP1 SWAP3 SWAP2 SWAP1 DUP2 DUP2 MSTORE PUSH1 0x20 ADD DUP3 DUP1 SLOAD PUSH3 0x129F SWAP1 PUSH3 0x2EF7 JUMP JUMPDEST DUP1 ISZERO PUSH3 0x12F0 JUMPI DUP1 PUSH1 0x1F LT PUSH3 0x12C4 JUMPI PUSH2 0x100 DUP1 DUP4 SLOAD DIV MUL DUP4 MSTORE SWAP2 PUSH1 0x20 ADD SWAP2 PUSH3 0x12F0 JUMP JUMPDEST DUP3 ADD SWAP2 SWAP1 PUSH1 0x0 MSTORE PUSH1 0x20 PUSH1 0x0 KECCAK256 SWAP1 JUMPDEST DUP2 SLOAD DUP2 MSTORE SWAP1 PUSH1 0x1 ADD SWAP1 PUSH1 0x20 ADD DUP1 DUP4 GT PUSH3 0x12D2 JUMPI DUP3 SWAP1 SUB PUSH1 0x1F AND DUP3 ADD SWAP2 JUMPDEST POP POP POP POP POP SWAP1 POP JUMPDEST SWAP3 SWAP2 POP POP JUMP JUMPDEST PUSH1 0x0 DUP1 SLOAD PUSH1 0x1 PUSH1 0x1 PUSH1 0xA0 SHL SUB AND CALLER EQ PUSH3 0x132C JUMPI PUSH1 0x40 MLOAD PUSH3 0x461BCD PUSH1 0xE5 SHL DUP2 MSTORE PUSH1 0x4 ADD PUSH3 0x6A8 SWAP1 PUSH3 0x2E67 JUMP JUMPDEST POP PUSH1 0x24 SLOAD SWAP1 JUMP JUMPDEST PUSH1 0x1C DUP2 DUP2 SLOAD DUP2 LT PUSH3 0x11B1 JUMPI PUSH1 0x0 DUP1 REVERT JUMPDEST PUSH1 0x0 DUP1 SLOAD PUSH1 0x1 PUSH1 0x1 PUSH1 0xA0 SHL SUB AND CALLER EQ PUSH3 0x1372 JUMPI PUSH1 0x40 MLOAD PUSH3 0x461BCD PUSH1 0xE5 SHL DUP2 MSTORE PUSH1 0x4 ADD PUSH3 0x6A8 SWAP1 PUSH3 0x2E67 JUMP JUMPDEST PUSH1 0x15 DUP3 PUSH1 0x7 DUP2 LT PUSH3 0x1388 JUMPI PUSH3 0x1388 PUSH3 0x2EE1 JUMP JUMPDEST ADD SLOAD SWAP3 SWAP2 POP POP JUMP JUMPDEST PUSH1 0x1 PUSH1 0x25 SLOAD PUSH1 0xFF AND PUSH1 0x1 DUP2 GT ISZERO PUSH3 0x13AC JUMPI PUSH3 0x13AC PUSH3 0x2C87 JUMP JUMPDEST EQ PUSH3 0x13CC JUMPI PUSH1 0x40 MLOAD PUSH3 0x461BCD PUSH1 0xE5 SHL DUP2 MSTORE PUSH1 0x4 ADD PUSH3 0x6A8 SWAP1 PUSH3 0x2E9C JUMP JUMPDEST PUSH1 0x26 SLOAD CALLVALUE LT ISZERO PUSH3 0x142B JUMPI PUSH1 0x40 MLOAD PUSH3 0x461BCD PUSH1 0xE5 SHL DUP2 MSTORE PUSH1 0x20 PUSH1 0x4 DUP3 ADD MSTORE PUSH1 0x22 PUSH1 0x24 DUP3 ADD MSTORE PUSH32 0x4572726F723A20494E53554646494349454E542046554E44532050524F564944 PUSH1 0x44 DUP3 ADD MSTORE PUSH2 0x1151 PUSH1 0xF2 SHL PUSH1 0x64 DUP3 ADD MSTORE PUSH1 0x84 ADD PUSH3 0x6A8 JUMP JUMPDEST CALLER PUSH1 0x0 SWAP1 DUP2 MSTORE PUSH1 0xC PUSH1 0x20 MSTORE PUSH1 0x40 SWAP1 KECCAK256 SLOAD PUSH1 0xFF AND ISZERO PUSH3 0x148D JUMPI PUSH1 0x40 MLOAD PUSH3 0x461BCD PUSH1 0xE5 SHL DUP2 MSTORE PUSH1 0x20 PUSH1 0x4 DUP3 ADD MSTORE PUSH1 0x1F PUSH1 0x24 DUP3 ADD MSTORE PUSH32 0x4572726F723A20504C4159455220414C5245414459205349474E454420555000 PUSH1 0x44 DUP3 ADD MSTORE PUSH1 0x64 ADD PUSH3 0x6A8 JUMP JUMPDEST PUSH3 0x1498 CALLER PUSH3 0x2605 JUMP JUMPDEST PUSH1 0x12 DUP1 SLOAD PUSH1 0x1 DUP2 DUP2 ADD SWAP1 SWAP3 SSTORE PUSH32 0xBB8A6A4669BA250D26CD7A459ECA9D215F8307E33AEBE50379BC5A3617EC3444 ADD DUP1 SLOAD PUSH1 0x1 PUSH1 0x1 PUSH1 0xA0 SHL SUB NOT AND CALLER SWAP1 DUP2 OR SWAP1 SWAP2 SSTORE PUSH1 0x0 SWAP1 DUP2 MSTORE PUSH1 0xC PUSH1 0x20 SWAP1 DUP2 MSTORE PUSH1 0x40 DUP1 DUP4 KECCAK256 DUP1 SLOAD PUSH1 0xFF NOT AND SWAP1 SWAP5 OR SWAP1 SWAP4 SSTORE PUSH1 0x10 SWAP1 MSTORE KECCAK256 PUSH1 0x13 DUP1 SLOAD PUSH3 0x150C SWAP3 SWAP2 SWAP1 PUSH3 0x287D JUMP JUMPDEST POP CALLER PUSH1 0x0 SWAP1 DUP2 MSTORE PUSH1 0xF PUSH1 0x20 MSTORE PUSH1 0x40 DUP2 KECCAK256 DUP1 SLOAD PUSH1 0xFF NOT AND PUSH1 0x1 DUP4 PUSH3 0x772 JUMP JUMPDEST PUSH1 0xB PUSH1 0x20 MSTORE DUP2 PUSH1 0x0 MSTORE PUSH1 0x40 PUSH1 0x0 KECCAK256 DUP2 PUSH1 0x6 DUP2 LT PUSH3 0x1548 JUMPI PUSH1 0x0 DUP1 REVERT JUMPDEST ADD DUP1 SLOAD SWAP1 SWAP3 POP PUSH3 0x10DE SWAP2 POP PUSH3 0x2EF7 JUMP JUMPDEST PUSH1 0x0 DUP1 SLOAD PUSH1 0x1 PUSH1 0x1 PUSH1 0xA0 SHL SUB AND CALLER EQ PUSH3 0x1588 JUMPI PUSH1 0x40 MLOAD PUSH3 0x461BCD PUSH1 0xE5 SHL DUP2 MSTORE PUSH1 0x4 ADD PUSH3 0x6A8 SWAP1 PUSH3 0x2E67 JUMP JUMPDEST PUSH1 0x1 PUSH1 0x25 SLOAD PUSH1 0xFF AND PUSH1 0x1 DUP2 GT ISZERO PUSH3 0x15A4 JUMPI PUSH3 0x15A4 PUSH3 0x2C87 JUMP JUMPDEST EQ PUSH3 0x15C4 JUMPI PUSH1 0x40 MLOAD PUSH3 0x461BCD PUSH1 0xE5 SHL DUP2 MSTORE PUSH1 0x4 ADD PUSH3 0x6A8 SWAP1 PUSH3 0x2E9C JUMP JUMPDEST PUSH1 0x0 SLOAD PUSH1 0x1 PUSH1 0x1 PUSH1 0xA0 SHL SUB AND PUSH1 0x1 PUSH1 0x1 PUSH1 0xA0 SHL SUB AND PUSH2 0x8FC PUSH2 0x3E8 PUSH1 0x24 SLOAD SELFBALANCE PUSH3 0x15EF SWAP2 SWAP1 PUSH3 0x2F92 JUMP JUMPDEST PUSH3 0x15FB SWAP2 SWAP1 PUSH3 0x2FB4 JUMP JUMPDEST PUSH1 0x40 MLOAD DUP2 ISZERO SWAP1 SWAP3 MUL SWAP2 PUSH1 0x0 DUP2 DUP2 DUP2 DUP6 DUP9 DUP9 CALL SWAP4 POP POP POP POP ISZERO DUP1 ISZERO PUSH3 0x1624 JUMPI RETURNDATASIZE PUSH1 0x0 DUP1 RETURNDATACOPY RETURNDATASIZE PUSH1 0x0 REVERT JUMPDEST POP PUSH1 0x0 DUP1 JUMPDEST PUSH1 0x12 SLOAD DUP2 LT ISZERO PUSH3 0x16EC JUMPI PUSH1 0xC PUSH1 0x0 PUSH1 0x12 DUP4 DUP2 SLOAD DUP2 LT PUSH3 0x164E JUMPI PUSH3 0x164E PUSH3 0x2EE1 JUMP JUMPDEST PUSH1 0x0 SWAP2 DUP3 MSTORE PUSH1 0x20 DUP1 DUP4 KECCAK256 SWAP1 SWAP2 ADD SLOAD PUSH1 0x1 PUSH1 0x1 PUSH1 0xA0 SHL SUB AND DUP4 MSTORE DUP3 ADD SWAP3 SWAP1 SWAP3 MSTORE PUSH1 0x40 ADD SWAP1 KECCAK256 SLOAD PUSH1 0xFF AND DUP1 ISZERO PUSH3 0x16C1 JUMPI POP PUSH1 0x9 PUSH1 0x0 PUSH1 0x12 DUP4 DUP2 SLOAD DUP2 LT PUSH3 0x1698 JUMPI PUSH3 0x1698 PUSH3 0x2EE1 JUMP JUMPDEST PUSH1 0x0 SWAP2 DUP3 MSTORE PUSH1 0x20 DUP1 DUP4 KECCAK256 SWAP1 SWAP2 ADD SLOAD PUSH1 0x1 PUSH1 0x1 PUSH1 0xA0 SHL SUB AND DUP4 MSTORE DUP3 ADD SWAP3 SWAP1 SWAP3 MSTORE PUSH1 0x40 ADD SWAP1 KECCAK256 SLOAD PUSH1 0xFF AND JUMPDEST ISZERO PUSH3 0x16D7 JUMPI DUP2 PUSH3 0x16D3 DUP2 PUSH3 0x2F76 JUMP JUMPDEST SWAP3 POP POP JUMPDEST DUP1 PUSH3 0x16E3 DUP2 PUSH3 0x2F76 JUMP JUMPDEST SWAP2 POP POP PUSH3 0x1629 JUMP JUMPDEST POP PUSH1 0x0 DUP2 PUSH8 0xFFFFFFFFFFFFFFFF DUP2 GT ISZERO PUSH3 0x170B JUMPI PUSH3 0x170B PUSH3 0x2B9B JUMP JUMPDEST PUSH1 0x40 MLOAD SWAP1 DUP1 DUP3 MSTORE DUP1 PUSH1 0x20 MUL PUSH1 0x20 ADD DUP3 ADD PUSH1 0x40 MSTORE DUP1 ISZERO PUSH3 0x1735 JUMPI DUP2 PUSH1 0x20 ADD PUSH1 0x20 DUP3 MUL DUP1 CALLDATASIZE DUP4 CALLDATACOPY ADD SWAP1 POP JUMPDEST POP SWAP1 POP PUSH1 0x0 DUP3 PUSH8 0xFFFFFFFFFFFFFFFF DUP2 GT ISZERO PUSH3 0x1756 JUMPI PUSH3 0x1756 PUSH3 0x2B9B JUMP JUMPDEST PUSH1 0x40 MLOAD SWAP1 DUP1 DUP3 MSTORE DUP1 PUSH1 0x20 MUL PUSH1 0x20 ADD DUP3 ADD PUSH1 0x40 MSTORE DUP1 ISZERO PUSH3 0x1780 JUMPI DUP2 PUSH1 0x20 ADD PUSH1 0x20 DUP3 MUL DUP1 CALLDATASIZE DUP4 CALLDATACOPY ADD SWAP1 POP JUMPDEST POP SWAP1 POP PUSH1 0x0 DUP1 JUMPDEST PUSH1 0x12 SLOAD DUP2 LT ISZERO PUSH3 0x1929 JUMPI PUSH1 0xC PUSH1 0x0 PUSH1 0x12 DUP4 DUP2 SLOAD DUP2 LT PUSH3 0x17AC JUMPI PUSH3 0x17AC PUSH3 0x2EE1 JUMP JUMPDEST PUSH1 0x0 SWAP2 DUP3 MSTORE PUSH1 0x20 DUP1 DUP4 KECCAK256 SWAP1 SWAP2 ADD SLOAD PUSH1 0x1 PUSH1 0x1 PUSH1 0xA0 SHL SUB AND DUP4 MSTORE DUP3 ADD SWAP3 SWAP1 SWAP3 MSTORE PUSH1 0x40 ADD SWAP1 KECCAK256 SLOAD PUSH1 0xFF AND DUP1 ISZERO PUSH3 0x181F JUMPI POP PUSH1 0x9 PUSH1 0x0 PUSH1 0x12 DUP4 DUP2 SLOAD DUP2 LT PUSH3 0x17F6 JUMPI PUSH3 0x17F6 PUSH3 0x2EE1 JUMP JUMPDEST PUSH1 0x0 SWAP2 DUP3 MSTORE PUSH1 0x20 DUP1 DUP4 KECCAK256 SWAP1 SWAP2 ADD SLOAD PUSH1 0x1 PUSH1 0x1 PUSH1 0xA0 SHL SUB AND DUP4 MSTORE DUP3 ADD SWAP3 SWAP1 SWAP3 MSTORE PUSH1 0x40 ADD SWAP1 KECCAK256 SLOAD PUSH1 0xFF AND JUMPDEST ISZERO PUSH3 0x1914 JUMPI PUSH1 0x12 DUP2 DUP2 SLOAD DUP2 LT PUSH3 0x183B JUMPI PUSH3 0x183B PUSH3 0x2EE1 JUMP JUMPDEST SWAP1 PUSH1 0x0 MSTORE PUSH1 0x20 PUSH1 0x0 KECCAK256 ADD PUSH1 0x0 SWAP1 SLOAD SWAP1 PUSH2 0x100 EXP SWAP1 DIV PUSH1 0x1 PUSH1 0x1 PUSH1 0xA0 SHL SUB AND DUP5 DUP4 DUP2 MLOAD DUP2 LT PUSH3 0x186E JUMPI PUSH3 0x186E PUSH3 0x2EE1 JUMP JUMPDEST PUSH1 0x20 MUL PUSH1 0x20 ADD ADD SWAP1 PUSH1 0x1 PUSH1 0x1 PUSH1 0xA0 SHL SUB AND SWAP1 DUP2 PUSH1 0x1 PUSH1 0x1 PUSH1 0xA0 SHL SUB AND DUP2 MSTORE POP POP PUSH1 0x1D PUSH1 0x8 PUSH1 0x0 PUSH1 0x12 DUP5 DUP2 SLOAD DUP2 LT PUSH3 0x18AA JUMPI PUSH3 0x18AA PUSH3 0x2EE1 JUMP JUMPDEST PUSH1 0x0 SWAP2 DUP3 MSTORE PUSH1 0x20 DUP1 DUP4 KECCAK256 SWAP1 SWAP2 ADD SLOAD PUSH1 0x1 PUSH1 0x1 PUSH1 0xA0 SHL SUB AND DUP4 MSTORE DUP3 ADD SWAP3 SWAP1 SWAP3 MSTORE PUSH1 0x40 ADD SWAP1 KECCAK256 SLOAD PUSH1 0x7 DUP2 LT PUSH3 0x18E2 JUMPI PUSH3 0x18E2 PUSH3 0x2EE1 JUMP JUMPDEST ADD SLOAD DUP4 DUP4 DUP2 MLOAD DUP2 LT PUSH3 0x18F9 JUMPI PUSH3 0x18F9 PUSH3 0x2EE1 JUMP JUMPDEST PUSH1 0x20 SWAP1 DUP2 MUL SWAP2 SWAP1 SWAP2 ADD ADD MSTORE DUP2 PUSH3 0x1910 DUP2 PUSH3 0x2F76 JUMP JUMPDEST SWAP3 POP POP JUMPDEST DUP1 PUSH3 0x1920 DUP2 PUSH3 0x2F76 JUMP JUMPDEST SWAP2 POP POP PUSH3 0x1787 JUMP JUMPDEST POP DUP4 ISZERO PUSH3 0x19A7 JUMPI DUP3 DUP3 PUSH1 0x40 MLOAD PUSH3 0x1941 SWAP1 PUSH3 0x28DA JUMP JUMPDEST PUSH3 0x194E SWAP3 SWAP2 SWAP1 PUSH3 0x2FCB JUMP JUMPDEST PUSH1 0x40 MLOAD DUP1 SWAP2 SUB SWAP1 PUSH1 0x0 CREATE DUP1 ISZERO DUP1 ISZERO PUSH3 0x196B JUMPI RETURNDATASIZE PUSH1 0x0 DUP1 RETURNDATACOPY RETURNDATASIZE PUSH1 0x0 REVERT JUMPDEST POP PUSH1 0x40 MLOAD SWAP1 SWAP6 POP PUSH1 0x1 PUSH1 0x1 PUSH1 0xA0 SHL SUB DUP7 AND SWAP1 SELFBALANCE DUP1 ISZERO PUSH2 0x8FC MUL SWAP2 PUSH1 0x0 DUP2 DUP2 DUP2 DUP6 DUP9 DUP9 CALL SWAP4 POP POP POP POP ISZERO DUP1 ISZERO PUSH3 0x19A5 JUMPI RETURNDATASIZE PUSH1 0x0 DUP1 RETURNDATACOPY RETURNDATASIZE PUSH1 0x0 REVERT JUMPDEST POP JUMPDEST PUSH1 0x0 JUMPDEST PUSH1 0x12 SLOAD DUP2 LT ISZERO PUSH3 0x19FF JUMPI PUSH3 0x19EA PUSH1 0x12 DUP3 DUP2 SLOAD DUP2 LT PUSH3 0x19CF JUMPI PUSH3 0x19CF PUSH3 0x2EE1 JUMP JUMPDEST PUSH1 0x0 SWAP2 DUP3 MSTORE PUSH1 0x20 SWAP1 SWAP2 KECCAK256 ADD SLOAD PUSH1 0x1 PUSH1 0x1 PUSH1 0xA0 SHL SUB AND PUSH3 0x2605 JUMP JUMPDEST DUP1 PUSH3 0x19F6 DUP2 PUSH3 0x2F76 JUMP JUMPDEST SWAP2 POP POP PUSH3 0x19AA JUMP JUMPDEST POP PUSH3 0x1A0E PUSH1 0x12 PUSH1 0x0 PUSH3 0x28E8 JUMP JUMPDEST PUSH3 0x1A1C PUSH1 0x15 PUSH1 0x0 PUSH3 0x2908 JUMP JUMPDEST POP POP PUSH1 0x25 DUP1 SLOAD PUSH1 0xFF NOT AND SWAP1 SSTORE POP POP PUSH1 0x1C DUP1 SLOAD PUSH1 0x1 DUP2 ADD DUP3 SSTORE PUSH1 0x0 SWAP2 SWAP1 SWAP2 MSTORE PUSH32 0xE4562A10381DEC21B205ED72637E6B1B523BDD0E4D4D50AF5CD23DD4500A211 ADD DUP1 SLOAD PUSH1 0x1 PUSH1 0x1 PUSH1 0xA0 SHL SUB NOT AND PUSH1 0x1 PUSH1 0x1 PUSH1 0xA0 SHL SUB DUP4 AND OR SWAP1 SSTORE SWAP1 JUMP JUMPDEST PUSH1 0xA PUSH1 0x20 MSTORE DUP3 PUSH1 0x0 MSTORE PUSH1 0x40 PUSH1 0x0 KECCAK256 DUP3 PUSH1 0x6 DUP2 LT PUSH3 0x1A95 JUMPI PUSH1 0x0 DUP1 REVERT JUMPDEST ADD DUP2 PUSH1 0x5 DUP2 LT PUSH3 0x1AA5 JUMPI PUSH1 0x0 DUP1 REVERT JUMPDEST PUSH1 0x20 DUP2 DIV SWAP1 SWAP2 ADD SLOAD PUSH1 0xFF PUSH1 0x1F SWAP1 SWAP3 AND PUSH2 0x100 EXP SWAP1 DIV AND SWAP3 POP DUP4 SWAP2 POP POP JUMP JUMPDEST PUSH1 0x1 PUSH1 0x25 SLOAD PUSH1 0xFF AND PUSH1 0x1 DUP2 GT ISZERO PUSH3 0x1ADF JUMPI PUSH3 0x1ADF PUSH3 0x2C87 JUMP JUMPDEST EQ PUSH3 0x1AFF JUMPI PUSH1 0x40 MLOAD PUSH3 0x461BCD PUSH1 0xE5 SHL DUP2 MSTORE PUSH1 0x4 ADD PUSH3 0x6A8 SWAP1 PUSH3 0x2E9C JUMP JUMPDEST CALLER PUSH1 0x0 SWAP1 DUP2 MSTORE PUSH1 0xC PUSH1 0x20 MSTORE PUSH1 0x40 SWAP1 KECCAK256 SLOAD PUSH1 0xFF AND PUSH3 0x1B60 JUMPI PUSH1 0x40 MLOAD PUSH3 0x461BCD PUSH1 0xE5 SHL DUP2 MSTORE PUSH1 0x20 PUSH1 0x4 DUP3 ADD MSTORE PUSH1 0x1B PUSH1 0x24 DUP3 ADD MSTORE PUSH32 0x4572726F723A20504C41594552204E4F54205349474E45442055500000000000 PUSH1 0x44 DUP3 ADD MSTORE PUSH1 0x64 ADD PUSH3 0x6A8 JUMP JUMPDEST CALLER PUSH1 0x0 SWAP1 DUP2 MSTORE PUSH1 0x8 PUSH1 0x20 MSTORE PUSH1 0x40 SWAP1 KECCAK256 SLOAD PUSH1 0x6 GT PUSH3 0x1BCC JUMPI PUSH1 0x40 MLOAD PUSH3 0x461BCD PUSH1 0xE5 SHL DUP2 MSTORE PUSH1 0x20 PUSH1 0x4 DUP3 ADD MSTORE PUSH1 0x22 PUSH1 0x24 DUP3 ADD MSTORE PUSH32 0x4572726F723A204E554D424552204F4620475545535345532045584841555354 PUSH1 0x44 DUP3 ADD MSTORE PUSH2 0x1151 PUSH1 0xF2 SHL PUSH1 0x64 DUP3 ADD MSTORE PUSH1 0x84 ADD PUSH3 0x6A8 JUMP JUMPDEST CALLER PUSH1 0x0 SWAP1 DUP2 MSTORE PUSH1 0x9 PUSH1 0x20 MSTORE PUSH1 0x40 SWAP1 KECCAK256 SLOAD PUSH1 0xFF AND ISZERO PUSH3 0x1C45 JUMPI PUSH1 0x40 MLOAD PUSH3 0x461BCD PUSH1 0xE5 SHL DUP2 MSTORE PUSH1 0x20 PUSH1 0x4 DUP3 ADD MSTORE PUSH1 0x2E PUSH1 0x24 DUP3 ADD MSTORE PUSH32 0x4572726F723A20504C4159455220414C52454144592047554553534544205448 PUSH1 0x44 DUP3 ADD MSTORE PUSH14 0x114810D3D4949150D50815D3D491 PUSH1 0x92 SHL PUSH1 0x64 DUP3 ADD MSTORE PUSH1 0x84 ADD PUSH3 0x6A8 JUMP JUMPDEST PUSH3 0x1C51 DUP3 DUP3 PUSH3 0x2685 JUMP JUMPDEST PUSH3 0x1C9F JUMPI PUSH1 0x40 MLOAD PUSH3 0x461BCD PUSH1 0xE5 SHL DUP2 MSTORE PUSH1 0x20 PUSH1 0x4 DUP3 ADD MSTORE PUSH1 0x19 PUSH1 0x24 DUP3 ADD MSTORE PUSH32 0x4572726F723A20494E56414C494420494E50555420574F524400000000000000 PUSH1 0x44 DUP3 ADD MSTORE PUSH1 0x64 ADD PUSH3 0x6A8 JUMP JUMPDEST CALLER PUSH1 0x0 SWAP1 DUP2 MSTORE PUSH1 0x11 PUSH1 0x20 MSTORE PUSH1 0x40 DUP2 KECCAK256 SLOAD PUSH1 0xFF AND PUSH1 0x1 DUP2 GT ISZERO PUSH3 0x1CC6 JUMPI PUSH3 0x1CC6 PUSH3 0x2C87 JUMP JUMPDEST EQ PUSH3 0x1D2B JUMPI PUSH1 0x40 MLOAD PUSH3 0x461BCD PUSH1 0xE5 SHL DUP2 MSTORE PUSH1 0x20 PUSH1 0x4 DUP3 ADD MSTORE PUSH1 0x2D PUSH1 0x24 DUP3 ADD MSTORE PUSH32 0x4572726F723A2045585045435445442055736572477565737353746174652E41 PUSH1 0x44 DUP3 ADD MSTORE PUSH13 0x57414954494E475F4755455353 PUSH1 0x98 SHL PUSH1 0x64 DUP3 ADD MSTORE PUSH1 0x84 ADD PUSH3 0x6A8 JUMP JUMPDEST CALLER PUSH1 0x0 SWAP1 DUP2 MSTORE PUSH1 0xF PUSH1 0x20 MSTORE PUSH1 0x40 DUP2 KECCAK256 SLOAD PUSH1 0xFF AND PUSH1 0x2 DUP2 GT ISZERO PUSH3 0x1D52 JUMPI PUSH3 0x1D52 PUSH3 0x2C87 JUMP JUMPDEST EQ PUSH3 0x1D62 JUMPI PUSH3 0x1D62 PUSH3 0x3053 JUMP JUMPDEST CALLER PUSH1 0x0 SWAP1 DUP2 MSTORE PUSH1 0xB PUSH1 0x20 SWAP1 DUP2 MSTORE PUSH1 0x40 DUP1 DUP4 KECCAK256 PUSH1 0x8 SWAP1 SWAP3 MSTORE SWAP1 SWAP2 KECCAK256 SLOAD DUP4 SWAP2 DUP4 SWAP2 PUSH1 0x6 DUP2 LT PUSH3 0x1D94 JUMPI PUSH3 0x1D94 PUSH3 0x2EE1 JUMP JUMPDEST PUSH3 0x1DA2 SWAP4 SWAP2 ADD SWAP2 PUSH3 0x2919 JUMP JUMPDEST POP CALLER PUSH1 0x0 SWAP1 DUP2 MSTORE PUSH1 0x11 PUSH1 0x20 SWAP1 DUP2 MSTORE PUSH1 0x40 DUP1 DUP4 KECCAK256 DUP1 SLOAD PUSH1 0xFF NOT AND PUSH1 0x1 SWAP1 DUP2 OR SWAP1 SWAP2 SSTORE PUSH1 0x10 SWAP1 SWAP3 MSTORE SWAP1 SWAP2 KECCAK256 SLOAD GT ISZERO PUSH3 0x6BD JUMPI PUSH1 0x1 SLOAD PUSH1 0x3 SLOAD PUSH1 0x4 DUP1 SLOAD PUSH1 0x40 MLOAD PUSH4 0x5D3B1D3 PUSH1 0xE4 SHL DUP2 MSTORE SWAP2 DUP3 ADD SWAP3 SWAP1 SWAP3 MSTORE PUSH1 0x1 PUSH1 0xA0 SHL DUP4 DIV PUSH8 0xFFFFFFFFFFFFFFFF AND PUSH1 0x24 DUP3 ADD MSTORE PUSH5 0x100000000 DUP3 DIV PUSH2 0xFFFF AND PUSH1 0x44 DUP3 ADD MSTORE PUSH4 0xFFFFFFFF DUP1 DUP4 AND PUSH1 0x64 DUP4 ADD MSTORE PUSH7 0x1000000000000 SWAP1 SWAP3 DIV SWAP1 SWAP2 AND PUSH1 0x84 DUP3 ADD MSTORE PUSH1 0x1 PUSH1 0x1 PUSH1 0xA0 SHL SUB SWAP1 SWAP2 AND SWAP1 PUSH4 0x5D3B1D30 SWAP1 PUSH1 0xA4 ADD PUSH1 0x20 PUSH1 0x40 MLOAD DUP1 DUP4 SUB DUP2 PUSH1 0x0 DUP8 GAS CALL ISZERO DUP1 ISZERO PUSH3 0x1E6D JUMPI RETURNDATASIZE PUSH1 0x0 DUP1 RETURNDATACOPY RETURNDATASIZE PUSH1 0x0 REVERT JUMPDEST POP POP POP POP PUSH1 0x40 MLOAD RETURNDATASIZE PUSH1 0x1F NOT PUSH1 0x1F DUP3 ADD AND DUP3 ADD DUP1 PUSH1 0x40 MSTORE POP DUP2 ADD SWAP1 PUSH3 0x1E93 SWAP2 SWAP1 PUSH3 0x3069 JUMP JUMPDEST PUSH1 0x6 DUP2 SWAP1 SSTORE PUSH1 0x0 SWAP1 DUP2 MSTORE PUSH1 0xD PUSH1 0x20 SWAP1 DUP2 MSTORE PUSH1 0x40 DUP1 DUP4 KECCAK256 DUP1 SLOAD PUSH1 0x1 PUSH1 0x1 PUSH1 0xA0 SHL SUB NOT AND CALLER SWAP1 DUP2 OR SWAP1 SWAP2 SSTORE DUP4 MSTORE PUSH1 0xF SWAP1 SWAP2 MSTORE SWAP1 KECCAK256 DUP1 SLOAD PUSH1 0xFF NOT AND PUSH1 0x1 OR SWAP1 SSTORE POP POP JUMP JUMPDEST PUSH1 0x0 SLOAD PUSH1 0x1 PUSH1 0x1 PUSH1 0xA0 SHL SUB AND CALLER EQ PUSH3 0x1F01 JUMPI PUSH1 0x40 MLOAD PUSH3 0x461BCD PUSH1 0xE5 SHL DUP2 MSTORE PUSH1 0x4 ADD PUSH3 0x6A8 SWAP1 PUSH3 0x2E67 JUMP JUMPDEST PUSH1 0x1 PUSH1 0x1 PUSH1 0xA0 SHL SUB DUP2 AND PUSH3 0x1F68 JUMPI PUSH1 0x40 MLOAD PUSH3 0x461BCD PUSH1 0xE5 SHL DUP2 MSTORE PUSH1 0x20 PUSH1 0x4 DUP3 ADD MSTORE PUSH1 0x26 PUSH1 0x24 DUP3 ADD MSTORE PUSH32 0x4F776E61626C653A206E6577206F776E657220697320746865207A65726F2061 PUSH1 0x44 DUP3 ADD MSTORE PUSH6 0x646472657373 PUSH1 0xD0 SHL PUSH1 0x64 DUP3 ADD MSTORE PUSH1 0x84 ADD PUSH3 0x6A8 JUMP JUMPDEST PUSH3 0x1F73 DUP2 PUSH3 0x25B5 JUMP JUMPDEST POP JUMP JUMPDEST PUSH1 0x5 DUP2 DUP2 SLOAD DUP2 LT PUSH3 0x1F87 JUMPI PUSH1 0x0 DUP1 REVERT JUMPDEST PUSH1 0x0 SWAP2 DUP3 MSTORE PUSH1 0x20 SWAP1 SWAP2 KECCAK256 ADD SLOAD SWAP1 POP DUP2 JUMP JUMPDEST PUSH1 0x0 DUP3 DUP2 MSTORE PUSH1 0xD PUSH1 0x20 MSTORE PUSH1 0x40 SWAP1 KECCAK256 SLOAD PUSH1 0x1 PUSH1 0x1 PUSH1 0xA0 SHL SUB AND PUSH3 0x1FBF JUMPI PUSH3 0x1FBF PUSH3 0x3053 JUMP JUMPDEST PUSH1 0x1 PUSH1 0x0 DUP4 DUP2 MSTORE PUSH1 0xD PUSH1 0x20 SWAP1 DUP2 MSTORE PUSH1 0x40 DUP1 DUP4 KECCAK256 SLOAD PUSH1 0x1 PUSH1 0x1 PUSH1 0xA0 SHL SUB AND DUP4 MSTORE PUSH1 0xF SWAP1 SWAP2 MSTORE SWAP1 KECCAK256 SLOAD PUSH1 0xFF AND PUSH1 0x2 DUP2 GT ISZERO PUSH3 0x1FFD JUMPI PUSH3 0x1FFD PUSH3 0x2C87 JUMP JUMPDEST EQ PUSH3 0x200D JUMPI PUSH3 0x200D PUSH3 0x3053 JUMP JUMPDEST DUP1 PUSH1 0x0 DUP2 MLOAD DUP2 LT PUSH3 0x2023 JUMPI PUSH3 0x2023 PUSH3 0x2EE1 JUMP JUMPDEST PUSH1 0x20 SWAP1 DUP2 MUL SWAP2 SWAP1 SWAP2 ADD DUP2 ADD MLOAD PUSH1 0x0 DUP5 DUP2 MSTORE PUSH1 0xD DUP1 DUP5 MSTORE PUSH1 0x40 DUP1 DUP4 KECCAK256 DUP1 SLOAD PUSH1 0x1 PUSH1 0x1 PUSH1 0xA0 SHL SUB SWAP1 DUP2 AND DUP6 MSTORE PUSH1 0xE DUP8 MSTORE DUP3 DUP6 KECCAK256 SWAP6 SWAP1 SWAP6 SSTORE DUP1 SLOAD SWAP1 SWAP5 AND DUP4 MSTORE PUSH1 0xF DUP6 MSTORE DUP3 KECCAK256 DUP1 SLOAD PUSH1 0xFF NOT AND PUSH1 0x2 OR SWAP1 SSTORE SWAP5 SWAP1 MSTORE SWAP3 SWAP1 MSTORE POP DUP1 SLOAD PUSH1 0x1 PUSH1 0x1 PUSH1 0xA0 SHL SUB NOT AND SWAP1 SSTORE JUMP JUMPDEST PUSH3 0x2091 PUSH3 0x2754 JUMP JUMPDEST PUSH3 0x209B PUSH3 0x2996 JUMP JUMPDEST DUP4 DUP4 PUSH1 0x0 JUMPDEST PUSH1 0x1A DUP2 LT ISZERO PUSH3 0x2132 JUMPI PUSH1 0x0 DUP5 PUSH3 0x2102 PUSH1 0x27 DUP5 DUP2 SLOAD PUSH3 0x20C1 SWAP1 PUSH3 0x2EF7 JUMP JUMPDEST DUP2 LT PUSH3 0x20D2 JUMPI PUSH3 0x20D2 PUSH3 0x2EE1 JUMP JUMPDEST DUP2 SLOAD PUSH1 0x1 AND ISZERO PUSH3 0x20F2 JUMPI SWAP1 PUSH1 0x0 MSTORE PUSH1 0x20 PUSH1 0x0 KECCAK256 SWAP1 PUSH1 0x20 SWAP2 DUP3 DUP3 DIV ADD SWAP2 SWAP1 MOD JUMPDEST SWAP1 SLOAD SWAP1 BYTE PUSH1 0x1 PUSH1 0xF8 SHL MUL PUSH3 0x272B JUMP JUMPDEST PUSH1 0xFF AND PUSH1 0x1A DUP2 LT PUSH3 0x2118 JUMPI PUSH3 0x2118 PUSH3 0x2EE1 JUMP JUMPDEST PUSH1 0x20 MUL ADD MSTORE DUP1 PUSH3 0x2129 DUP2 PUSH3 0x2F76 JUMP JUMPDEST SWAP2 POP POP PUSH3 0x20A0 JUMP JUMPDEST POP PUSH1 0x40 DUP1 MLOAD PUSH1 0xA0 DUP2 ADD SWAP1 SWAP2 MSTORE PUSH1 0x0 SWAP1 DUP1 PUSH1 0x2 DUP2 MSTORE PUSH1 0x20 ADD PUSH1 0x2 DUP2 MSTORE PUSH1 0x20 ADD PUSH1 0x2 DUP2 MSTORE PUSH1 0x20 ADD PUSH1 0x2 DUP2 MSTORE PUSH1 0x20 ADD PUSH1 0x2 SWAP1 MSTORE SWAP1 POP PUSH1 0x0 JUMPDEST PUSH1 0x5 DUP2 LT ISZERO PUSH3 0x2229 JUMPI DUP5 PUSH3 0x21A0 DUP6 DUP4 DUP2 MLOAD DUP2 LT PUSH3 0x218B JUMPI PUSH3 0x218B PUSH3 0x2EE1 JUMP JUMPDEST ADD PUSH1 0x20 ADD MLOAD PUSH1 0x1 PUSH1 0x1 PUSH1 0xF8 SHL SUB NOT AND PUSH3 0x272B JUMP JUMPDEST PUSH1 0xFF AND PUSH1 0x1A DUP2 LT PUSH3 0x21B6 JUMPI PUSH3 0x21B6 PUSH3 0x2EE1 JUMP JUMPDEST PUSH1 0x20 MUL ADD DUP1 MLOAD SWAP1 PUSH3 0x21C8 DUP3 PUSH3 0x3083 JUMP JUMPDEST SWAP1 MSTORE POP PUSH1 0x2 DUP3 DUP3 PUSH1 0x5 DUP2 LT PUSH3 0x21E2 JUMPI PUSH3 0x21E2 PUSH3 0x2EE1 JUMP JUMPDEST PUSH1 0x20 MUL ADD SWAP1 PUSH1 0x2 DUP2 GT ISZERO PUSH3 0x21FB JUMPI PUSH3 0x21FB PUSH3 0x2C87 JUMP JUMPDEST SWAP1 DUP2 PUSH1 0x2 DUP2 GT ISZERO PUSH3 0x2211 JUMPI PUSH3 0x2211 PUSH3 0x2C87 JUMP JUMPDEST SWAP1 MSTORE POP DUP1 PUSH3 0x2220 DUP2 PUSH3 0x2F76 JUMP JUMPDEST SWAP2 POP POP PUSH3 0x2167 JUMP JUMPDEST POP PUSH1 0x0 JUMPDEST PUSH1 0x5 DUP2 LT ISZERO PUSH3 0x2330 JUMPI DUP3 DUP2 DUP2 MLOAD DUP2 LT PUSH3 0x224C JUMPI PUSH3 0x224C PUSH3 0x2EE1 JUMP JUMPDEST PUSH1 0x20 ADD ADD MLOAD PUSH1 0xF8 SHR PUSH1 0xF8 SHL PUSH1 0x1 PUSH1 0x1 PUSH1 0xF8 SHL SUB NOT AND DUP5 DUP3 DUP2 MLOAD DUP2 LT PUSH3 0x2276 JUMPI PUSH3 0x2276 PUSH3 0x2EE1 JUMP JUMPDEST ADD PUSH1 0x20 ADD MLOAD PUSH1 0x1 PUSH1 0x1 PUSH1 0xF8 SHL SUB NOT AND SUB PUSH3 0x231B JUMPI PUSH1 0x0 DUP3 DUP3 PUSH1 0x5 DUP2 LT PUSH3 0x22A2 JUMPI PUSH3 0x22A2 PUSH3 0x2EE1 JUMP JUMPDEST PUSH1 0x20 MUL ADD SWAP1 PUSH1 0x2 DUP2 GT ISZERO PUSH3 0x22BB JUMPI PUSH3 0x22BB PUSH3 0x2C87 JUMP JUMPDEST SWAP1 DUP2 PUSH1 0x2 DUP2 GT ISZERO PUSH3 0x22D1 JUMPI PUSH3 0x22D1 PUSH3 0x2C87 JUMP JUMPDEST DUP2 MSTORE POP POP DUP5 PUSH3 0x22EF DUP6 DUP4 DUP2 MLOAD DUP2 LT PUSH3 0x218B JUMPI PUSH3 0x218B PUSH3 0x2EE1 JUMP JUMPDEST PUSH1 0xFF AND PUSH1 0x1A DUP2 LT PUSH3 0x2305 JUMPI PUSH3 0x2305 PUSH3 0x2EE1 JUMP JUMPDEST PUSH1 0x20 MUL ADD DUP1 MLOAD SWAP1 PUSH3 0x2317 DUP3 PUSH3 0x309E JUMP JUMPDEST SWAP1 MSTORE POP JUMPDEST DUP1 PUSH3 0x2327 DUP2 PUSH3 0x2F76 JUMP JUMPDEST SWAP2 POP POP PUSH3 0x222D JUMP JUMPDEST POP PUSH1 0x0 JUMPDEST PUSH1 0x5 DUP2 LT ISZERO PUSH3 0x2457 JUMPI PUSH1 0x0 DUP3 DUP3 PUSH1 0x5 DUP2 LT PUSH3 0x2355 JUMPI PUSH3 0x2355 PUSH3 0x2EE1 JUMP JUMPDEST PUSH1 0x20 MUL ADD MLOAD PUSH1 0x2 DUP2 GT ISZERO PUSH3 0x236E JUMPI PUSH3 0x236E PUSH3 0x2C87 JUMP JUMPDEST EQ PUSH3 0x2442 JUMPI PUSH1 0x0 DUP6 PUSH3 0x2390 DUP6 DUP5 DUP2 MLOAD DUP2 LT PUSH3 0x218B JUMPI PUSH3 0x218B PUSH3 0x2EE1 JUMP JUMPDEST PUSH1 0xFF AND PUSH1 0x1A DUP2 LT PUSH3 0x23A6 JUMPI PUSH3 0x23A6 PUSH3 0x2EE1 JUMP JUMPDEST PUSH1 0x20 MUL ADD MLOAD SGT ISZERO PUSH3 0x2442 JUMPI PUSH1 0x1 DUP3 DUP3 PUSH1 0x5 DUP2 LT PUSH3 0x23C9 JUMPI PUSH3 0x23C9 PUSH3 0x2EE1 JUMP JUMPDEST PUSH1 0x20 MUL ADD SWAP1 PUSH1 0x2 DUP2 GT ISZERO PUSH3 0x23E2 JUMPI PUSH3 0x23E2 PUSH3 0x2C87 JUMP JUMPDEST SWAP1 DUP2 PUSH1 0x2 DUP2 GT ISZERO PUSH3 0x23F8 JUMPI PUSH3 0x23F8 PUSH3 0x2C87 JUMP JUMPDEST DUP2 MSTORE POP POP DUP5 PUSH3 0x2416 DUP5 DUP4 DUP2 MLOAD DUP2 LT PUSH3 0x218B JUMPI PUSH3 0x218B PUSH3 0x2EE1 JUMP JUMPDEST PUSH1 0xFF AND PUSH1 0x1A DUP2 LT PUSH3 0x242C JUMPI PUSH3 0x242C PUSH3 0x2EE1 JUMP JUMPDEST PUSH1 0x20 MUL ADD DUP1 MLOAD SWAP1 PUSH3 0x243E DUP3 PUSH3 0x309E JUMP JUMPDEST SWAP1 MSTORE POP JUMPDEST DUP1 PUSH3 0x244E DUP2 PUSH3 0x2F76 JUMP JUMPDEST SWAP2 POP POP PUSH3 0x2334 JUMP JUMPDEST POP SWAP7 SWAP6 POP POP POP POP POP POP JUMP JUMPDEST DUP1 MLOAD PUSH1 0x0 SWAP1 DUP2 SWAP1 PUSH1 0x2 DUP2 GT ISZERO PUSH3 0x247D JUMPI PUSH3 0x247D PUSH3 0x2C87 JUMP JUMPDEST EQ DUP1 ISZERO PUSH3 0x24A4 JUMPI POP PUSH1 0x20 DUP3 ADD MLOAD PUSH1 0x0 SWAP1 PUSH1 0x2 DUP2 GT ISZERO PUSH3 0x24A2 JUMPI PUSH3 0x24A2 PUSH3 0x2C87 JUMP JUMPDEST EQ JUMPDEST DUP1 ISZERO PUSH3 0x24CA JUMPI POP PUSH1 0x40 DUP3 ADD MLOAD PUSH1 0x0 SWAP1 PUSH1 0x2 DUP2 GT ISZERO PUSH3 0x24C8 JUMPI PUSH3 0x24C8 PUSH3 0x2C87 JUMP JUMPDEST EQ JUMPDEST DUP1 ISZERO PUSH3 0x24F0 JUMPI POP PUSH1 0x60 DUP3 ADD MLOAD PUSH1 0x0 SWAP1 PUSH1 0x2 DUP2 GT ISZERO PUSH3 0x24EE JUMPI PUSH3 0x24EE PUSH3 0x2C87 JUMP JUMPDEST EQ JUMPDEST DUP1 ISZERO PUSH3 0x12F8 JUMPI POP PUSH1 0x80 DUP3 ADD MLOAD PUSH1 0x0 SWAP1 PUSH1 0x2 DUP2 GT ISZERO PUSH3 0x2514 JUMPI PUSH3 0x2514 PUSH3 0x2C87 JUMP JUMPDEST EQ SWAP3 SWAP2 POP POP JUMP JUMPDEST PUSH1 0x0 DUP1 JUMPDEST PUSH1 0x5 DUP2 LT ISZERO PUSH3 0x25AB JUMPI DUP3 DUP2 PUSH1 0x5 DUP2 LT PUSH3 0x253E JUMPI PUSH3 0x253E PUSH3 0x2EE1 JUMP JUMPDEST PUSH1 0x20 MUL ADD MLOAD PUSH1 0x2 DUP2 GT ISZERO PUSH3 0x2557 JUMPI PUSH3 0x2557 PUSH3 0x2C87 JUMP JUMPDEST DUP5 DUP3 PUSH1 0x5 DUP2 LT PUSH3 0x256C JUMPI PUSH3 0x256C PUSH3 0x2EE1 JUMP JUMPDEST PUSH1 0x20 MUL ADD MLOAD PUSH1 0x2 DUP2 GT ISZERO PUSH3 0x2585 JUMPI PUSH3 0x2585 PUSH3 0x2C87 JUMP JUMPDEST EQ PUSH3 0x2596 JUMPI PUSH1 0x0 SWAP2 POP POP PUSH3 0x12F8 JUMP JUMPDEST DUP1 PUSH3 0x25A2 DUP2 PUSH3 0x2F76 JUMP JUMPDEST SWAP2 POP POP PUSH3 0x251F JUMP JUMPDEST POP PUSH1 0x1 SWAP4 SWAP3 POP POP POP JUMP JUMPDEST PUSH1 0x0 DUP1 SLOAD PUSH1 0x1 PUSH1 0x1 PUSH1 0xA0 SHL SUB DUP4 DUP2 AND PUSH1 0x1 PUSH1 0x1 PUSH1 0xA0 SHL SUB NOT DUP4 AND DUP2 OR DUP5 SSTORE PUSH1 0x40 MLOAD SWAP2 SWAP1 SWAP3 AND SWAP3 DUP4 SWAP2 PUSH32 0x8BE0079C531659141344CD1FD0A4F28419497F9722A3DAAFE3B4186F6B6457E0 SWAP2 SWAP1 LOG3 POP POP JUMP JUMPDEST PUSH1 0x1 PUSH1 0x1 PUSH1 0xA0 SHL SUB DUP2 AND PUSH1 0x0 SWAP1 DUP2 MSTORE PUSH1 0xC PUSH1 0x20 SWAP1 DUP2 MSTORE PUSH1 0x40 DUP1 DUP4 KECCAK256 DUP1 SLOAD PUSH1 0xFF NOT SWAP1 DUP2 AND SWAP1 SWAP2 SSTORE PUSH1 0x8 DUP4 MSTORE DUP2 DUP5 KECCAK256 DUP5 SWAP1 SSTORE PUSH1 0x9 DUP4 MSTORE DUP2 DUP5 KECCAK256 DUP1 SLOAD DUP3 AND SWAP1 SSTORE PUSH1 0x11 DUP4 MSTORE DUP2 DUP5 KECCAK256 DUP1 SLOAD SWAP1 SWAP2 AND SWAP1 SSTORE PUSH1 0xA SWAP1 SWAP2 MSTORE DUP2 KECCAK256 PUSH3 0x2662 SWAP2 PUSH3 0x29B5 JUMP JUMPDEST PUSH1 0x1 PUSH1 0x1 PUSH1 0xA0 SHL SUB DUP2 AND PUSH1 0x0 SWAP1 DUP2 MSTORE PUSH1 0x10 PUSH1 0x20 MSTORE PUSH1 0x40 DUP2 KECCAK256 PUSH3 0x1F73 SWAP2 PUSH3 0x29C6 JUMP JUMPDEST PUSH1 0x0 PUSH1 0x5 DUP3 EQ PUSH3 0x2699 JUMPI POP PUSH1 0x0 PUSH3 0x12F8 JUMP JUMPDEST PUSH1 0x0 JUMPDEST PUSH1 0x5 DUP2 LT ISZERO PUSH3 0x26FB JUMPI PUSH1 0x19 PUSH3 0x26D1 DUP6 DUP6 DUP5 DUP2 DUP2 LT PUSH3 0x26C1 JUMPI PUSH3 0x26C1 PUSH3 0x2EE1 JUMP JUMPDEST SWAP1 POP ADD CALLDATALOAD PUSH1 0xF8 SHR PUSH1 0xF8 SHL PUSH3 0x272B JUMP JUMPDEST PUSH1 0xFF AND GT ISZERO PUSH3 0x26E6 JUMPI PUSH1 0x0 SWAP2 POP POP PUSH3 0x12F8 JUMP JUMPDEST DUP1 PUSH3 0x26F2 DUP2 PUSH3 0x2F76 JUMP JUMPDEST SWAP2 POP POP PUSH3 0x269C JUMP JUMPDEST POP PUSH1 0x14 DUP4 DUP4 PUSH1 0x40 MLOAD PUSH3 0x2710 SWAP3 SWAP2 SWAP1 PUSH3 0x30BE JUMP JUMPDEST SWAP1 DUP2 MSTORE PUSH1 0x40 MLOAD SWAP1 DUP2 SWAP1 SUB PUSH1 0x20 ADD SWAP1 KECCAK256 SLOAD PUSH1 0xFF AND SWAP1 POP SWAP3 SWAP2 POP POP JUMP JUMPDEST PUSH1 0x0 PUSH1 0xF8 DUP3 SWAP1 SHR PUSH1 0x41 GT ISZERO PUSH3 0x2743 JUMPI POP PUSH1 0xFF SWAP2 SWAP1 POP JUMP JUMPDEST PUSH3 0x12F8 PUSH1 0x41 PUSH1 0xF8 DUP5 SWAP1 SHR PUSH3 0x30CE JUMP JUMPDEST PUSH1 0x40 MLOAD DUP1 PUSH1 0xA0 ADD PUSH1 0x40 MSTORE DUP1 PUSH1 0x5 SWAP1 PUSH1 0x20 DUP3 MUL DUP1 CALLDATASIZE DUP4 CALLDATACOPY POP SWAP2 SWAP3 SWAP2 POP POP JUMP JUMPDEST PUSH1 0x1 DUP4 ADD SWAP2 DUP4 SWAP1 DUP3 ISZERO PUSH3 0x280B JUMPI SWAP2 PUSH1 0x20 MUL DUP3 ADD PUSH1 0x0 JUMPDEST DUP4 DUP3 GT ISZERO PUSH3 0x27DA JUMPI DUP4 MLOAD DUP4 DUP3 PUSH2 0x100 EXP DUP2 SLOAD DUP2 PUSH1 0xFF MUL NOT AND SWAP1 DUP4 PUSH1 0x2 DUP2 GT ISZERO PUSH3 0x27B8 JUMPI PUSH3 0x27B8 PUSH3 0x2C87 JUMP JUMPDEST MUL OR SWAP1 SSTORE POP SWAP3 PUSH1 0x20 ADD SWAP3 PUSH1 0x1 ADD PUSH1 0x20 DUP2 PUSH1 0x0 ADD DIV SWAP3 DUP4 ADD SWAP3 PUSH1 0x1 SUB MUL PUSH3 0x2789 JUMP JUMPDEST DUP1 ISZERO PUSH3 0x2809 JUMPI DUP3 DUP2 PUSH2 0x100 EXP DUP2 SLOAD SWAP1 PUSH1 0xFF MUL NOT AND SWAP1 SSTORE PUSH1 0x1 ADD PUSH1 0x20 DUP2 PUSH1 0x0 ADD DIV SWAP3 DUP4 ADD SWAP3 PUSH1 0x1 SUB MUL PUSH3 0x27DA JUMP JUMPDEST POP JUMPDEST POP PUSH3 0x2819 SWAP3 SWAP2 POP PUSH3 0x29E6 JUMP JUMPDEST POP SWAP1 JUMP JUMPDEST DUP3 DUP1 SLOAD DUP3 DUP3 SSTORE SWAP1 PUSH1 0x0 MSTORE PUSH1 0x20 PUSH1 0x0 KECCAK256 SWAP1 DUP2 ADD SWAP3 DUP3 ISZERO PUSH3 0x286F JUMPI SWAP2 PUSH1 0x20 MUL DUP3 ADD JUMPDEST DUP3 DUP2 GT ISZERO PUSH3 0x286F JUMPI DUP3 MLOAD DUP1 MLOAD PUSH3 0x285E SWAP2 DUP5 SWAP2 PUSH1 0x20 SWAP1 SWAP2 ADD SWAP1 PUSH3 0x29FD JUMP JUMPDEST POP SWAP2 PUSH1 0x20 ADD SWAP2 SWAP1 PUSH1 0x1 ADD SWAP1 PUSH3 0x283E JUMP JUMPDEST POP PUSH3 0x2819 SWAP3 SWAP2 POP PUSH3 0x2A7A JUMP JUMPDEST DUP3 DUP1 SLOAD DUP3 DUP3 SSTORE SWAP1 PUSH1 0x0 MSTORE PUSH1 0x20 PUSH1 0x0 KECCAK256 SWAP1 DUP2 ADD SWAP3 DUP3 ISZERO PUSH3 0x286F JUMPI PUSH1 0x0 MSTORE PUSH1 0x20 PUSH1 0x0 KECCAK256 SWAP2 DUP3 ADD JUMPDEST DUP3 DUP2 GT ISZERO PUSH3 0x286F JUMPI DUP3 DUP3 SWAP1 DUP1 SLOAD PUSH3 0x28BC SWAP1 PUSH3 0x2EF7 JUMP JUMPDEST PUSH3 0x28C9 SWAP3 SWAP2 SWAP1 PUSH3 0x2A9B JUMP JUMPDEST POP SWAP2 PUSH1 0x1 ADD SWAP2 SWAP1 PUSH1 0x1 ADD SWAP1 PUSH3 0x28A3 JUMP JUMPDEST PUSH2 0x1160 DUP1 PUSH3 0x30F5 DUP4 CODECOPY ADD SWAP1 JUMP JUMPDEST POP DUP1 SLOAD PUSH1 0x0 DUP3 SSTORE SWAP1 PUSH1 0x0 MSTORE PUSH1 0x20 PUSH1 0x0 KECCAK256 SWAP1 DUP2 ADD SWAP1 PUSH3 0x1F73 SWAP2 SWAP1 PUSH3 0x29E6 JUMP JUMPDEST POP PUSH3 0x1F73 SWAP1 PUSH1 0x7 DUP2 ADD SWAP1 PUSH3 0x29E6 JUMP JUMPDEST DUP3 DUP1 SLOAD PUSH3 0x2927 SWAP1 PUSH3 0x2EF7 JUMP JUMPDEST SWAP1 PUSH1 0x0 MSTORE PUSH1 0x20 PUSH1 0x0 KECCAK256 SWAP1 PUSH1 0x1F ADD PUSH1 0x20 SWAP1 DIV DUP2 ADD SWAP3 DUP3 PUSH3 0x294B JUMPI PUSH1 0x0 DUP6 SSTORE PUSH3 0x280B JUMP JUMPDEST DUP3 PUSH1 0x1F LT PUSH3 0x2966 JUMPI DUP3 DUP1 ADD PUSH1 0xFF NOT DUP3 CALLDATALOAD AND OR DUP6 SSTORE PUSH3 0x280B JUMP JUMPDEST DUP3 DUP1 ADD PUSH1 0x1 ADD DUP6 SSTORE DUP3 ISZERO PUSH3 0x280B JUMPI SWAP2 DUP3 ADD JUMPDEST DUP3 DUP2 GT ISZERO PUSH3 0x280B JUMPI DUP3 CALLDATALOAD DUP3 SSTORE SWAP2 PUSH1 0x20 ADD SWAP2 SWAP1 PUSH1 0x1 ADD SWAP1 PUSH3 0x2979 JUMP JUMPDEST PUSH1 0x40 MLOAD DUP1 PUSH2 0x340 ADD PUSH1 0x40 MSTORE DUP1 PUSH1 0x1A SWAP1 PUSH1 0x20 DUP3 MUL DUP1 CALLDATASIZE DUP4 CALLDATACOPY POP SWAP2 SWAP3 SWAP2 POP POP JUMP JUMPDEST POP PUSH3 0x1F73 SWAP1 PUSH1 0x6 DUP2 ADD SWAP1 PUSH3 0x29E7 JUMP JUMPDEST POP DUP1 SLOAD PUSH1 0x0 DUP3 SSTORE SWAP1 PUSH1 0x0 MSTORE PUSH1 0x20 PUSH1 0x0 KECCAK256 SWAP1 DUP2 ADD SWAP1 PUSH3 0x1F73 SWAP2 SWAP1 PUSH3 0x2A7A JUMP JUMPDEST JUMPDEST DUP1 DUP3 GT ISZERO PUSH3 0x2819 JUMPI PUSH1 0x0 DUP2 SSTORE PUSH1 0x1 ADD PUSH3 0x29E7 JUMP JUMPDEST DUP3 DUP1 SLOAD PUSH3 0x2A0B SWAP1 PUSH3 0x2EF7 JUMP JUMPDEST SWAP1 PUSH1 0x0 MSTORE PUSH1 0x20 PUSH1 0x0 KECCAK256 SWAP1 PUSH1 0x1F ADD PUSH1 0x20 SWAP1 DIV DUP2 ADD SWAP3 DUP3 PUSH3 0x2A2F JUMPI PUSH1 0x0 DUP6 SSTORE PUSH3 0x280B JUMP JUMPDEST DUP3 PUSH1 0x1F LT PUSH3 0x2A4A JUMPI DUP1 MLOAD PUSH1 0xFF NOT AND DUP4 DUP1 ADD OR DUP6 SSTORE PUSH3 0x280B JUMP JUMPDEST DUP3 DUP1 ADD PUSH1 0x1 ADD DUP6 SSTORE DUP3 ISZERO PUSH3 0x280B JUMPI SWAP2 DUP3 ADD JUMPDEST DUP3 DUP2 GT ISZERO PUSH3 0x280B JUMPI DUP3 MLOAD DUP3 SSTORE SWAP2 PUSH1 0x20 ADD SWAP2 SWAP1 PUSH1 0x1 ADD SWAP1 PUSH3 0x2A5D JUMP JUMPDEST DUP1 DUP3 GT ISZERO PUSH3 0x2819 JUMPI PUSH1 0x0 PUSH3 0x2A91 DUP3 DUP3 PUSH3 0x2B1F JUMP JUMPDEST POP PUSH1 0x1 ADD PUSH3 0x2A7A JUMP JUMPDEST DUP3 DUP1 SLOAD PUSH3 0x2AA9 SWAP1 PUSH3 0x2EF7 JUMP JUMPDEST SWAP1 PUSH1 0x0 MSTORE PUSH1 0x20 PUSH1 0x0 KECCAK256 SWAP1 PUSH1 0x1F ADD PUSH1 0x20 SWAP1 DIV DUP2 ADD SWAP3 DUP3 PUSH3 0x2ACD JUMPI PUSH1 0x0 DUP6 SSTORE PUSH3 0x280B JUMP JUMPDEST DUP3 PUSH1 0x1F LT PUSH3 0x2AE0 JUMPI DUP1 SLOAD DUP6 SSTORE PUSH3 0x280B JUMP JUMPDEST DUP3 DUP1 ADD PUSH1 0x1 ADD DUP6 SSTORE DUP3 ISZERO PUSH3 0x280B JUMPI PUSH1 0x0 MSTORE PUSH1 0x20 PUSH1 0x0 KECCAK256 SWAP2 PUSH1 0x1F ADD PUSH1 0x20 SWAP1 DIV DUP3 ADD JUMPDEST DUP3 DUP2 GT ISZERO PUSH3 0x280B JUMPI DUP3 SLOAD DUP3 SSTORE SWAP2 PUSH1 0x1 ADD SWAP2 SWAP1 PUSH1 0x1 ADD SWAP1 PUSH3 0x2B02 JUMP JUMPDEST POP DUP1 SLOAD PUSH3 0x2B2D SWAP1 PUSH3 0x2EF7 JUMP JUMPDEST PUSH1 0x0 DUP3 SSTORE DUP1 PUSH1 0x1F LT PUSH3 0x2B3E JUMPI POP POP JUMP JUMPDEST PUSH1 0x1F ADD PUSH1 0x20 SWAP1 DIV SWAP1 PUSH1 0x0 MSTORE PUSH1 0x20 PUSH1 0x0 KECCAK256 SWAP1 DUP2 ADD SWAP1 PUSH3 0x1F73 SWAP2 SWAP1 PUSH3 0x29E6 JUMP JUMPDEST DUP1 CALLDATALOAD PUSH1 0x1 PUSH1 0x1 PUSH1 0xA0 SHL SUB DUP2 AND DUP2 EQ PUSH3 0x10AB JUMPI PUSH1 0x0 DUP1 REVERT JUMPDEST PUSH1 0x0 PUSH1 0x20 DUP3 DUP5 SUB SLT ISZERO PUSH3 0x2B89 JUMPI PUSH1 0x0 DUP1 REVERT JUMPDEST PUSH3 0x2B94 DUP3 PUSH3 0x2B5E JUMP JUMPDEST SWAP4 SWAP3 POP POP POP JUMP JUMPDEST PUSH4 0x4E487B71 PUSH1 0xE0 SHL PUSH1 0x0 MSTORE PUSH1 0x41 PUSH1 0x4 MSTORE PUSH1 0x24 PUSH1 0x0 REVERT JUMPDEST PUSH1 0x0 DUP1 PUSH1 0x40 DUP4 DUP6 SUB SLT ISZERO PUSH3 0x2BC5 JUMPI PUSH1 0x0 DUP1 REVERT JUMPDEST DUP3 CALLDATALOAD SWAP2 POP PUSH1 0x20 DUP1 DUP5 ADD CALLDATALOAD PUSH8 0xFFFFFFFFFFFFFFFF DUP1 DUP3 GT ISZERO PUSH3 0x2BE6 JUMPI PUSH1 0x0 DUP1 REVERT JUMPDEST DUP2 DUP7 ADD SWAP2 POP DUP7 PUSH1 0x1F DUP4 ADD SLT PUSH3 0x2BFB JUMPI PUSH1 0x0 DUP1 REVERT JUMPDEST DUP2 CALLDATALOAD DUP2 DUP2 GT ISZERO PUSH3 0x2C10 JUMPI PUSH3 0x2C10 PUSH3 0x2B9B JUMP JUMPDEST DUP1 PUSH1 0x5 SHL PUSH1 0x40 MLOAD PUSH1 0x1F NOT PUSH1 0x3F DUP4 ADD AND DUP2 ADD DUP2 DUP2 LT DUP6 DUP3 GT OR ISZERO PUSH3 0x2C38 JUMPI PUSH3 0x2C38 PUSH3 0x2B9B JUMP JUMPDEST PUSH1 0x40 MSTORE SWAP2 DUP3 MSTORE DUP5 DUP3 ADD SWAP3 POP DUP4 DUP2 ADD DUP6 ADD SWAP2 DUP10 DUP4 GT ISZERO PUSH3 0x2C57 JUMPI PUSH1 0x0 DUP1 REVERT JUMPDEST SWAP4 DUP6 ADD SWAP4 JUMPDEST DUP3 DUP6 LT ISZERO PUSH3 0x2C77 JUMPI DUP5 CALLDATALOAD DUP5 MSTORE SWAP4 DUP6 ADD SWAP4 SWAP3 DUP6 ADD SWAP3 PUSH3 0x2C5C JUMP JUMPDEST DUP1 SWAP7 POP POP POP POP POP POP POP SWAP3 POP SWAP3 SWAP1 POP JUMP JUMPDEST PUSH4 0x4E487B71 PUSH1 0xE0 SHL PUSH1 0x0 MSTORE PUSH1 0x21 PUSH1 0x4 MSTORE PUSH1 0x24 PUSH1 0x0 REVERT JUMPDEST PUSH1 0x20 DUP2 ADD PUSH1 0x2 DUP4 LT PUSH3 0x2CB4 JUMPI PUSH3 0x2CB4 PUSH3 0x2C87 JUMP JUMPDEST SWAP2 SWAP1 MSTORE SWAP1 JUMP JUMPDEST PUSH1 0x3 DUP2 LT PUSH3 0x1F73 JUMPI PUSH3 0x1F73 PUSH3 0x2C87 JUMP JUMPDEST PUSH1 0x20 DUP2 ADD PUSH3 0x2CB4 DUP4 PUSH3 0x2CBA JUMP JUMPDEST PUSH1 0xA0 DUP2 ADD DUP2 DUP4 PUSH1 0x0 JUMPDEST PUSH1 0x5 DUP2 LT ISZERO PUSH3 0x2D12 JUMPI DUP2 MLOAD PUSH3 0x2CFC DUP2 PUSH3 0x2CBA JUMP JUMPDEST DUP4 MSTORE PUSH1 0x20 SWAP3 DUP4 ADD SWAP3 SWAP2 SWAP1 SWAP2 ADD SWAP1 PUSH1 0x1 ADD PUSH3 0x2CE5 JUMP JUMPDEST POP POP POP SWAP3 SWAP2 POP POP JUMP JUMPDEST PUSH1 0x0 PUSH1 0x20 DUP3 DUP5 SUB SLT ISZERO PUSH3 0x2D2E JUMPI PUSH1 0x0 DUP1 REVERT JUMPDEST POP CALLDATALOAD SWAP2 SWAP1 POP JUMP JUMPDEST PUSH1 0x0 PUSH1 0x20 DUP1 DUP4 MSTORE DUP4 MLOAD DUP1 DUP3 DUP6 ADD MSTORE PUSH1 0x0 JUMPDEST DUP2 DUP2 LT ISZERO PUSH3 0x2D64 JUMPI DUP6 DUP2 ADD DUP4 ADD MLOAD DUP6 DUP3 ADD PUSH1 0x40 ADD MSTORE DUP3 ADD PUSH3 0x2D46 JUMP JUMPDEST DUP2 DUP2 GT ISZERO PUSH3 0x2D77 JUMPI PUSH1 0x0 PUSH1 0x40 DUP4 DUP8 ADD ADD MSTORE JUMPDEST POP PUSH1 0x1F ADD PUSH1 0x1F NOT AND SWAP3 SWAP1 SWAP3 ADD PUSH1 0x40 ADD SWAP4 SWAP3 POP POP POP JUMP JUMPDEST PUSH1 0x0 DUP1 PUSH1 0x40 DUP4 DUP6 SUB SLT ISZERO PUSH3 0x2DA1 JUMPI PUSH1 0x0 DUP1 REVERT JUMPDEST PUSH3 0x2DAC DUP4 PUSH3 0x2B5E JUMP JUMPDEST SWAP5 PUSH1 0x20 SWAP4 SWAP1 SWAP4 ADD CALLDATALOAD SWAP4 POP POP POP JUMP JUMPDEST PUSH1 0x0 DUP1 PUSH1 0x0 PUSH1 0x60 DUP5 DUP7 SUB SLT ISZERO PUSH3 0x2DD0 JUMPI PUSH1 0x0 DUP1 REVERT JUMPDEST PUSH3 0x2DDB DUP5 PUSH3 0x2B5E JUMP JUMPDEST SWAP6 PUSH1 0x20 DUP6 ADD CALLDATALOAD SWAP6 POP PUSH1 0x40 SWAP1 SWAP5 ADD CALLDATALOAD SWAP4 SWAP3 POP POP POP JUMP JUMPDEST PUSH1 0x0 DUP1 PUSH1 0x20 DUP4 DUP6 SUB SLT ISZERO PUSH3 0x2E04 JUMPI PUSH1 0x0 DUP1 REVERT JUMPDEST DUP3 CALLDATALOAD PUSH8 0xFFFFFFFFFFFFFFFF DUP1 DUP3 GT ISZERO PUSH3 0x2E1D JUMPI PUSH1 0x0 DUP1 REVERT JUMPDEST DUP2 DUP6 ADD SWAP2 POP DUP6 PUSH1 0x1F DUP4 ADD SLT PUSH3 0x2E32 JUMPI PUSH1 0x0 DUP1 REVERT JUMPDEST DUP2 CALLDATALOAD DUP2 DUP2 GT ISZERO PUSH3 0x2E42 JUMPI PUSH1 0x0 DUP1 REVERT JUMPDEST DUP7 PUSH1 0x20 DUP3 DUP6 ADD ADD GT ISZERO PUSH3 0x2E55 JUMPI PUSH1 0x0 DUP1 REVERT JUMPDEST PUSH1 0x20 SWAP3 SWAP1 SWAP3 ADD SWAP7 SWAP2 SWAP6 POP SWAP1 SWAP4 POP POP POP POP JUMP JUMPDEST PUSH1 0x20 DUP1 DUP3 MSTORE DUP2 DUP2 ADD MSTORE PUSH32 0x4F776E61626C653A2063616C6C6572206973206E6F7420746865206F776E6572 PUSH1 0x40 DUP3 ADD MSTORE PUSH1 0x60 ADD SWAP1 JUMP JUMPDEST PUSH1 0x20 DUP1 DUP3 MSTORE PUSH1 0x25 SWAP1 DUP3 ADD MSTORE PUSH32 0x4572726F723A2045585045435445442047616D6553746174652E494E5F50524F PUSH1 0x40 DUP3 ADD MSTORE PUSH5 0x4752455353 PUSH1 0xD8 SHL PUSH1 0x60 DUP3 ADD MSTORE PUSH1 0x80 ADD SWAP1 JUMP JUMPDEST PUSH4 0x4E487B71 PUSH1 0xE0 SHL PUSH1 0x0 MSTORE PUSH1 0x32 PUSH1 0x4 MSTORE PUSH1 0x24 PUSH1 0x0 REVERT JUMPDEST PUSH1 0x1 DUP2 DUP2 SHR SWAP1 DUP3 AND DUP1 PUSH3 0x2F0C JUMPI PUSH1 0x7F DUP3 AND SWAP2 POP JUMPDEST PUSH1 0x20 DUP3 LT DUP2 SUB PUSH3 0x2F2D JUMPI PUSH4 0x4E487B71 PUSH1 0xE0 SHL PUSH1 0x0 MSTORE PUSH1 0x22 PUSH1 0x4 MSTORE PUSH1 0x24 PUSH1 0x0 REVERT JUMPDEST POP SWAP2 SWAP1 POP JUMP JUMPDEST PUSH4 0x4E487B71 PUSH1 0xE0 SHL PUSH1 0x0 MSTORE PUSH1 0x12 PUSH1 0x4 MSTORE PUSH1 0x24 PUSH1 0x0 REVERT JUMPDEST PUSH1 0x0 DUP3 PUSH3 0x2F5B JUMPI PUSH3 0x2F5B PUSH3 0x2F33 JUMP JUMPDEST POP MOD SWAP1 JUMP JUMPDEST PUSH4 0x4E487B71 PUSH1 0xE0 SHL PUSH1 0x0 MSTORE PUSH1 0x11 PUSH1 0x4 MSTORE PUSH1 0x24 PUSH1 0x0 REVERT JUMPDEST PUSH1 0x0 PUSH1 0x1 DUP3 ADD PUSH3 0x2F8B JUMPI PUSH3 0x2F8B PUSH3 0x2F60 JUMP JUMPDEST POP PUSH1 0x1 ADD SWAP1 JUMP JUMPDEST PUSH1 0x0 DUP2 PUSH1 0x0 NOT DIV DUP4 GT DUP3 ISZERO ISZERO AND ISZERO PUSH3 0x2FAF JUMPI PUSH3 0x2FAF PUSH3 0x2F60 JUMP JUMPDEST POP MUL SWAP1 JUMP JUMPDEST PUSH1 0x0 DUP3 PUSH3 0x2FC6 JUMPI PUSH3 0x2FC6 PUSH3 0x2F33 JUMP JUMPDEST POP DIV SWAP1 JUMP JUMPDEST PUSH1 0x40 DUP1 DUP3 MSTORE DUP4 MLOAD SWAP1 DUP3 ADD DUP2 SWAP1 MSTORE PUSH1 0x0 SWAP1 PUSH1 0x20 SWAP1 PUSH1 0x60 DUP5 ADD SWAP1 DUP3 DUP8 ADD DUP5 JUMPDEST DUP3 DUP2 LT ISZERO PUSH3 0x300F JUMPI DUP2 MLOAD PUSH1 0x1 PUSH1 0x1 PUSH1 0xA0 SHL SUB AND DUP5 MSTORE SWAP3 DUP5 ADD SWAP3 SWAP1 DUP5 ADD SWAP1 PUSH1 0x1 ADD PUSH3 0x2FE8 JUMP JUMPDEST POP POP POP DUP4 DUP2 SUB DUP3 DUP6 ADD MSTORE DUP5 MLOAD DUP1 DUP3 MSTORE DUP6 DUP4 ADD SWAP2 DUP4 ADD SWAP1 PUSH1 0x0 JUMPDEST DUP2 DUP2 LT ISZERO PUSH3 0x3046 JUMPI DUP4 MLOAD DUP4 MSTORE SWAP3 DUP5 ADD SWAP3 SWAP2 DUP5 ADD SWAP2 PUSH1 0x1 ADD PUSH3 0x3028 JUMP JUMPDEST POP SWAP1 SWAP8 SWAP7 POP POP POP POP POP POP POP JUMP JUMPDEST PUSH4 0x4E487B71 PUSH1 0xE0 SHL PUSH1 0x0 MSTORE PUSH1 0x1 PUSH1 0x4 MSTORE PUSH1 0x24 PUSH1 0x0 REVERT JUMPDEST PUSH1 0x0 PUSH1 0x20 DUP3 DUP5 SUB SLT ISZERO PUSH3 0x307C JUMPI PUSH1 0x0 DUP1 REVERT JUMPDEST POP MLOAD SWAP2 SWAP1 POP JUMP JUMPDEST PUSH1 0x0 PUSH1 0x1 PUSH1 0x1 PUSH1 0xFF SHL ADD DUP3 ADD PUSH3 0x2F8B JUMPI PUSH3 0x2F8B PUSH3 0x2F60 JUMP JUMPDEST PUSH1 0x0 PUSH1 0x1 PUSH1 0xFF SHL DUP3 ADD PUSH3 0x30B6 JUMPI PUSH3 0x30B6 PUSH3 0x2F60 JUMP JUMPDEST POP PUSH1 0x0 NOT ADD SWAP1 JUMP JUMPDEST DUP2 DUP4 DUP3 CALLDATACOPY PUSH1 0x0 SWAP2 ADD SWAP1 DUP2 MSTORE SWAP2 SWAP1 POP JUMP JUMPDEST PUSH1 0x0 PUSH1 0xFF DUP3 AND PUSH1 0xFF DUP5 AND DUP1 DUP3 LT ISZERO PUSH3 0x30EB JUMPI PUSH3 0x30EB PUSH3 0x2F60 JUMP JUMPDEST SWAP1 SUB SWAP4 SWAP3 POP POP POP JUMP INVALID PUSH1 0x80 PUSH1 0x40 MSTORE PUSH1 0x40 MLOAD PUSH3 0x1160 CODESIZE SUB DUP1 PUSH3 0x1160 DUP4 CODECOPY DUP2 ADD PUSH1 0x40 DUP2 SWAP1 MSTORE PUSH3 0x26 SWAP2 PUSH3 0x42E JUMP JUMPDEST DUP1 MLOAD DUP3 MLOAD EQ PUSH3 0x98 JUMPI PUSH1 0x40 MLOAD PUSH3 0x461BCD PUSH1 0xE5 SHL DUP2 MSTORE PUSH1 0x20 PUSH1 0x4 DUP3 ADD MSTORE PUSH1 0x32 PUSH1 0x24 DUP3 ADD MSTORE PUSH32 0x5061796D656E7453706C69747465723A2070617965657320616E642073686172 PUSH1 0x44 DUP3 ADD MSTORE PUSH18 0xCAE640D8CADCCEE8D040DAD2E6DAC2E8C6D PUSH1 0x73 SHL PUSH1 0x64 DUP3 ADD MSTORE PUSH1 0x84 ADD JUMPDEST PUSH1 0x40 MLOAD DUP1 SWAP2 SUB SWAP1 REVERT JUMPDEST PUSH1 0x0 DUP3 MLOAD GT PUSH3 0xEB JUMPI PUSH1 0x40 MLOAD PUSH3 0x461BCD PUSH1 0xE5 SHL DUP2 MSTORE PUSH1 0x20 PUSH1 0x4 DUP3 ADD MSTORE PUSH1 0x1A PUSH1 0x24 DUP3 ADD MSTORE PUSH32 0x5061796D656E7453706C69747465723A206E6F20706179656573000000000000 PUSH1 0x44 DUP3 ADD MSTORE PUSH1 0x64 ADD PUSH3 0x8F JUMP JUMPDEST PUSH1 0x0 JUMPDEST DUP3 MLOAD DUP2 LT ISZERO PUSH3 0x157 JUMPI PUSH3 0x142 DUP4 DUP3 DUP2 MLOAD DUP2 LT PUSH3 0x111 JUMPI PUSH3 0x111 PUSH3 0x50C JUMP JUMPDEST PUSH1 0x20 MUL PUSH1 0x20 ADD ADD MLOAD DUP4 DUP4 DUP2 MLOAD DUP2 LT PUSH3 0x12E JUMPI PUSH3 0x12E PUSH3 0x50C JUMP JUMPDEST PUSH1 0x20 MUL PUSH1 0x20 ADD ADD MLOAD PUSH3 0x160 PUSH1 0x20 SHL PUSH1 0x20 SHR JUMP JUMPDEST DUP1 PUSH3 0x14E DUP2 PUSH3 0x538 JUMP JUMPDEST SWAP2 POP POP PUSH3 0xEE JUMP JUMPDEST POP POP POP PUSH3 0x56F JUMP JUMPDEST PUSH1 0x1 PUSH1 0x1 PUSH1 0xA0 SHL SUB DUP3 AND PUSH3 0x1CD JUMPI PUSH1 0x40 MLOAD PUSH3 0x461BCD PUSH1 0xE5 SHL DUP2 MSTORE PUSH1 0x20 PUSH1 0x4 DUP3 ADD MSTORE PUSH1 0x2C PUSH1 0x24 DUP3 ADD MSTORE PUSH32 0x5061796D656E7453706C69747465723A206163636F756E742069732074686520 PUSH1 0x44 DUP3 ADD MSTORE PUSH12 0x7A65726F2061646472657373 PUSH1 0xA0 SHL PUSH1 0x64 DUP3 ADD MSTORE PUSH1 0x84 ADD PUSH3 0x8F JUMP JUMPDEST PUSH1 0x0 DUP2 GT PUSH3 0x21F JUMPI PUSH1 0x40 MLOAD PUSH3 0x461BCD PUSH1 0xE5 SHL DUP2 MSTORE PUSH1 0x20 PUSH1 0x4 DUP3 ADD MSTORE PUSH1 0x1D PUSH1 0x24 DUP3 ADD MSTORE PUSH32 0x5061796D656E7453706C69747465723A20736861726573206172652030000000 PUSH1 0x44 DUP3 ADD MSTORE PUSH1 0x64 ADD PUSH3 0x8F JUMP JUMPDEST PUSH1 0x1 PUSH1 0x1 PUSH1 0xA0 SHL SUB DUP3 AND PUSH1 0x0 SWAP1 DUP2 MSTORE PUSH1 0x2 PUSH1 0x20 MSTORE PUSH1 0x40 SWAP1 KECCAK256 SLOAD ISZERO PUSH3 0x29B JUMPI PUSH1 0x40 MLOAD PUSH3 0x461BCD PUSH1 0xE5 SHL DUP2 MSTORE PUSH1 0x20 PUSH1 0x4 DUP3 ADD MSTORE PUSH1 0x2B PUSH1 0x24 DUP3 ADD MSTORE PUSH32 0x5061796D656E7453706C69747465723A206163636F756E7420616C7265616479 PUSH1 0x44 DUP3 ADD MSTORE PUSH11 0x2068617320736861726573 PUSH1 0xA8 SHL PUSH1 0x64 DUP3 ADD MSTORE PUSH1 0x84 ADD PUSH3 0x8F JUMP JUMPDEST PUSH1 0x4 DUP1 SLOAD PUSH1 0x1 DUP2 ADD SWAP1 SWAP2 SSTORE PUSH32 0x8A35ACFBC15FF81A39AE7D344FD709F28E8600B4AA8C65C6B64BFE7FE36BD19B ADD DUP1 SLOAD PUSH1 0x1 PUSH1 0x1 PUSH1 0xA0 SHL SUB NOT AND PUSH1 0x1 PUSH1 0x1 PUSH1 0xA0 SHL SUB DUP5 AND SWAP1 DUP2 OR SWAP1 SWAP2 SSTORE PUSH1 0x0 SWAP1 DUP2 MSTORE PUSH1 0x2 PUSH1 0x20 MSTORE PUSH1 0x40 DUP2 KECCAK256 DUP3 SWAP1 SSTORE SLOAD PUSH3 0x303 SWAP1 DUP3 SWAP1 PUSH3 0x554 JUMP JUMPDEST PUSH1 0x0 SSTORE PUSH1 0x40 DUP1 MLOAD PUSH1 0x1 PUSH1 0x1 PUSH1 0xA0 SHL SUB DUP5 AND DUP2 MSTORE PUSH1 0x20 DUP2 ADD DUP4 SWAP1 MSTORE PUSH32 0x40C340F65E17194D14DDDDB073D3C9F888E3CB52B5AAE0C6C7706B4FBC905FAC SWAP2 ADD PUSH1 0x40 MLOAD DUP1 SWAP2 SUB SWAP1 LOG1 POP POP JUMP JUMPDEST PUSH4 0x4E487B71 PUSH1 0xE0 SHL PUSH1 0x0 MSTORE PUSH1 0x41 PUSH1 0x4 MSTORE PUSH1 0x24 PUSH1 0x0 REVERT JUMPDEST PUSH1 0x40 MLOAD PUSH1 0x1F DUP3 ADD PUSH1 0x1F NOT AND DUP2 ADD PUSH1 0x1 PUSH1 0x1 PUSH1 0x40 SHL SUB DUP2 GT DUP3 DUP3 LT OR ISZERO PUSH3 0x38D JUMPI PUSH3 0x38D PUSH3 0x34C JUMP JUMPDEST PUSH1 0x40 MSTORE SWAP2 SWAP1 POP JUMP JUMPDEST PUSH1 0x0 PUSH1 0x1 PUSH1 0x1 PUSH1 0x40 SHL SUB DUP3 GT ISZERO PUSH3 0x3B1 JUMPI PUSH3 0x3B1 PUSH3 0x34C JUMP JUMPDEST POP PUSH1 0x5 SHL PUSH1 0x20 ADD SWAP1 JUMP JUMPDEST PUSH1 0x0 DUP3 PUSH1 0x1F DUP4 ADD SLT PUSH3 0x3CD JUMPI PUSH1 0x0 DUP1 REVERT JUMPDEST DUP2 MLOAD PUSH1 0x20 PUSH3 0x3E6 PUSH3 0x3E0 DUP4 PUSH3 0x395 JUMP JUMPDEST PUSH3 0x362 JUMP JUMPDEST DUP3 DUP2 MSTORE PUSH1 0x5 SWAP3 SWAP1 SWAP3 SHL DUP5 ADD DUP2 ADD SWAP2 DUP2 DUP2 ADD SWAP1 DUP7 DUP5 GT ISZERO PUSH3 0x406 JUMPI PUSH1 0x0 DUP1 REVERT JUMPDEST DUP3 DUP7 ADD JUMPDEST DUP5 DUP2 LT ISZERO PUSH3 0x423 JUMPI DUP1 MLOAD DUP4 MSTORE SWAP2 DUP4 ADD SWAP2 DUP4 ADD PUSH3 0x40A JUMP JUMPDEST POP SWAP7 SWAP6 POP POP POP POP POP POP JUMP JUMPDEST PUSH1 0x0 DUP1 PUSH1 0x40 DUP4 DUP6 SUB SLT ISZERO PUSH3 0x442 JUMPI PUSH1 0x0 DUP1 REVERT JUMPDEST DUP3 MLOAD PUSH1 0x1 PUSH1 0x1 PUSH1 0x40 SHL SUB DUP1 DUP3 GT ISZERO PUSH3 0x45A JUMPI PUSH1 0x0 DUP1 REVERT JUMPDEST DUP2 DUP6 ADD SWAP2 POP DUP6 PUSH1 0x1F DUP4 ADD SLT PUSH3 0x46F JUMPI PUSH1 0x0 DUP1 REVERT JUMPDEST DUP2 MLOAD PUSH1 0x20 PUSH3 0x482 PUSH3 0x3E0 DUP4 PUSH3 0x395 JUMP JUMPDEST DUP3 DUP2 MSTORE PUSH1 0x5 SWAP3 SWAP1 SWAP3 SHL DUP5 ADD DUP2 ADD SWAP2 DUP2 DUP2 ADD SWAP1 DUP10 DUP5 GT ISZERO PUSH3 0x4A2 JUMPI PUSH1 0x0 DUP1 REVERT JUMPDEST SWAP5 DUP3 ADD SWAP5 JUMPDEST DUP4 DUP7 LT ISZERO PUSH3 0x4D9 JUMPI DUP6 MLOAD PUSH1 0x1 PUSH1 0x1 PUSH1 0xA0 SHL SUB DUP2 AND DUP2 EQ PUSH3 0x4C9 JUMPI PUSH1 0x0 DUP1 DUP2 REVERT JUMPDEST DUP3 MSTORE SWAP5 DUP3 ADD SWAP5 SWAP1 DUP3 ADD SWAP1 PUSH3 0x4A7 JUMP JUMPDEST SWAP2 DUP9 ADD MLOAD SWAP2 SWAP7 POP SWAP1 SWAP4 POP POP POP DUP1 DUP3 GT ISZERO PUSH3 0x4F3 JUMPI PUSH1 0x0 DUP1 REVERT JUMPDEST POP PUSH3 0x502 DUP6 DUP3 DUP7 ADD PUSH3 0x3BB JUMP JUMPDEST SWAP2 POP POP SWAP3 POP SWAP3 SWAP1 POP JUMP JUMPDEST PUSH4 0x4E487B71 PUSH1 0xE0 SHL PUSH1 0x0 MSTORE PUSH1 0x32 PUSH1 0x4 MSTORE PUSH1 0x24 PUSH1 0x0 REVERT JUMPDEST PUSH4 0x4E487B71 PUSH1 0xE0 SHL PUSH1 0x0 MSTORE PUSH1 0x11 PUSH1 0x4 MSTORE PUSH1 0x24 PUSH1 0x0 REVERT JUMPDEST PUSH1 0x0 PUSH1 0x1 DUP3 ADD PUSH3 0x54D JUMPI PUSH3 0x54D PUSH3 0x522 JUMP JUMPDEST POP PUSH1 0x1 ADD SWAP1 JUMP JUMPDEST PUSH1 0x0 DUP3 NOT DUP3 GT ISZERO PUSH3 0x56A JUMPI PUSH3 0x56A PUSH3 0x522 JUMP JUMPDEST POP ADD SWAP1 JUMP JUMPDEST PUSH2 0xBE1 DUP1 PUSH3 0x57F PUSH1 0x0 CODECOPY PUSH1 0x0 RETURN INVALID PUSH1 0x80 PUSH1 0x40 MSTORE PUSH1 0x4 CALLDATASIZE LT PUSH2 0x8A JUMPI PUSH1 0x0 CALLDATALOAD PUSH1 0xE0 SHR DUP1 PUSH4 0x8B83209B GT PUSH2 0x59 JUMPI DUP1 PUSH4 0x8B83209B EQ PUSH2 0x184 JUMPI DUP1 PUSH4 0x9852595C EQ PUSH2 0x1BC JUMPI DUP1 PUSH4 0xCE7C2AC2 EQ PUSH2 0x1F2 JUMPI DUP1 PUSH4 0xD79779B2 EQ PUSH2 0x228 JUMPI DUP1 PUSH4 0xE33B7DE3 EQ PUSH2 0x25E JUMPI PUSH1 0x0 DUP1 REVERT JUMPDEST DUP1 PUSH4 0x19165587 EQ PUSH2 0xD8 JUMPI DUP1 PUSH4 0x3A98EF39 EQ PUSH2 0xFA JUMPI DUP1 PUSH4 0x406072A9 EQ PUSH2 0x11E JUMPI DUP1 PUSH4 0x48B75044 EQ PUSH2 0x164 JUMPI PUSH1 0x0 DUP1 REVERT JUMPDEST CALLDATASIZE PUSH2 0xD3 JUMPI PUSH32 0x6EF95F06320E7A25A04A175CA677B7052BDD97131872C2192525A629F51BE770 CALLER PUSH1 0x40 DUP1 MLOAD PUSH1 0x1 PUSH1 0x1 PUSH1 0xA0 SHL SUB SWAP1 SWAP3 AND DUP3 MSTORE CALLVALUE PUSH1 0x20 DUP4 ADD MSTORE ADD PUSH1 0x40 MLOAD DUP1 SWAP2 SUB SWAP1 LOG1 STOP JUMPDEST PUSH1 0x0 DUP1 REVERT JUMPDEST CALLVALUE DUP1 ISZERO PUSH2 0xE4 JUMPI PUSH1 0x0 DUP1 REVERT JUMPDEST POP PUSH2 0xF8 PUSH2 0xF3 CALLDATASIZE PUSH1 0x4 PUSH2 0x955 JUMP JUMPDEST PUSH2 0x273 JUMP JUMPDEST STOP JUMPDEST CALLVALUE DUP1 ISZERO PUSH2 0x106 JUMPI PUSH1 0x0 DUP1 REVERT JUMPDEST POP PUSH1 0x0 SLOAD JUMPDEST PUSH1 0x40 MLOAD SWAP1 DUP2 MSTORE PUSH1 0x20 ADD JUMPDEST PUSH1 0x40 MLOAD DUP1 SWAP2 SUB SWAP1 RETURN JUMPDEST CALLVALUE DUP1 ISZERO PUSH2 0x12A JUMPI PUSH1 0x0 DUP1 REVERT JUMPDEST POP PUSH2 0x10B PUSH2 0x139 CALLDATASIZE PUSH1 0x4 PUSH2 0x972 JUMP JUMPDEST PUSH1 0x1 PUSH1 0x1 PUSH1 0xA0 SHL SUB SWAP2 DUP3 AND PUSH1 0x0 SWAP1 DUP2 MSTORE PUSH1 0x6 PUSH1 0x20 SWAP1 DUP2 MSTORE PUSH1 0x40 DUP1 DUP4 KECCAK256 SWAP4 SWAP1 SWAP5 AND DUP3 MSTORE SWAP2 SWAP1 SWAP2 MSTORE KECCAK256 SLOAD SWAP1 JUMP JUMPDEST CALLVALUE DUP1 ISZERO PUSH2 0x170 JUMPI PUSH1 0x0 DUP1 REVERT JUMPDEST POP PUSH2 0xF8 PUSH2 0x17F CALLDATASIZE PUSH1 0x4 PUSH2 0x972 JUMP JUMPDEST PUSH2 0x3AD JUMP JUMPDEST CALLVALUE DUP1 ISZERO PUSH2 0x190 JUMPI PUSH1 0x0 DUP1 REVERT JUMPDEST POP PUSH2 0x1A4 PUSH2 0x19F CALLDATASIZE PUSH1 0x4 PUSH2 0x9AB JUMP JUMPDEST PUSH2 0x589 JUMP JUMPDEST PUSH1 0x40 MLOAD PUSH1 0x1 PUSH1 0x1 PUSH1 0xA0 SHL SUB SWAP1 SWAP2 AND DUP2 MSTORE PUSH1 0x20 ADD PUSH2 0x115 JUMP JUMPDEST CALLVALUE DUP1 ISZERO PUSH2 0x1C8 JUMPI PUSH1 0x0 DUP1 REVERT JUMPDEST POP PUSH2 0x10B PUSH2 0x1D7 CALLDATASIZE PUSH1 0x4 PUSH2 0x955 JUMP JUMPDEST PUSH1 0x1 PUSH1 0x1 PUSH1 0xA0 SHL SUB AND PUSH1 0x0 SWAP1 DUP2 MSTORE PUSH1 0x3 PUSH1 0x20 MSTORE PUSH1 0x40 SWAP1 KECCAK256 SLOAD SWAP1 JUMP JUMPDEST CALLVALUE DUP1 ISZERO PUSH2 0x1FE JUMPI PUSH1 0x0 DUP1 REVERT JUMPDEST POP PUSH2 0x10B PUSH2 0x20D CALLDATASIZE PUSH1 0x4 PUSH2 0x955 JUMP JUMPDEST PUSH1 0x1 PUSH1 0x1 PUSH1 0xA0 SHL SUB AND PUSH1 0x0 SWAP1 DUP2 MSTORE PUSH1 0x2 PUSH1 0x20 MSTORE PUSH1 0x40 SWAP1 KECCAK256 SLOAD SWAP1 JUMP JUMPDEST CALLVALUE DUP1 ISZERO PUSH2 0x234 JUMPI PUSH1 0x0 DUP1 REVERT JUMPDEST POP PUSH2 0x10B PUSH2 0x243 CALLDATASIZE PUSH1 0x4 PUSH2 0x955 JUMP JUMPDEST PUSH1 0x1 PUSH1 0x1 PUSH1 0xA0 SHL SUB AND PUSH1 0x0 SWAP1 DUP2 MSTORE PUSH1 0x5 PUSH1 0x20 MSTORE PUSH1 0x40 SWAP1 KECCAK256 SLOAD SWAP1 JUMP JUMPDEST CALLVALUE DUP1 ISZERO PUSH2 0x26A JUMPI PUSH1 0x0 DUP1 REVERT JUMPDEST POP PUSH1 0x1 SLOAD PUSH2 0x10B JUMP JUMPDEST PUSH1 0x1 PUSH1 0x1 PUSH1 0xA0 SHL SUB DUP2 AND PUSH1 0x0 SWAP1 DUP2 MSTORE PUSH1 0x2 PUSH1 0x20 MSTORE PUSH1 0x40 SWAP1 KECCAK256 SLOAD PUSH2 0x2B1 JUMPI PUSH1 0x40 MLOAD PUSH3 0x461BCD PUSH1 0xE5 SHL DUP2 MSTORE PUSH1 0x4 ADD PUSH2 0x2A8 SWAP1 PUSH2 0x9C4 JUMP JUMPDEST PUSH1 0x40 MLOAD DUP1 SWAP2 SUB SWAP1 REVERT JUMPDEST PUSH1 0x0 PUSH2 0x2BC PUSH1 0x1 SLOAD SWAP1 JUMP JUMPDEST PUSH2 0x2C6 SWAP1 SELFBALANCE PUSH2 0xA20 JUMP JUMPDEST SWAP1 POP PUSH1 0x0 PUSH2 0x2F3 DUP4 DUP4 PUSH2 0x2EE DUP7 PUSH1 0x1 PUSH1 0x1 PUSH1 0xA0 SHL SUB AND PUSH1 0x0 SWAP1 DUP2 MSTORE PUSH1 0x3 PUSH1 0x20 MSTORE PUSH1 0x40 SWAP1 KECCAK256 SLOAD SWAP1 JUMP JUMPDEST PUSH2 0x5B9 JUMP JUMPDEST SWAP1 POP DUP1 PUSH1 0x0 SUB PUSH2 0x315 JUMPI PUSH1 0x40 MLOAD PUSH3 0x461BCD PUSH1 0xE5 SHL DUP2 MSTORE PUSH1 0x4 ADD PUSH2 0x2A8 SWAP1 PUSH2 0xA38 JUMP JUMPDEST PUSH1 0x1 PUSH1 0x1 PUSH1 0xA0 SHL SUB DUP4 AND PUSH1 0x0 SWAP1 DUP2 MSTORE PUSH1 0x3 PUSH1 0x20 MSTORE PUSH1 0x40 DUP2 KECCAK256 DUP1 SLOAD DUP4 SWAP3 SWAP1 PUSH2 0x33D SWAP1 DUP5 SWAP1 PUSH2 0xA20 JUMP JUMPDEST SWAP3 POP POP DUP2 SWAP1 SSTORE POP DUP1 PUSH1 0x1 PUSH1 0x0 DUP3 DUP3 SLOAD PUSH2 0x356 SWAP2 SWAP1 PUSH2 0xA20 JUMP JUMPDEST SWAP1 SWAP2 SSTORE POP PUSH2 0x366 SWAP1 POP DUP4 DUP3 PUSH2 0x5FE JUMP JUMPDEST PUSH1 0x40 DUP1 MLOAD PUSH1 0x1 PUSH1 0x1 PUSH1 0xA0 SHL SUB DUP6 AND DUP2 MSTORE PUSH1 0x20 DUP2 ADD DUP4 SWAP1 MSTORE PUSH32 0xDF20FD1E76BC69D672E4814FAFB2C449BBA3A5369D8359ADF9E05E6FDE87B056 SWAP2 ADD PUSH1 0x40 MLOAD DUP1 SWAP2 SUB SWAP1 LOG1 POP POP POP JUMP JUMPDEST PUSH1 0x1 PUSH1 0x1 PUSH1 0xA0 SHL SUB DUP2 AND PUSH1 0x0 SWAP1 DUP2 MSTORE PUSH1 0x2 PUSH1 0x20 MSTORE PUSH1 0x40 SWAP1 KECCAK256 SLOAD PUSH2 0x3E2 JUMPI PUSH1 0x40 MLOAD PUSH3 0x461BCD PUSH1 0xE5 SHL DUP2 MSTORE PUSH1 0x4 ADD PUSH2 0x2A8 SWAP1 PUSH2 0x9C4 JUMP JUMPDEST PUSH1 0x1 PUSH1 0x1 PUSH1 0xA0 SHL SUB DUP3 AND PUSH1 0x0 SWAP1 DUP2 MSTORE PUSH1 0x5 PUSH1 0x20 MSTORE PUSH1 0x40 DUP2 KECCAK256 SLOAD PUSH1 0x40 MLOAD PUSH4 0x70A08231 PUSH1 0xE0 SHL DUP2 MSTORE ADDRESS PUSH1 0x4 DUP3 ADD MSTORE PUSH1 0x1 PUSH1 0x1 PUSH1 0xA0 SHL SUB DUP6 AND SWAP1 PUSH4 0x70A08231 SWAP1 PUSH1 0x24 ADD PUSH1 0x20 PUSH1 0x40 MLOAD DUP1 DUP4 SUB DUP2 DUP7 GAS STATICCALL ISZERO DUP1 ISZERO PUSH2 0x43F JUMPI RETURNDATASIZE PUSH1 0x0 DUP1 RETURNDATACOPY RETURNDATASIZE PUSH1 0x0 REVERT JUMPDEST POP POP POP POP PUSH1 0x40 MLOAD RETURNDATASIZE PUSH1 0x1F NOT PUSH1 0x1F DUP3 ADD AND DUP3 ADD DUP1 PUSH1 0x40 MSTORE POP DUP2 ADD SWAP1 PUSH2 0x463 SWAP2 SWAP1 PUSH2 0xA83 JUMP JUMPDEST PUSH2 0x46D SWAP2 SWAP1 PUSH2 0xA20 JUMP JUMPDEST SWAP1 POP PUSH1 0x0 PUSH2 0x4A6 DUP4 DUP4 PUSH2 0x2EE DUP8 DUP8 PUSH1 0x1 PUSH1 0x1 PUSH1 0xA0 SHL SUB SWAP2 DUP3 AND PUSH1 0x0 SWAP1 DUP2 MSTORE PUSH1 0x6 PUSH1 0x20 SWAP1 DUP2 MSTORE PUSH1 0x40 DUP1 DUP4 KECCAK256 SWAP4 SWAP1 SWAP5 AND DUP3 MSTORE SWAP2 SWAP1 SWAP2 MSTORE KECCAK256 SLOAD SWAP1 JUMP JUMPDEST SWAP1 POP DUP1 PUSH1 0x0 SUB PUSH2 0x4C8 JUMPI PUSH1 0x40 MLOAD PUSH3 0x461BCD PUSH1 0xE5 SHL DUP2 MSTORE PUSH1 0x4 ADD PUSH2 0x2A8 SWAP1 PUSH2 0xA38 JUMP JUMPDEST PUSH1 0x1 PUSH1 0x1 PUSH1 0xA0 SHL SUB DUP1 DUP6 AND PUSH1 0x0 SWAP1 DUP2 MSTORE PUSH1 0x6 PUSH1 0x20 SWAP1 DUP2 MSTORE PUSH1 0x40 DUP1 DUP4 KECCAK256 SWAP4 DUP8 AND DUP4 MSTORE SWAP3 SWAP1 MSTORE SWAP1 DUP2 KECCAK256 DUP1 SLOAD DUP4 SWAP3 SWAP1 PUSH2 0x4FF SWAP1 DUP5 SWAP1 PUSH2 0xA20 JUMP JUMPDEST SWAP1 SWAP2 SSTORE POP POP PUSH1 0x1 PUSH1 0x1 PUSH1 0xA0 SHL SUB DUP5 AND PUSH1 0x0 SWAP1 DUP2 MSTORE PUSH1 0x5 PUSH1 0x20 MSTORE PUSH1 0x40 DUP2 KECCAK256 DUP1 SLOAD DUP4 SWAP3 SWAP1 PUSH2 0x52C SWAP1 DUP5 SWAP1 PUSH2 0xA20 JUMP JUMPDEST SWAP1 SWAP2 SSTORE POP PUSH2 0x53D SWAP1 POP DUP5 DUP5 DUP4 PUSH2 0x71C JUMP JUMPDEST PUSH1 0x40 DUP1 MLOAD PUSH1 0x1 PUSH1 0x1 PUSH1 0xA0 SHL SUB DUP6 DUP2 AND DUP3 MSTORE PUSH1 0x20 DUP3 ADD DUP5 SWAP1 MSTORE DUP7 AND SWAP2 PUSH32 0x3BE5B7A71E84ED12875D241991C70855AC5817D847039E17A9D895C1CEB0F18A SWAP2 ADD PUSH1 0x40 MLOAD DUP1 SWAP2 SUB SWAP1 LOG2 POP POP POP POP JUMP JUMPDEST PUSH1 0x0 PUSH1 0x4 DUP3 DUP2 SLOAD DUP2 LT PUSH2 0x59E JUMPI PUSH2 0x59E PUSH2 0xA9C JUMP JUMPDEST PUSH1 0x0 SWAP2 DUP3 MSTORE PUSH1 0x20 SWAP1 SWAP2 KECCAK256 ADD SLOAD PUSH1 0x1 PUSH1 0x1 PUSH1 0xA0 SHL SUB AND SWAP3 SWAP2 POP POP JUMP JUMPDEST PUSH1 0x0 DUP1 SLOAD PUSH1 0x1 PUSH1 0x1 PUSH1 0xA0 SHL SUB DUP6 AND DUP3 MSTORE PUSH1 0x2 PUSH1 0x20 MSTORE PUSH1 0x40 DUP3 KECCAK256 SLOAD DUP4 SWAP2 SWAP1 PUSH2 0x5E0 SWAP1 DUP7 PUSH2 0xAB2 JUMP JUMPDEST PUSH2 0x5EA SWAP2 SWAP1 PUSH2 0xAD1 JUMP JUMPDEST PUSH2 0x5F4 SWAP2 SWAP1 PUSH2 0xAF3 JUMP JUMPDEST SWAP1 POP JUMPDEST SWAP4 SWAP3 POP POP POP JUMP JUMPDEST DUP1 SELFBALANCE LT ISZERO PUSH2 0x64E JUMPI PUSH1 0x40 MLOAD PUSH3 0x461BCD PUSH1 0xE5 SHL DUP2 MSTORE PUSH1 0x20 PUSH1 0x4 DUP3 ADD MSTORE PUSH1 0x1D PUSH1 0x24 DUP3 ADD MSTORE PUSH32 0x416464726573733A20696E73756666696369656E742062616C616E6365000000 PUSH1 0x44 DUP3 ADD MSTORE PUSH1 0x64 ADD PUSH2 0x2A8 JUMP JUMPDEST PUSH1 0x0 DUP3 PUSH1 0x1 PUSH1 0x1 PUSH1 0xA0 SHL SUB AND DUP3 PUSH1 0x40 MLOAD PUSH1 0x0 PUSH1 0x40 MLOAD DUP1 DUP4 SUB DUP2 DUP6 DUP8 GAS CALL SWAP3 POP POP POP RETURNDATASIZE DUP1 PUSH1 0x0 DUP2 EQ PUSH2 0x69B JUMPI PUSH1 0x40 MLOAD SWAP2 POP PUSH1 0x1F NOT PUSH1 0x3F RETURNDATASIZE ADD AND DUP3 ADD PUSH1 0x40 MSTORE RETURNDATASIZE DUP3 MSTORE RETURNDATASIZE PUSH1 0x0 PUSH1 0x20 DUP5 ADD RETURNDATACOPY PUSH2 0x6A0 JUMP JUMPDEST PUSH1 0x60 SWAP2 POP JUMPDEST POP POP SWAP1 POP DUP1 PUSH2 0x717 JUMPI PUSH1 0x40 MLOAD PUSH3 0x461BCD PUSH1 0xE5 SHL DUP2 MSTORE PUSH1 0x20 PUSH1 0x4 DUP3 ADD MSTORE PUSH1 0x3A PUSH1 0x24 DUP3 ADD MSTORE PUSH32 0x416464726573733A20756E61626C6520746F2073656E642076616C75652C2072 PUSH1 0x44 DUP3 ADD MSTORE PUSH32 0x6563697069656E74206D61792068617665207265766572746564000000000000 PUSH1 0x64 DUP3 ADD MSTORE PUSH1 0x84 ADD PUSH2 0x2A8 JUMP JUMPDEST POP POP POP JUMP JUMPDEST PUSH1 0x40 DUP1 MLOAD PUSH1 0x1 PUSH1 0x1 PUSH1 0xA0 SHL SUB DUP5 DUP2 AND PUSH1 0x24 DUP4 ADD MSTORE PUSH1 0x44 DUP1 DUP4 ADD DUP6 SWAP1 MSTORE DUP4 MLOAD DUP1 DUP5 SUB SWAP1 SWAP2 ADD DUP2 MSTORE PUSH1 0x64 SWAP1 SWAP3 ADD DUP4 MSTORE PUSH1 0x20 DUP1 DUP4 ADD DUP1 MLOAD PUSH1 0x1 PUSH1 0x1 PUSH1 0xE0 SHL SUB AND PUSH4 0xA9059CBB PUSH1 0xE0 SHL OR SWAP1 MSTORE DUP4 MLOAD DUP1 DUP6 ADD SWAP1 SWAP5 MSTORE DUP1 DUP5 MSTORE PUSH32 0x5361666545524332303A206C6F772D6C6576656C2063616C6C206661696C6564 SWAP1 DUP5 ADD MSTORE PUSH2 0x717 SWAP3 DUP7 SWAP3 SWAP2 PUSH1 0x0 SWAP2 PUSH2 0x7AC SWAP2 DUP6 AND SWAP1 DUP5 SWAP1 PUSH2 0x829 JUMP JUMPDEST DUP1 MLOAD SWAP1 SWAP2 POP ISZERO PUSH2 0x717 JUMPI DUP1 DUP1 PUSH1 0x20 ADD SWAP1 MLOAD DUP2 ADD SWAP1 PUSH2 0x7CA SWAP2 SWAP1 PUSH2 0xB0A JUMP JUMPDEST PUSH2 0x717 JUMPI PUSH1 0x40 MLOAD PUSH3 0x461BCD PUSH1 0xE5 SHL DUP2 MSTORE PUSH1 0x20 PUSH1 0x4 DUP3 ADD MSTORE PUSH1 0x2A PUSH1 0x24 DUP3 ADD MSTORE PUSH32 0x5361666545524332303A204552433230206F7065726174696F6E20646964206E PUSH1 0x44 DUP3 ADD MSTORE PUSH10 0x1BDD081CDD58D8D95959 PUSH1 0xB2 SHL PUSH1 0x64 DUP3 ADD MSTORE PUSH1 0x84 ADD PUSH2 0x2A8 JUMP JUMPDEST PUSH1 0x60 PUSH2 0x5F4 DUP5 DUP5 PUSH1 0x0 DUP6 DUP6 PUSH1 0x1 PUSH1 0x1 PUSH1 0xA0 SHL SUB DUP6 AND EXTCODESIZE PUSH2 0x88B JUMPI PUSH1 0x40 MLOAD PUSH3 0x461BCD PUSH1 0xE5 SHL DUP2 MSTORE PUSH1 0x20 PUSH1 0x4 DUP3 ADD MSTORE PUSH1 0x1D PUSH1 0x24 DUP3 ADD MSTORE PUSH32 0x416464726573733A2063616C6C20746F206E6F6E2D636F6E7472616374000000 PUSH1 0x44 DUP3 ADD MSTORE PUSH1 0x64 ADD PUSH2 0x2A8 JUMP JUMPDEST PUSH1 0x0 DUP1 DUP7 PUSH1 0x1 PUSH1 0x1 PUSH1 0xA0 SHL SUB AND DUP6 DUP8 PUSH1 0x40 MLOAD PUSH2 0x8A7 SWAP2 SWAP1 PUSH2 0xB5C JUMP JUMPDEST PUSH1 0x0 PUSH1 0x40 MLOAD DUP1 DUP4 SUB DUP2 DUP6 DUP8 GAS CALL SWAP3 POP POP POP RETURNDATASIZE DUP1 PUSH1 0x0 DUP2 EQ PUSH2 0x8E4 JUMPI PUSH1 0x40 MLOAD SWAP2 POP PUSH1 0x1F NOT PUSH1 0x3F RETURNDATASIZE ADD AND DUP3 ADD PUSH1 0x40 MSTORE RETURNDATASIZE DUP3 MSTORE RETURNDATASIZE PUSH1 0x0 PUSH1 0x20 DUP5 ADD RETURNDATACOPY PUSH2 0x8E9 JUMP JUMPDEST PUSH1 0x60 SWAP2 POP JUMPDEST POP SWAP2 POP SWAP2 POP PUSH2 0x8F9 DUP3 DUP3 DUP7 PUSH2 0x904 JUMP JUMPDEST SWAP8 SWAP7 POP POP POP POP POP POP POP JUMP JUMPDEST PUSH1 0x60 DUP4 ISZERO PUSH2 0x913 JUMPI POP DUP2 PUSH2 0x5F7 JUMP JUMPDEST DUP3 MLOAD ISZERO PUSH2 0x923 JUMPI DUP3 MLOAD DUP1 DUP5 PUSH1 0x20 ADD REVERT JUMPDEST DUP2 PUSH1 0x40 MLOAD PUSH3 0x461BCD PUSH1 0xE5 SHL DUP2 MSTORE PUSH1 0x4 ADD PUSH2 0x2A8 SWAP2 SWAP1 PUSH2 0xB78 JUMP JUMPDEST PUSH1 0x1 PUSH1 0x1 PUSH1 0xA0 SHL SUB DUP2 AND DUP2 EQ PUSH2 0x952 JUMPI PUSH1 0x0 DUP1 REVERT JUMPDEST POP JUMP JUMPDEST PUSH1 0x0 PUSH1 0x20 DUP3 DUP5 SUB SLT ISZERO PUSH2 0x967 JUMPI PUSH1 0x0 DUP1 REVERT JUMPDEST DUP2 CALLDATALOAD PUSH2 0x5F7 DUP2 PUSH2 0x93D JUMP JUMPDEST PUSH1 0x0 DUP1 PUSH1 0x40 DUP4 DUP6 SUB SLT ISZERO PUSH2 0x985 JUMPI PUSH1 0x0 DUP1 REVERT JUMPDEST DUP3 CALLDATALOAD PUSH2 0x990 DUP2 PUSH2 0x93D JUMP JUMPDEST SWAP2 POP PUSH1 0x20 DUP4 ADD CALLDATALOAD PUSH2 0x9A0 DUP2 PUSH2 0x93D JUMP JUMPDEST DUP1 SWAP2 POP POP SWAP3 POP SWAP3 SWAP1 POP JUMP JUMPDEST PUSH1 0x0 PUSH1 0x20 DUP3 DUP5 SUB SLT ISZERO PUSH2 0x9BD JUMPI PUSH1 0x0 DUP1 REVERT JUMPDEST POP CALLDATALOAD SWAP2 SWAP1 POP JUMP JUMPDEST PUSH1 0x20 DUP1 DUP3 MSTORE PUSH1 0x26 SWAP1 DUP3 ADD MSTORE PUSH32 0x5061796D656E7453706C69747465723A206163636F756E7420686173206E6F20 PUSH1 0x40 DUP3 ADD MSTORE PUSH6 0x736861726573 PUSH1 0xD0 SHL PUSH1 0x60 DUP3 ADD MSTORE PUSH1 0x80 ADD SWAP1 JUMP JUMPDEST PUSH4 0x4E487B71 PUSH1 0xE0 SHL PUSH1 0x0 MSTORE PUSH1 0x11 PUSH1 0x4 MSTORE PUSH1 0x24 PUSH1 0x0 REVERT JUMPDEST PUSH1 0x0 DUP3 NOT DUP3 GT ISZERO PUSH2 0xA33 JUMPI PUSH2 0xA33 PUSH2 0xA0A JUMP JUMPDEST POP ADD SWAP1 JUMP JUMPDEST PUSH1 0x20 DUP1 DUP3 MSTORE PUSH1 0x2B SWAP1 DUP3 ADD MSTORE PUSH32 0x5061796D656E7453706C69747465723A206163636F756E74206973206E6F7420 PUSH1 0x40 DUP3 ADD MSTORE PUSH11 0x191D59481C185E5B595B9D PUSH1 0xAA SHL PUSH1 0x60 DUP3 ADD MSTORE PUSH1 0x80 ADD SWAP1 JUMP JUMPDEST PUSH1 0x0 PUSH1 0x20 DUP3 DUP5 SUB SLT ISZERO PUSH2 0xA95 JUMPI PUSH1 0x0 DUP1 REVERT JUMPDEST POP MLOAD SWAP2 SWAP1 POP JUMP JUMPDEST PUSH4 0x4E487B71 PUSH1 0xE0 SHL PUSH1 0x0 MSTORE PUSH1 0x32 PUSH1 0x4 MSTORE PUSH1 0x24 PUSH1 0x0 REVERT JUMPDEST PUSH1 0x0 DUP2 PUSH1 0x0 NOT DIV DUP4 GT DUP3 ISZERO ISZERO AND ISZERO PUSH2 0xACC JUMPI PUSH2 0xACC PUSH2 0xA0A JUMP JUMPDEST POP MUL SWAP1 JUMP JUMPDEST PUSH1 0x0 DUP3 PUSH2 0xAEE JUMPI PUSH4 0x4E487B71 PUSH1 0xE0 SHL PUSH1 0x0 MSTORE PUSH1 0x12 PUSH1 0x4 MSTORE PUSH1 0x24 PUSH1 0x0 REVERT JUMPDEST POP DIV SWAP1 JUMP JUMPDEST PUSH1 0x0 DUP3 DUP3 LT ISZERO PUSH2 0xB05 JUMPI PUSH2 0xB05 PUSH2 0xA0A JUMP JUMPDEST POP SUB SWAP1 JUMP JUMPDEST PUSH1 0x0 PUSH1 0x20 DUP3 DUP5 SUB SLT ISZERO PUSH2 0xB1C JUMPI PUSH1 0x0 DUP1 REVERT JUMPDEST DUP2 MLOAD DUP1 ISZERO ISZERO DUP2 EQ PUSH2 0x5F7 JUMPI PUSH1 0x0 DUP1 REVERT JUMPDEST PUSH1 0x0 JUMPDEST DUP4 DUP2 LT ISZERO PUSH2 0xB47 JUMPI DUP2 DUP2 ADD MLOAD DUP4 DUP3 ADD MSTORE PUSH1 0x20 ADD PUSH2 0xB2F JUMP JUMPDEST DUP4 DUP2 GT ISZERO PUSH2 0xB56 JUMPI PUSH1 0x0 DUP5 DUP5 ADD MSTORE JUMPDEST POP POP POP POP JUMP JUMPDEST PUSH1 0x0 DUP3 MLOAD PUSH2 0xB6E DUP2 DUP5 PUSH1 0x20 DUP8 ADD PUSH2 0xB2C JUMP JUMPDEST SWAP2 SWAP1 SWAP2 ADD SWAP3 SWAP2 POP POP JUMP JUMPDEST PUSH1 0x20 DUP2 MSTORE PUSH1 0x0 DUP3 MLOAD DUP1 PUSH1 0x20 DUP5 ADD MSTORE PUSH2 0xB97 DUP2 PUSH1 0x40 DUP6 ADD PUSH1 0x20 DUP8 ADD PUSH2 0xB2C JUMP JUMPDEST PUSH1 0x1F ADD PUSH1 0x1F NOT AND SWAP2 SWAP1 SWAP2 ADD PUSH1 0x40 ADD SWAP3 SWAP2 POP POP JUMP INVALID LOG2 PUSH5 0x6970667358 0x22 SLT KECCAK256 0xD7 0x2E 0xB8 0xF SELFDESTRUCT 0xCB 0xC5 0xCC PUSH4 0x78D758E COINBASE PUSH6 0x6936EEC618C XOR 0xBD LOG3 0x5F PUSH4 0x6E842CFD 0xAC CREATE PUSH5 0x736F6C6343 STOP ADDMOD 0xD STOP CALLER LOG2 PUSH5 0x6970667358 0x22 SLT KECCAK256 PUSH17 0x3CC5575C66969184761654497A57788EDE 0xDC 0x23 GASLIMIT CALLER 0xB0 0xE2 0x5D 0xB1 SHL REVERT SMOD 0xDA 0xA7 0x5D PUSH5 0x736F6C6343 STOP ADDMOD 0xD STOP CALLER ",
  "sha1": "02ab19e33dd2472729df90fedcea2c048ba387d7",
  "source": "// SPDX-License-Identifier: GPL-3.0\n\nimport \"@openzeppelin/contracts/access/Ownable.sol\";\nimport \"@openzeppelin/contracts/finance/PaymentSplitter.sol\";\nimport \"@chainlink/contracts/src/v0.8/interfaces/VRFCoordinatorV2Interface.sol\";\nimport \"@chainlink/contracts/src/v0.8/VRFConsumerBaseV2.sol\";\n\ninterface WordList {\n   function getWordListLength() external view returns(uint);\n   function wordList(uint i) external view returns(string memory);\n}\n\npragma solidity >=0.8.0 <0.9.0;\n\n/**\n * @title Wordle\n * @dev Play the game wordle\n */\ncontract WordleVRF is Ownable, VRFConsumerBaseV2{\n\n    //VRF RELATED OBJECTS\n    VRFCoordinatorV2Interface COORDINATOR;\n\n    // Your subscription ID.\n    uint64 s_subscriptionId;\n\n    // Rinkeby coordinator. For other networks,\n    // see https://docs.chain.link/docs/vrf-contracts/#configurations\n    //    0x6168499c0cFfCaCD319c818142124B7A15E857ab\n    address vrfCoordinator = 0x602C71e4DAC47a042Ee7f46E0aee17F94A3bA0B6;\n\n    // The gas lane to use, which specifies the maximum gas price to bump to.\n    // For a list of available gas lanes on each network,\n    // see https://docs.chain.link/docs/vrf-contracts/#configurations\n    bytes32 keyHash = 0xd89b2bf150e3b9e13446986e571fb9cab24b13cea0a43ea20a6049a85cc807cc;\n\n    // Depends on the number of requested values that you want sent to the\n    // fulfillRandomWords() function. Storing each word costs about 20,000 gas,\n    // so 100,000 is a safe default for this example contract. Test and adjust\n    // this limit based on the network that you select, the size of the request,\n    // and the processing of the callback request in the fulfillRandomWords()\n    // function.\n    uint32 callbackGasLimit = 1000000000;\n\n    // The default is 3, but you can set this higher.\n    uint16 requestConfirmations = 3;\n\n    // For this example, retrieve 2 random values in one request.\n    // Cannot exceed VRFCoordinatorV2.MAX_NUM_WORDS.\n    uint32 numWords =  1;\n\n    uint256[] public s_randomWords;\n    uint256 public s_requestId;\n    address s_owner;\n\n    // user level objects\n    mapping(address => uint) public numberOfGuesses;\n    mapping(address => bool) public solved;\n    mapping(address => WordleResult[5][6]) public guessStore; //multidimentional array notation is reversed for whatever reason\n    mapping(address => string[6]) public userGuesses;\n    mapping(address => bool) public enabled;\n\n\n    mapping(uint => address) private vrfRequestIdToAddress;\n    mapping(address => uint) private vrfAddressToRandomNumber;\n\n    enum RandomNumberRequestState{NO_REQUEST, REQUESTED, FULFILLED}\n    mapping(address => RandomNumberRequestState) public randomNumberRequestStateForUser;\n\n    mapping(address => string[]) private currWordListForUser;\n    mapping(address => UserGuessState) private guessState;\n\n    address[] public playersList;\n\n    string[] public wordList;\n    mapping(string => bool) allowedWords;\n\n    // overall aggregation objects\n    uint[7] private solvedCountByGuesses;\n    address[] public pastGamePaymentSplitters;\n\n    // configuration constants\n    uint[7] private payouts = [0,10000,5000,2000,1000,500,100]; //payouts as a by-thousand fraction of the 4-guess payout, so 1000 is par\n    uint private ownersCut = 10; //author's cut as a by-thousand fraction\n\n    enum WordleResult{ GREEN, YELLOW, GREY } //enum represents the outcome of a wordle guess at a single character level\n\n    // the contract starts in PENDING. The owner must call init to move it to IN_PROGRESS, where players can sign up and play\n    // when the owner calls payoutAndReset, then it goes back to PENDING\n    enum GameState{PENDING, IN_PROGRESS}\n\n    //\n    enum UserGuessState{AWAITING_GUESS, PROCESSING_GUESS}\n\n    GameState public currGameState;\n\n    WordList wl;\n\n    uint public lotSizeInWei;\n\n    constructor(address[] memory wordListContractAddresses, address[] memory allowedGuessesWordListContractAddresses, uint lotSizeInWeiParam, uint64 vrfSubscriptionId) VRFConsumerBaseV2(vrfCoordinator){\n\n        for(uint addressNumber = 0; addressNumber<wordListContractAddresses.length;addressNumber++){\n            wl = WordList(wordListContractAddresses[addressNumber]);\n\n            for(uint i=0;i<wl.getWordListLength();i++){\n                wordList.push(wl.wordList(i));\n            }\n        }\n\n        for(uint addressNumber = 0; addressNumber<allowedGuessesWordListContractAddresses.length;addressNumber++){\n            wl = WordList(allowedGuessesWordListContractAddresses[addressNumber]);\n            for(uint i=0;i<wl.getWordListLength();i++){\n                allowedWords[wl.wordList(i)]=true;\n            }\n        }\n\n        lotSizeInWei = lotSizeInWeiParam;\n\n        currGameState = GameState.PENDING;\n\n        COORDINATOR = VRFCoordinatorV2Interface(vrfCoordinator);\n        s_owner = msg.sender;\n        s_subscriptionId = vrfSubscriptionId;\n    }\n\n    function fulfillRandomWords(\n        uint256 requestId, /* requestId */\n        uint256[] memory randomWords\n    ) internal override {\n        assert(vrfRequestIdToAddress[requestId] != address(0));\n        assert(randomNumberRequestStateForUser[vrfRequestIdToAddress[requestId]] == RandomNumberRequestState.REQUESTED);\n        vrfAddressToRandomNumber[vrfRequestIdToAddress[requestId]] = randomWords[0];\n        randomNumberRequestStateForUser[vrfRequestIdToAddress[requestId]] = RandomNumberRequestState.FULFILLED;\n        vrfRequestIdToAddress[requestId]=address(0);\n    }\n\n    string allChars = \"ABCDEFGHIJKLMNOPQRSTUVWXYZ\";\n\n    function signUp() public payable {\n        require(currGameState == GameState.IN_PROGRESS, \"Error: EXPECTED GameState.IN_PROGRESS\");\n        require(msg.value >= lotSizeInWei, \"Error: INSUFFICIENT FUNDS PROVIDED\");\n        require(!enabled[msg.sender], \"Error: PLAYER ALREADY SIGNED UP\");\n\n        resetSingleUser(msg.sender);\n        playersList.push(msg.sender);\n\n        enabled[msg.sender]=true;\n        currWordListForUser[msg.sender] = wordList;\n        randomNumberRequestStateForUser[msg.sender] = RandomNumberRequestState.NO_REQUEST;\n    }\n\n    function setOwnerCut(uint newCut) onlyOwner public {\n        ownersCut = newCut;\n    }\n\n    function getOwnerCut() onlyOwner public view returns (uint){\n        return ownersCut;\n    }\n\n    function getSolvedCountsByGuessNumber(uint guessNumber) onlyOwner public view returns (uint solvedCount){\n        return solvedCountByGuesses[guessNumber];\n    }\n\n    function getPlayerCount() public view returns(uint count) {\n        return playersList.length;\n    }\n\n    function getCompletedGameCount() public view returns(uint count) {\n        return pastGamePaymentSplitters.length;\n    }\n\n    function getWordListForUserLength(address a) onlyOwner public view returns(uint){\n        return currWordListForUser[a].length;\n    }\n\n    function getWordListForUser(address a, uint b) onlyOwner public view returns(string memory){\n        return currWordListForUser[a][b];\n    }\n\n\n    function initGame() onlyOwner public {\n        require(currGameState == GameState.PENDING, \"Error: EXPECTED GameState.PENDING\");\n        currGameState = GameState.IN_PROGRESS;\n    }\n\n    function payoutAndReset() onlyOwner public returns (PaymentSplitter paymentSplitterAddress){\n        require(currGameState == GameState.IN_PROGRESS, \"Error: EXPECTED GameState.IN_PROGRESS\");\n\n        // first, payout to the owner\n        payable(owner()).transfer((address(this).balance* ownersCut)/1000);\n\n        // then, distribute the rest of the eth to players\n        // create shares\n        uint eligiblePlayersCount = 0;\n\n        for(uint i=0;i<playersList.length;i++){\n            if(enabled[playersList[i]] && solved[playersList[i]]){\n                eligiblePlayersCount++;\n            }\n        }\n\n        address[] memory eligiblePlayers = new address[](eligiblePlayersCount);\n        uint[] memory eligiblePlayerShares = new uint[](eligiblePlayersCount);\n\n        uint j=0;\n\n        for(uint i=0;i<playersList.length;i++){\n            if(enabled[playersList[i]] && solved[playersList[i]]){\n                eligiblePlayers[j]=playersList[i];\n                eligiblePlayerShares[j]=(payouts[numberOfGuesses[playersList[i]]]);\n                j++;\n            }\n        }\n\n\n        if(eligiblePlayersCount>0){\n            paymentSplitterAddress = new PaymentSplitter(eligiblePlayers, eligiblePlayerShares);\n            payable(paymentSplitterAddress).transfer(address(this).balance);\n        }\n\n        // finally, reset all players state and remove from playersList\n        for(uint i=0;i<playersList.length;i++){\n            resetSingleUser(playersList[i]);\n        }\n        delete playersList;\n\n        // reset global data\n        delete solvedCountByGuesses;\n\n        currGameState = GameState.PENDING;\n\n        pastGamePaymentSplitters.push(address(paymentSplitterAddress));\n\n        return paymentSplitterAddress;\n    }\n\n    function resetSingleUser(address userAddress) internal {\n        enabled[userAddress] = false;\n        numberOfGuesses[userAddress] = 0;\n        solved[userAddress] = false;\n        guessState[userAddress] = UserGuessState.AWAITING_GUESS;\n        delete guessStore[userAddress];\n        delete currWordListForUser[userAddress];\n    }\n\n    function makeGuess(string calldata guessedWordString) public{\n        require(currGameState == GameState.IN_PROGRESS, \"Error: EXPECTED GameState.IN_PROGRESS\");\n        require(enabled[msg.sender], \"Error: PLAYER NOT SIGNED UP\");\n        require(numberOfGuesses[msg.sender] < 6, \"Error: NUMBER OF GUESSES EXHAUSTED\");\n        require(!solved[msg.sender], \"Error: PLAYER ALREADY GUESSED THE CORRECT WORD\");\n        require(isValidWord(guessedWordString), \"Error: INVALID INPUT WORD\");\n        require(guessState[msg.sender] == UserGuessState.AWAITING_GUESS, \"Error: EXPECTED UserGuessState.AWAITING_GUESS\");\n\n        assert(randomNumberRequestStateForUser[msg.sender] == RandomNumberRequestState.NO_REQUEST);\n\n        // record the guess, change the player state, and begin fetching the random number\n        userGuesses[msg.sender][numberOfGuesses[msg.sender]] = guessedWordString;\n        guessState[msg.sender] = UserGuessState.PROCESSING_GUESS;\n\n        if(currWordListForUser[msg.sender].length > 1){\n            // initiate the process of getting a random number here,\n                    // Will revert if subscription is not set and funded.\n            s_requestId = COORDINATOR.requestRandomWords(\n                keyHash,\n                s_subscriptionId,\n                requestConfirmations,\n                callbackGasLimit,\n                numWords\n            );\n            vrfRequestIdToAddress[s_requestId] = msg.sender;\n            randomNumberRequestStateForUser[msg.sender] = RandomNumberRequestState.REQUESTED;\n        }\n    }\n\n    function getGuessResult() public returns (WordleResult[5] memory) {\n        require(currGameState == GameState.IN_PROGRESS, \"Error: EXPECTED GameState.IN_PROGRESS\");\n        require(enabled[msg.sender], \"Error: PLAYER NOT SIGNED UP\");\n        require(guessState[msg.sender] == UserGuessState.PROCESSING_GUESS, \"Error: EXPECTED UserGuessState.PROCESSING_GUESS\");\n\n        require(currWordListForUser[msg.sender].length == 1 || randomNumberRequestStateForUser[msg.sender] == RandomNumberRequestState.FULFILLED, \"Error: Not received VRF Random Number\");\n\n        guessState[msg.sender] = UserGuessState.AWAITING_GUESS;\n        if(randomNumberRequestStateForUser[msg.sender] == RandomNumberRequestState.FULFILLED){\n            randomNumberRequestStateForUser[msg.sender] = RandomNumberRequestState.NO_REQUEST;\n        }\n\n        WordleResult[5] memory result;\n\n        string memory guessedWordString = userGuesses[msg.sender][numberOfGuesses[msg.sender]];\n\n        string memory targetWord;\n        if(currWordListForUser[msg.sender].length == 1){\n            targetWord = currWordListForUser[msg.sender][0];\n        } else {\n            targetWord = currWordListForUser[msg.sender][vrfAddressToRandomNumber[msg.sender]%currWordListForUser[msg.sender].length];\n        }\n\n        result = getWordleComparison(targetWord, guessedWordString);\n        guessStore[msg.sender][numberOfGuesses[msg.sender]] = result;\n        numberOfGuesses[msg.sender]++;\n\n        if(isAllGreen(result)){\n            solved[msg.sender] = true;\n            solvedCountByGuesses[numberOfGuesses[msg.sender]]++;\n        } else {\n            string[] memory newWordsListTemp = new string[](currWordListForUser[msg.sender].length);\n            uint numberOfNewWords = 0;\n            // create an array, and then trim it\n            for(uint i=0;i<currWordListForUser[msg.sender].length;i++){\n                if(isSameWordleResult(getWordleComparison(currWordListForUser[msg.sender][i], guessedWordString),result)){\n                    newWordsListTemp[numberOfNewWords] = currWordListForUser[msg.sender][i];\n                    numberOfNewWords++;\n                }\n            }\n\n            string[] memory newWordsList = new string[](numberOfNewWords);\n            for(uint i=0;i<numberOfNewWords;i++){\n                newWordsList[i]=newWordsListTemp[i];\n            }\n\n            currWordListForUser[msg.sender] = newWordsList;\n        }\n\n        vrfAddressToRandomNumber[msg.sender]=0;\n        return result;\n\n    }\n\n    function isSameWordleResult(WordleResult[5] memory a, WordleResult[5] memory b) private pure returns (bool){\n        for(uint i=0;i<5;i++){\n            if(a[i]!=b[i])return false;\n        }\n        return true;\n    }\n\n    function isValidWord(string calldata guessedWordString) internal view returns (bool){\n        if(bytes(guessedWordString).length != 5){\n            return false;\n        }\n        for(uint i=0;i<5;i++){\n            if(getIntegerIndex(bytes(guessedWordString)[i])>25){\n                return false;\n            }\n        }\n        return allowedWords[guessedWordString];\n    }\n\n    function isAllGreen(WordleResult[5] memory guess) internal pure returns (bool) {\n        return (guess[0]==WordleResult.GREEN && guess[1]==WordleResult.GREEN && guess[2]==WordleResult.GREEN && guess[3]==WordleResult.GREEN && guess[4]==WordleResult.GREEN);\n    }\n\n    function getIntegerIndex(bytes1 char) pure internal returns (uint8) {\n        if(uint8(bytes1(\"A\")) > uint8(char)){\n            return 255;\n        }\n        return uint8(char) - uint8(bytes1(\"A\"));\n    }\n\n    function getWordleComparison(string memory targetWordString, string memory guessedWordString) internal view returns (WordleResult[5] memory){\n\n        int[26] memory letterCounts;\n        bytes memory targetWord = bytes(targetWordString);\n        bytes memory guessedWord = bytes(guessedWordString);\n        for(uint i=0;i<26;i++){\n            letterCounts[getIntegerIndex(bytes(allChars)[i])]=0;\n        }\n\n        WordleResult[5] memory result = [WordleResult.GREY,WordleResult.GREY,WordleResult.GREY,WordleResult.GREY,WordleResult.GREY];\n\n        for(uint i=0;i<5;i++){\n            letterCounts[getIntegerIndex(targetWord[i])]++;\n            result[i]=WordleResult.GREY;\n        }\n\n        for(uint i=0;i<5;i++){\n            if(targetWord[i]==guessedWord[i]){\n                result[i]=WordleResult.GREEN;\n                letterCounts[getIntegerIndex(targetWord[i])]--;\n            }\n        }\n\n        for(uint i=0;i<5;i++){\n            if(result[i]==WordleResult.GREEN)continue;\n            if(letterCounts[getIntegerIndex(guessedWord[i])]>0){\n                result[i]=WordleResult.YELLOW;\n                letterCounts[getIntegerIndex(guessedWord[i])]--;\n            }\n        }\n        return result;\n    }\n}\n",
  "sourcePath": "contracts/CryptleVRF.sol",
  "type": "contract"
}